:100000009A3F04000000000000000000B03E000025
:10001000CE3E0000EC3E0000923E000000000000DA
:1000200000000000000000000000000000000000D0
:1000300000000000000000000000000000000000C0
:10004000000000000000000000000000D652000088
:1000500000000000000000000000000000000000A0
:100060000000000000000000000000000000000090
:1000700000000000000000000000000054530000D9
:1000800000000000000000000A3F00000000000027
:100090000000000000000000000000000000000060
:1000A0000000000000000000000000000000000050
:1000B0000000000000000000000000000000000040
:1000C0000000000000000000000000000000000030
:1000D0000000000000000000000000000000000020
:1000E0000000000000000000000000000000000010
:1000F0000000000000000000000000000000000000
:1001000000000000000000000000000000000000EF
:1001100000000000000000000000000000000000DF
:1001200000000000000000000000000000000000CF
:1001300000000000000000000000000000000000BF
:1001400000000000000000000000000000000000AF
:10015000000000000000000000000000000000009F
:10016000000000000000000000000000000000008F
:10017000000000000000000000000000000000007F
:10018000000000000000000000000000000000006F
:10019000000000000000000000000000000000005F
:1001A000000000000000000000000000000000004F
:1001B000000000000000000000000000000000003F
:1001C000000000000000000000000000000000002F
:1001D000000000000000000000000000000000001F
:1001E000000000000000000000000000000000000F
:1001F00000000000000000000000000000000000FF
:107F34002FCD2000F0FF200020A0B700000020007B
:107F440034A0B700400020004420B700805B02004A
:107F5400000000008A1F78008B1F78008C1F7800B7
:107F640081E0A800CA42A800CAE2A9000020EF00EC
:107F7400C0658800B1CB200010C0B30080487800F1
:107F84002CEC070031C120000020EF00804878006D
:107F9400B1B420000020EF008048780021A920001F
:107FA4000020EF008048780011A920000020EF0095
:107FB40080487800C0FF2F00A8A2B700C821EF00B6
:107FC400D421EF00B1C320000020EF0080487800E6
:107FD4008ACC2F00FB07200036E70700F0648800F6
:107FE4003EEC07000020EF000220EF00D062880082
:107FF400E16288000020EF000220EF004063880067
:1080040051638800E202A900E222A8000020EF00E8
:10801400105C88000020EF00205C880031A920005B
:108024000020EF008048780081A720000020EF00A6
:10803400804878008EEC07000000220094A0B7006E
:108044000001200098A0B7009C20EF00000720004A
:108054009EA0B70030002000A0A0B70001CA2000F5
:108064000020EF008048780091A720000020EF0056
:108074008048780088002000C7FC27000E20ED000F
:10808400FEFF3A001020ED00FCFF3A000AC02F006A
:10809400FB07200007E7070030668800380020004F
:1080A400F7FE23000E20ED00FEFF3A001020ED0045
:1080B400FCFF3A0000000000000000004AC02F004E
:1080C400FB072000FBE60700B065880038002000AD
:1080D400F7FE23000E20ED00FEFF3A001020ED0015
:1080E400FCFF3A0000000000000000008AC02F00DE
:1080F400FB072000EFE60700B05788003800200097
:10810400F7FE23000E20ED00FEFF3A001020ED00E4
:10811400FCFF3A000000000000000000CAC02F006D
:10812400FB072000E3E60700C05788003800200062
:10813400F7FE23000E20ED00FEFF3A001020ED00B4
:10814400FCFF3A0000000000000000000AC12F00FC
:10815400FB072000D7E60700D0578800380020002E
:10816400F7FE23000E20ED00FEFF3A001020ED0084
:10817400FCFF3A0000000000000000004AC12F008C
:10818400FB072000CBE60700E057880038002000FA
:10819400F7FE23000E20ED00FEFF3A001020ED0054
:1081A400FCFF3A0000000000000000008AC12F001C
:1081B400FB072000BFE60700605B88003800200052
:1081C400F7FE23000E20ED00FEFF3A001020ED0024
:1081D400FCFF3A000000000000000000CAC12F00AC
:1081E400FB072000B3E60700305B8800380020005E
:1081F400F7FE23000E20ED00FEFF3A001020ED00F4
:10820400FCFF3A00000000000000000061092000AB
:10821400C0B620001008E10005003C00615B80004E
:10822400401F20000008E10001003C000900370065
:10823400C108200060B620001008E10003003A00E5
:10824400800C2000605B88000200370000192000C9
:10825400605B88000AC22F00FB07200095E6070038
:10826400A065880038002000F7FE23000E20ED00F2
:10827400FEFF3A001020ED00FCFF3A000000000071
:10828400000000004AC22F00FB07200089E6070017
:108294001066880038002000F7FE23000E20ED0051
:1082A400FEFF3A001020ED00FCFF3A000000000041
:1082B400000000008AC22F00FB0720007DE60700B3
:1082C4000066880038002000F7FE23000E20ED0031
:1082D400FEFF3A001020ED00FCFF3A000000000011
:1082E40000000000CAC22F00FB07200071E607004F
:1082F400F065880038002000F7FE23000E20ED0012
:10830400FEFF3A001020ED00FCFF3A0000000000E0
:10831400000000000AC32F00FB07200065E60700E9
:108324002066880038002000F7FE23000E20ED00B0
:10833400FEFF3A001020ED00FCFF3A0000000000B0
:10834400000000004AC32F00FB07200059E6070085
:108354008066880038002000F7FE23000E20ED0020
:10836400FEFF3A001020ED00FCFF3A000000000080
:10837400000000000ACC2F00FB0720004DE6070098
:10838400B060880038002000F7FE23000E20ED00C6
:10839400FEFF3A001020ED00FCFF3A000000000050
:1083A400000000004ACC2F00FB07200041E6070034
:1083B400D060880038002000F7FE23000E20ED0076
:1083C400FEFF3A001020ED00FCFF3A000000000020
:1083D400000000000ACD2F00FB07200035E607004F
:1083E400C060880038002000F7FE23000E20ED0056
:1083F400FEFF3A001020ED00FCFF3A0000000000F0
:10840400000000004ACD2F00FB07200029E60700EA
:10841400305C880038002000F7FE23000E20ED00B9
:10842400FEFF3A001020ED00FCFF3A0000000000BF
:1084340000000000CACC2F00FB0720001DE6070047
:108444002058880038002000F7FE23000E20ED009D
:10845400FEFF3A001020ED00FCFF3A00000000008F
:1084640000000000CAC32F00FB07200011E607002C
:108474005060880038002000F7FE23000E20ED0035
:10848400FEFF3A001020ED00FCFF3A00000000005F
:10849400000000000AC42F00FB07200005E60700C7
:1084A400A060880038002000F7FE23000E20ED00B5
:1084B400FEFF3A001020ED00FCFF3A00000000002F
:1084C400000000004AC42F00FB072000F9E5070064
:1084D4000057880038002000F7FE23000E20ED002E
:1084E400FEFF3A001020ED00FCFF3A0000000000FF
:1084F400000000008AC42F00FB072000EDE5070000
:108504003057880038002000F7FE23000E20ED00CD
:10851400FEFF3A001020ED00FCFF3A0000000000CE
:1085240000000000CAC42F00FB072000E1E507009B
:108534006057880038002000F7FE23000E20ED006D
:10854400FEFF3A001020ED00FCFF3A00000000009E
:10855400000000000AC52F00FB072000D5E5070036
:108564005056880038002000F7FE23000E20ED004E
:10857400FEFF3A001020ED00FCFF3A00000000006E
:10858400000000004AC52F00FB072000C9E50700D2
:10859400A053880038002000F7FE23000E20ED00D1
:1085A400FEFF3A001020ED00FCFF3A00000000003E
:1085B400000000008AC52F00FB072000BDE507006E
:1085C4009065880038002000F7FE23000E20ED009F
:1085D400FEFF3A001020ED00FCFF3A00000000000E
:1085E400000000000AC62F00FB072000B1E50700C9
:1085F400C800DE00E083200001487800879923004A
:108604000E20ED00FEFF3A000AC62F00FB072000F3
:10861400A8E50700F10F200081006000F08320002E
:1086240001487800879923000E20ED00FEFF3A00F0
:108634004AC62F00FB0720009EE50700C800DE00A5
:108644000084200001487800879923000E20ED0063
:10865400FEFF3A004AC62F00FB07200095E50700FD
:10866400F10F200081006000108420000148780090
:10867400879923000E20ED00FEFF3A008AC62F00E2
:10868400FB0720008BE50700C800DE0020842000E3
:1086940001487800879923000E20ED00FEFF3A0080
:1086A4008AC62F00FB07200082E50700F10F200097
:1086B40081006000308420000148780087992300FD
:1086C4000E20ED00FEFF3A00CAC62F00FB07200073
:1086D40078E50700C800DE004084200001487800E7
:1086E400879923000E20ED00FEFF3A00CAC62F0032
:1086F400FB0720006FE50700F10F200081006000F8
:108704005084200001487800879923000E20ED0052
:10871400FEFF3A000AC72F00FB07200065E50700AB
:10872400C800DE0060842000014878008799230097
:108734000E20ED00FEFF3A000AC72F00FB072000C1
:108744005CE50700F10F20008100600070842000C8
:1087540001487800879923000E20ED00FEFF3A00BF
:108764004AC72F00FB07200052E50700C800DE00BF
:108774008084200001487800879923000E20ED00B2
:10878400FEFF3A000AC82F00FB07200049E5070056
:10879400C800DE008081200001487800879923000A
:1087A4000E20ED00FEFF3A000AC82F00FB07200050
:1087B40040E50700F10F2000810060009081200057
:1087C40001487800879923000E20ED00FEFF3A004F
:1087D4004AC82F00FB07200036E50700C800DE006A
:1087E400A081200001487800879923000E20ED0025
:1087F400FEFF3A004AC82F00FB0720002DE50700C2
:10880400F10F200081006000B08120000148780051
:10881400879923000E20ED00FEFF3A008AC82F003E
:10882400FB07200023E50700C800DE00C08120000C
:1088340001487800879923000E20ED00FEFF3A00DE
:108844008AC82F00FB0720001AE50700F10F20005B
:1088540081006000D08120000148780087992300BE
:108864000E20ED00FEFF3A00CAC82F00FB072000CF
:1088740010E50700C800DE00E08120000148780010
:10888400879923000E20ED00FEFF3A00CAC82F008E
:10889400FB07200007E50700F10F200081006000BE
:1088A400F081200001487800879923000E20ED0014
:1088B400FEFF3A000AC92F00FB072000FDE4070071
:1088C400C800DE0000822000014878008799230058
:1088D4000E20ED00FEFF3A000AC92F00FB0720001E
:1088E400F4E40700F10F20008100600010822000F2
:1088F40001487800879923000E20ED00FEFF3A001E
:108904004AC92F00FB072000EAE40700C800DE0084
:108914002082200001487800879923000E20ED0072
:10892400FEFF3A004AC92F00FB072000E1E40700DC
:10893400F10F20008100600030822000014878009F
:10894400879923000E20ED00FEFF3A008AC92F000C
:10895400FB072000D7E40700C800DE0040822000A7
:1089640001487800879923000E20ED00FEFF3A00AD
:108974008AC92F00FB072000CEE40700F10F200076
:10898400810060005082200001487800879923000C
:108994000E20ED00FEFF3A00CAC92F00FB0720009D
:1089A400C4E40700C800DE006082200001487800AB
:1089B400879923000E20ED00FEFF3A00CAC92F005C
:1089C400FB072000BBE40700F10F200081006000DA
:1089D4007082200001487800879923000E20ED0062
:1089E400FEFF3A000ACA2F00FB072000B1E407008B
:1089F400C800DE00808220000148780087992300A7
:108A04000E20ED00FEFF3A000ACA2F00FB072000EB
:108A1400A8E40700F10F200081006000908220008C
:108A240001487800879923000E20ED00FEFF3A00EC
:108A34004ACA2F00FB0720009EE40700C800DE009E
:108A4400A082200001487800879923000E20ED00C1
:108A5400FEFF3A004ACA2F00FB07200095E40700F6
:108A6400F10F200081006000B082200001487800EE
:108A7400879923000E20ED00FEFF3A008ACA2F00DA
:108A8400FB0720008BE40700C800DE00C082200042
:108A940001487800879923000E20ED00FEFF3A007C
:108AA4008ACA2F00FB07200082E40700F10F200090
:108AB40081006000D082200001487800879923005B
:108AC4000E20ED00FEFF3A00CACA2F00FB0720006B
:108AD40078E40700C800DE00E08220000148780046
:108AE400879923000E20ED00FEFF3A00CACA2F002A
:108AF400FB0720006FE40700F10F200081006000F5
:108B0400F082200001487800879923000E20ED00B0
:108B1400FEFF3A000ACB2F00FB07200065E40700A4
:108B2400C800DE00008320000148780087992300F4
:108B34000E20ED00FEFF3A000ACB2F00FB072000B9
:108B44005CE40700F10F2000810060001083200026
:108B540001487800879923000E20ED00FEFF3A00BB
:108B64004ACB2F00FB07200052E40700C800DE00B8
:108B74002083200001487800879923000E20ED000F
:108B8400FEFF3A004ACB2F00FB07200049E4070010
:108B9400F10F20008100600030832000014878003C
:108BA400879923000E20ED00FEFF3A008ACB2F00A8
:108BB400FB0720003FE40700C800DE0040832000DC
:108BC40001487800879923000E20ED00FEFF3A004B
:108BD4008ACB2F00FB07200036E40700F10F2000AA
:108BE40081006000508320000148780087992300A9
:108BF4000E20ED00FEFF3A00CACB2F00FB07200039
:108C04002CE40700C800DE006083200001487800DF
:108C1400879923000E20ED00FEFF3A00CACB2F00F7
:108C2400FB07200023E40700F10F2000810060000F
:108C34007083200001487800879923000E20ED00FE
:108C4400FEFF3A0000F02F0062A7B700F0072000F3
:108C540064A7B70021A720000020EF008048780017
:108C640011A720000020EF008048780031A72000E1
:108C74000020EF008048780011CA20000020EF0097
:108C840080487800A1CB20000020EF0080487800C5
:108C940061C420000020EF00804878005AE90700F2
:108CA4002CE90700A7FF2B000E20ED00FEFF3A0081
:108CB40000000000000000006BF20700A7FF2B007B
:108CC4000E20ED00FEFF3A0000000000000000004E
:108CD4000060FE0070F207000060FE008BB0200010
:108CE400B0CB200010457800ACF207008AB0200019
:108CF4008BE2070071A720000020EF008048780075
:108D040061A720000020EF0080487800A7FF2B0017
:108D14000E20ED00FEFF3A000000000000000000FD
:108D2400C4F20700A7FF2B000E20ED00FEFF3A005F
:108D340000000000000000008200A8008400A900D8
:108D44008C00A900DC82A900CB02A900DC02A800E7
:108D5400DC22A800DC42A800DC62A80069EC070061
:108D6400DC02A900DC22A900DC42A900DC62A90023
:108D74001420EF00E0DF07001AC0B300DEDF0700B5
:108D84000020EF00A0548800A1A820000020EF00DC
:108D94008048780091A8200010C0B3008048780073
:108DA400DCA2A900A1A720000020EF0080487800E1
:108DB400D1FA070011A7200010C0B3008048780042
:108DC400D4EC070011A720000020EF0080487800B1
:108DD400B1A720000020EF008048780081A820007F
:108DE4000020EF008048780091A7200050C0B30015
:108DF400804878000140FE00BFFA0700B0A72000B9
:108E0400104078006004E100050036001420EF00F3
:108E1400C4EC0700B1A720000020EF0080487800D0
:108E240080A82000104078006004E10005003600AE
:108E34001AC0B300BBEC070081A820000020EF009B
:108E440080487800D1AB20000020EF0080487800F3
:108E5400D0AB2000104078006404E10013003D0012
:108E6400D0AB20001000FB00C100DD0000A82000F2
:108E74000100400010057800A1FB07006300E10039
:108E840006003D00D0AB20009000FB00C0A72000EE
:108E9400810040000020EF008048780011C0B3003A
:108EA400D0AB200010C84000E9FF3700B0A8200074
:108EB400104078006104E1001D003A00C0B12000B8
:108EC4009080FB0000032000008050000001780027
:108ED400B0B120009080FB0000032000808050008F
:108EE400A00020000088B90000014100A0B12000CA
:108EF4009080FB000003200080805000400620008A
:108F04000088B9000002410090B120009080FB006D
:108F14000003200080805000803E20000089B900BA
:108F2400E0AF2000020842006FF2070054F207008D
:108F340020A72000104078006104E10042013A00BB
:108F44006DFA0700DC82AA000060FE0010A9200070
:108F5400104078006004E1000300360011C0B30043
:108F640010A9200010C81000D1AB20000020EF0091
:108F740080487800D0AB2000104078006404E10001
:108F840020003D00D0AB20009000FB00C0A72000D3
:108F94008100400011407800E1484000D0AB20003F
:108FA4009000FB00C0A720000100400010407800A2
:108FB4007E04E1000F003600D0AB20001000FB005F
:108FC400C200DD0020CA200001024000C0C1200010
:108FD400010040001001BE0034004100A48049009B
:108FE400B0548800C15488008100D1000080D300AF
:108FF400008ABE0011C0B300D0AB200010C84000EE
:10900400DCFF3700DC02AF0004003700DC22AF00D5
:10901400020037001420EF0037DF0700DC42AF0006
:1090240004003700DC62AF00020037001AC0B3004E
:1090340031DF0700A0A72000104078006004E100A1
:109044000700340000E30700A0A720001005FB0080
:1090540083E00700A1A720000020EF0080487800EB
:10906400D0C02000104078006004E10069003A009C
:1090740020638000316380000081EB001FF1070052
:1090840072AA2E0063EC23004CF0070002002000BB
:10909400030E24007FDC0700DCF007008CB0200006
:1090A4000005BE00D0E0070010CA20001004E00054
:1090B400020032008AB0200099E107002103200059
:1090C4000200200000C620003008E1002090E100EA
:1090D400050034008CB020001420EF001620EF00AF
:1090E400C1E007000B0037000063800011638000BB
:1090F4000081EB0001F1070072AA2E0063EC23004B
:109104002EF00700C1F007008CB020000005BE005F
:10911400B5E0070010CA20001004E000020032008D
:109124008AB020007EE1070010CA20001004E0008D
:1091340002003200DA002000ADF0070010CA20005F
:109144001004E00002003200AA002000A8F007008A
:10915400E0C020001080FB00520020001100090034
:109164000200D800010078006000E10020003A000D
:10917400D9E2070061972000D0C0B300804878008E
:1091840071972000A0C0B3008048780010CA200066
:109194001004E0000F0032000020EF003058880077
:1091A40031588000801020000008E10009003100DF
:1091B4000187200060B02000108040001085FB0073
:1091C4008BF007001100200060B0200010884000E0
:1091D400F3FF370031A9200010C0B30080487800A5
:1091E400DCA2A900D18420000020EF008048780090
:1091F400E0C02000104078006004E10005003A005F
:10920400F0C02000104078006004E10001003A0042
:10921400C0EB0700C8C2AF0001003700BDEB070078
:109224001420EF0000DC0700000178008001EB004F
:109234002263880033638800600E20000100200050
:109244000010E1000198E10003003D000A0820003D
:10925400C7E80700020037000A082000B3EA070045
:109264001A002000F0DB07008000EB000063880098
:1092740011638800906580006000E10019003A00E5
:10928400F0C02000104078006A04E1000C003600B1
:10929400F0C02000104078006E04E10008003100A6
:1092A400810C20000200200000C620003008E100EC
:1092B4002090E100020034000A042000ACE807001A
:1092C400A10F20000200200000C620003008E100A9
:1092D4002090E10002003D000A04200093EA070008
:1092E40030003700906580006100E10019003A0009
:1092F400E0C02000104078007E04E1000C003A0039
:10930400F0C02000104078007604E10008003A0024
:10931400810C20000200200000C620003008E1007B
:109324002090E100020034000A02200090E80700C7
:10933400A10F20000200200000C620003008E10038
:109344002090E10002003D000A02200077EA0700B5
:1093540014003700906580006200E10011003A00BB
:10936400810C20000200200000C620003008E1002B
:109374002090E100020034000A0220007CE807008B
:10938400A10F20000200200000C620003008E100E8
:109394002090E10003003D000A02200063EA070078
:1093A400CB02A800B0C320001004E0001200320079
:1093B400108020009040780000802000100CE10014
:1093C40004003C0011C0B3001080200010C840000D
:1093D40009003700F1C5200010C0B30080487800B0
:1093E40011C0B30060A7200010C84000B1C3200022
:1093F4000020EF008048780021A720000020EF0023
:109404008048780030A72000104078006004E10014
:109414000300360011C0B30030A7200010C81000AC
:109424001A00200046EA07000040E200050032006E
:10943400DC82AE00CAA2A900DC82AF00CAA2A800E6
:1094440001003700CAA2A90070A72000904078004C
:10945400C0C3B300000CE10005003E0060A720007B
:10946400104078007404E10001003E00070037005A
:1094740028EB070071A720000020EF008048780047
:1094840061A720000020EF008048780030A9200068
:10949400104078006104E10053003A006197200015
:1094A400D0C0B3008048780071972000A0C0B300FA
:1094B40080487800A08720009080FB0000032000F3
:1094C40080805000A00020000089B900B0872000EF
:1094D4009080FB0000032000008050000000410049
:1094E400CF80DE0002E62A0003002000C8DD07006A
:1094F4000058880011588800C08720009080FB0025
:109504000003200080805000A00020000089B900E2
:10951400D08720009080FB000003200000805000D2
:1095240000004100CF80DE00025A2000030020002A
:10953400B7DD070002B02000121940001291480064
:10954400E08720009080FB00000320008080500012
:10955400A00020000089B900F08720009080FB0063
:10956400000320000080500000004100CF80DE0096
:10957400C203200003002000A5DD070002B0200084
:109584001219400012914800008820009080FB00CE
:109594000003200080805000A00020000089B90052
:1095A400108820009080FB00000320000080500001
:1095B40000004100800178004F9ADE0002B02000D4
:1095C40032804100A2004A000058880011588800E7
:1095D4000C8720000005BE00E1E9070031A9200046
:1095E4000020EF008048780000CA20001004E0004A
:1095F40021003200D1AB20000020EF008048780029
:10960400D0AB2000104078006404E10016003D0057
:10961400D0AB20001000FB00C100DD0060AF2000D3
:1096240001004000100078000000E2000A0032004F
:10963400D0AB20001000FB00C100DD0000A820001A
:10964400010040008BCC2000100578000BDF0700E0
:109654008ACC200032E0070011C0B300D0AB200058
:1096640010C84000E6FF3700DA00200060EF070072
:10967400AA0020005EEF0700B0B42000104078007C
:109684006104E100C0003A0020A9200010407800E5
:109694006004E10008003A00CA42A80011A92000B1
:1096A40050C0B3008048780021A9200010C0B30046
:1096B40080487800B300370010A9200010407800DB
:1096C4006004E100AF003A0020A9200010407800B7
:1096D4006104E1000E003A0011A9200020C0B3008B
:1096E4008048780021A9200020C0B3008048780079
:1096F400CAE2A900DCA2A900D18420000020EF0066
:1097040080487800CA42A900CAE2A8009D00370038
:1097140020A92000104078006204E1000B003A0008
:1097240011A92000F0C0B3008048780021A92000CE
:1097340030C0B3008048780031A7200040C1B30096
:1097440080487800CAE2A9008E00370020A92000D2
:10975400104078006304E1000F003A0011A92000D2
:1097640010C0B3008048780021A9200040C0B30095
:1097740080487800CAE2A90033E107001A042000F7
:10978400B7DE07004A052000B5DE0700DA00200036
:10979400B3DE07007B00370020A9200010407800CA
:1097A4006404E1000B003A0011A9200010C0B300CA
:1097B4008048780021A9200050C0B3008048780078
:1097C4003AA52D00D5DE0700DA002000A4DE07004C
:1097D4006C00370020A92000104078006504E100E7
:1097E4000B003A0011A9200010C0B3008048780093
:1097F40021A9200060C0B300804878009AA72D00FA
:10980400C6DE0700DA00200095DE07005D003700A1
:1098140020A92000104078006604E1000B003A0003
:1098240011A9200010C0B3008048780021A92000AD
:1098340070C0B300804878005AB42D00B7DE07002A
:10984400DA00200086DE07004E00370020A9200041
:10985400104078006704E1000B003A0011A92000D1
:1098640010C0B3008048780021A9200080C0B30054
:10987400804878000AAF2D00A8DE0700DA00200037
:1098840077DE07003F00370020A920001040780051
:109894006804E1000F003A0011A9200030C0B300B1
:1098A4008048780021A9200090C0B3008048780047
:1098B4005AA42D0099DE07000A02200068DE070082
:1098C4000AB42D0095DE0700DA00200064DE0700EC
:1098D4002C00370020A92000104078006904E10022
:1098E40016003A0011A9200030C0B3008048780067
:1098F40021A92000A0C0B300804878004AA82D0008
:1099040086DE0700DA00200055DE0700480020004C
:1099140057FE2B000E20ED00FEFF3A001020ED0054
:10992400FCFF3A00000000000A9C2D007BDE0700CB
:10993400DA0020004ADE07001200370020A92000C8
:10994400104078006A04E1000E003A00BEE007000F
:10995400DCA2A900D18420000020EF008048780018
:10996400B1B420000020EF008048780021A9200035
:109974000020EF008048780011A920000020EF00AB
:10998400804878000603370030A720001040780094
:109994006004E10002033A00DCA2AF00600137007A
:1099A400D0842000104078006004E10018003A00E0
:1099B4001420EF00D4E80700A3E007001A042000F5
:1099C40027DE0700A7FF2B000E20ED00FEFF3A0064
:1099D40000000000000000003AAA2D004FDE07003E
:1099E400570F20000E20ED00FEFF3A00000000009B
:1099F40000000000A1A72000D0C0B3008048780078
:109A0400D184200010C0B30080487800430137009F
:109A1400F0C520001004E00040013200B1C3200072
:109A24000020EF0080487800F1C520000020EF00FE
:109A340080487800D0842000104078006104E10060
:109A440033003A0090832000104078006104E10064
:109A540028003400908320001000FB00E200500036
:109A6400C0C620000100400090407800F0C4B3005C
:109A7400000CE1001F003A00908320001000FB005E
:109A8400E1005000C0C62000010040009040780072
:109A9400B0C4B300000CE10016003A0041062000F7
:109AA40040CB20001009B80070842D000200400053
:109AB4000005780019DE07001420EF0092E8070083
:109AC400570F20000E20ED00FEFF3A0000000000BA
:109AD400000000005CE00700A1A72000D0C0B30094
:109AE40080487800D184200020C0B30080487800EA
:109AF4000600370011C0B30070A7200010C8400052
:109B0400D18420000020EF00804878000301370052
:109B1400D0842000104078006204E1002E003A0056
:109B240090832000104078006104E1002300340099
:109B3400908320001000FB00E2005000C0C620000B
:109B44000100400090407800F0C4B300000CE10034
:109B54001A003A00908320001000FB00E10050003E
:109B6400C0C620000100400090407800B0C4B3009B
:109B7400000CE10011003A006AAB2D00E7DD07009C
:109B84003AC2B30060E80700570F20000E20ED0032
:109B9400FEFF3A0000000000000000002AE0070079
:109BA400A1A72000D0C0B30080487800D184200051
:109BB40030C0B300804878000600370011C0B300FD
:109BC40070A7200010C84000D18420000020EF00BE
:109BD40080487800D1003700D084200010407800FD
:109BE4006304E1002E003A009083200010407800C6
:109BF4006104E10023003400908320001000FB0086
:109C0400E2005000C0C620000100400090407800EF
:109C1400F0C4B300000CE1001A003A009083200065
:109C24001000FB00E1005000C0C62000010040000D
:109C340090407800B0C4B300000CE10011003A0079
:109C4400DAAA2D00B5DD07001420EF002EE8070086
:109C5400570F20000E20ED00FEFF3A000000000028
:109C640000000000F8DF0700A1A72000D0C0B30067
:109C740080487800D184200040C0B3008048780038
:109C84000600370011C0B30070A7200010C84000C0
:109C9400D18420000020EF00804878009F00370026
:109CA400D0842000104078006404E10047003A00AA
:109CB40090832000104078006604E1003C003400EA
:109CC400CA9A2D0095DD07008BCC20001A6680000F
:109CD4006ADD07008ACC200090DD0700EA0220003C
:109CE4005FDD0700870120000E20ED00FEFF3A0033
:109CF40000000000000000008BCC20000A668000F9
:109D04005EDD07008ACC200084DD0700EA02200023
:109D140053DD0700870120000E20ED00FEFF3A000E
:109D240000000000000000008BCC2000FA658000D9
:109D340052DD07008ACC200078DD0700EA0220000B
:109D440047DD0700870120000E20ED00FEFF3A00EA
:109D540000000000000000008BCC20002A66800078
:109D640046DD07008ACC20006CDD0700BAB62D0062
:109D74006ADD07008BCC20008A6680003FDD070087
:109D84008ACC200065DD0700A1A72000D0C0B30065
:109D940080487800D184200050C0B3008048780007
:109DA400A9DF07002AC0B300D7E707000600370081
:109DB40011C0B30070A7200010C84000D184200057
:109DC4000020EF008048780054003700D084200041
:109DD400104078006504E10050003A0090832000B0
:109DE400104078006304E1002C00340090832000CC
:109DF4001000FB00E4005000C0C620000100400039
:109E04009040780040C5B300000CE10023003A0004
:109E1400908320001000FB00E2005000C0C6200028
:109E24000100400090407800F0C4B300000CE10051
:109E34001A003A00908320001000FB00E10050005B
:109E4400C0C620000100400090407800B0C4B300B8
:109E5400000CE10011003A00DCA2A8007ADF070040
:109E6400D18420000020EF0080487800F1C5200054
:109E740010C0B3008048780071A720000020EF00D4
:109E84008048780061A720000020EF008048780017
:109E94004006200070548800200037009083200082
:109EA400104078006104E100160034009083200023
:109EB4001000FB00E2005000C0C62000010040007A
:109EC40090407800F0C4B300000CE1000D003A00AB
:109ED400908320001000FB00E1005000C0C6200069
:109EE4000100400090407800B0C4B300000CE100D1
:109EF40004003A0054DF07004AC1B30082E70700B8
:109F04000600370011C0B30070A7200010C840003D
:109F1400D18420000020EF0080487800A0013700A1
:109F2400F0C520001004E0009D013200F1C52000BE
:109F34000020EF0080487800C0C6200090407800E0
:109F440030C4B300000CE10014003A00D0C6200075
:109F540090407800C0C4B300000CE1000F003A0048
:109F6400E0C6200090407800F0C4B300000CE1008B
:109F74000A003A00F0C620009040780030C5B300D3
:109F8400000CE10005003A00DCA2A900D184200005
:109F94000020EF008048780081013700D084200041
:109FA400104078006004E10057013A00C0C6200068
:109FB4009040780000C3B300000CE10005003200BB
:109FC40041062000E0A820001008E1000100320052
:109FD400480137001A042000A1DC0700A7FF2B006A
:109FE4000E20ED00FEFF3A0000000000000000001B
:109FF400EAA62D00C9DC070041062000E0A82000E5
:10A004001008E10003003A004AB72D00C3DC070042
:10A01400D9003700C0C620009040780000C3B300C8
:10A02400000CE100B9003A00D0C62000904078004E
:10A0340010C3B300000CE100B4003A00E0C62000F5
:10A044009040780090C3B300000CE100AF003A00E8
:10A05400F0C620009040780070C3B300000CE1000B
:10A06400AA003A00300020007054880020C7200065
:10A074009080FB000003200080805000A00020009E
:10A084000089B90030C720009080FB000003200045
:10A094000080500000004100CF80DE0002E62A006C
:10A0A40003002000DADA07000058880011588800FD
:10A0B40040C720009080FB000003200080805000F7
:10A0C400A00020000089B90050C720009080FB0048
:10A0D400000320000080500000004100CF80DE001B
:10A0E400025A200003002000C9DA070002B0200051
:10A0F400121940001291480060C720009080FB00B4
:10A104000003200080805000A00020000089B900D6
:10A1140070C720009080FB000003200000805000E6
:10A1240000004100CF80DE00C203200003002000B5
:10A13400B7DA070002B0200012194000129148005B
:10A1440080C720009080FB00000320008080500026
:10A15400A00020000089B90090C720009080FB0077
:10A1640000032000008050000000410080017800BE
:10A174004F9ADE0002B0200032804100A2004A0063
:10A1840000588800115888000C8720000005BE0084
:10A19400C7DC0700808720009040780000C72000BB
:10A1A400100CE1002E003A009087200090407800C7
:10A1B40010C72000100CE10029003A00A0872000FD
:10A1C4009040780020C72000100CE10024003A00E1
:10A1D400B08720009040780030C72000100CE100C8
:10A1E4001F003A00C08720009040780040C720003C
:10A1F400100CE1001A003A00D0872000904078004B
:10A2040050C72000100CE10015003A00E087200040
:10A214009040780060C72000100CE10010003A0064
:10A22400F08720009040780070C72000100CE100F7
:10A234000B003A00008820009040780080C720007E
:10A24400100CE10006003A001088200090407800CD
:10A2540090C72000100CE10001003A001F003700F5
:10A2640074E307008187200000C72000904878002D
:10A274009187200010C7200090487800A187200013
:10A2840020C7200090487800B187200030C7200004
:10A2940090487800C187200040C72000904878008B
:10A2A400D187200050C7200090487800E187200023
:10A2B40060C7200090487800F187200070C7200014
:10A2C400904878000188200080C7200090487800DA
:10A2D4001188200090C720009048780061972000E2
:10A2E400D0C0B3008048780071972000A0C0B300AC
:10A2F40080487800819720000020EF008048780093
:10A30400FAB42D0005DC07001B003700C0C620008E
:10A314009040780000C3B300000CE10016003A003E
:10A32400D0C620009040780000C3B300000CE100C8
:10A3340011003A00E0C620009040780010C3B3003A
:10A34400000CE1000C003A00F0C6200090407800B8
:10A3540020C3B300000CE10007003A002AC0B30098
:10A36400EADA070064F50700C00020007054880092
:10A374001AB72D00E9DB0700DA002000B8DB07007C
:10A38400C1AB20000020EF0080487800F1AA200033
:10A394000020EF0080487800C0AB20001004E000EB
:10A3A40018003A00F0AA20009040780040C6B3009C
:10A3B400000CE10013003D002800200047FF2700A7
:10A3C4000E20ED00FEFF3A001020ED00FCFF3A00E5
:10A3D400000000000000000011C0B300F0AA20003B
:10A3E40010C84000F0AA20009040780080C2B3005A
:10A3F400000CE10002003A00DA00200098DB0700BC
:10A40400E5FF3700C0AB20001004E0003400320048
:10A414000DDE0700705480006300E10007003A007D
:10A42400AAB42D00BDDB07002A802000BBDB070097
:10A434000A872000B9DB07001A0037007054800037
:10A444006C00E10007003A00BAB32D00B3DB07004B
:10A454002A802000B1DB0700FAAB2D00AFDB070038
:10A464001000370041062000E0A820001008E10099
:10A474000C003A006AB32D00A8DB07002A802000F4
:10A48400A6DB0700FAAB2D00A4DB07009AAE2D0073
:10A49400A2DB07007AA02D00A0DB07000AB32D0081
:10A4A4009EDB07000020EF0070548800A1A7200065
:10A4B4000020EF00804878004AC1B30012E607008C
:10A4C400D184200010C0B30080487800DEDD07008E
:10A4D400F1C520000020EF00804878000400370018
:10A4E400D18420000020EF0080487800DCA2A9007D
:10A4F40004003700D18420000020EF008048780059
:10A50400DCA2A90026003700D08420001040780087
:10A514006104E10022003A00C0C6200090407800A7
:10A5240030C5B300000CE10019003A00D0C6200089
:10A534009040780050C4B300000CE10014003A00CD
:10A5440010C7200090407800F0C4B300000CE10074
:10A554000F003A0020C7200090407800B0C4B30038
:10A56400000CE1000A003A00D18420000020EF0032
:10A5740080487800B1C320000020EF0080487800B4
:10A58400B1DD07000020EF0070548800040037009C
:10A59400D18420000020EF0080487800DCA2A900CC
:08A5A40014FA3700FFFF370035
:103038000020EF00A0548800A154800060102000F8
:103048000008E10009003D000187200040A9200098
:103058009080400000C3B300804878001100200031
:1030680040A9200010884000F3FF37000020EF003F
:10307800A0548800A05480006800E1000C003D00C6
:103088000187200040A9200010814000F1AB2D00ED
:1030980040A9200090804000114078000049780045
:1030A8001100200040A9200010884000F1FF3700DF
:1030B80061972000D0C0B300804878007197200045
:1030C800A0C0B30080487800819720000020EF005E
:0830D8008048780000000600AA
:101CB8000000FA004001200000A0EC0010007800AD
:101CC80032A0B7008A0478001900BA000080FA0030
:041CD8000000060002
:1030E000C662A900C6A2A900CAA2A900C6C2A800B9
:1030F000C6E2A900CAE2A900C702A900C602A80048
:10310000C622A800C682A800DE02A900DE22A9000D
:10311000DE42A800DE62A900DE82A800DEA2A900CD
:10312000DEC2A900D802A900D822A900D842A9006D
:10313000D862A900D882A900D8A2A900D902A80003
:10314000CDA2A900CDC2A800D222EF00D622EF0066
:08315000C642A90000000600C0
:103274000020EF00705C880001B920000020EF00FE
:10328400804878000020EF00905C88000020EF0068
:10329400A05C88000020EF00B05C88000020EF00F4
:1032A400C05C8800A1B920000020EF0080487800AD
:1032B4000020EF00E05C88000020EF00F05C880054
:1032C4000020EF00005D88000020EF00105D880002
:1032D40041BA20000020EF00804878000020EF0071
:1032E400305D88000020EF00405D88000020EF0082
:1032F400505D88000020EF00605D8800E1BA200086
:103304000020EF00804878000020EF00805D8800F6
:103314000020EF00905D88000020EF00A05D880091
:103324000020EF00B05D880081BB20000020EF008A
:10333400804878000020EF00D05D88000020EF0076
:10334400E05D88000020EF00F05D88000020EF00C1
:10335400005E880021BC20000020EF008048780037
:103364000020EF00205E88000020EF00305E88001F
:103374000020EF00405E88000020EF00605E8800BF
:10338400E1BC20000020EF00804878000020EF001E
:10339400805E88000020EF00905E88000020EF002F
:1033A400A05E88000020EF00B05E880081BD200090
:1033B4000020EF00804878000020EF00D05E8800F5
:1033C4000020EF00E05E88000020EF00F05E88003F
:1033D4000020EF00005F880021BE20000020EF00E5
:1033E4008048780031BE20000020EF00804878003B
:1033F4000020EF00205F88000020EF00305F88008D
:103404000020EF00405F88000020EF00505F88003C
:10341400C1BE20000020EF00804878000020EF00AB
:10342400705F88000020EF00805F88000020EF00BC
:10343400905F88000020EF00A05F880061BF20003B
:103444000020EF00804878000020EF00C05F880073
:103454000020EF00D05F88000020EF00E05F8800CC
:103464000020EF00F05F880001C020000020EF0082
:10347400804878000020EF00106088000020EF00F2
:10348400206088000020EF00306088000020EF00FA
:103494000220EF0010578800215788000020EF0019
:1034A4000220EF00E0568800F15688000020EF006B
:1034B4000220EF0070578800815788000020EF0039
:1034C4000220EF0040578800515788000020EF0089
:1034D4000220EF0030568800415688000020EF009B
:1034E4000220EF00505C8800615C88000020EF003F
:1034F4000220EF0060568800715688000020EF001B
:103504000220EF00C0568800D15688000020EF004A
:103514000220EF00A0568800B15688000020EF007A
:103524000220EF0080568800915688000020EF00AA
:103534000220EF0090578800A15788000020EF0078
:103544000220EF0010568800215688000020EF006A
:103554000220EF00D0628800E16288000020EF00C2
:103564000220EF00406388005163880000000600D9
:0035740057
:10320C00D1A820000020EF008048780071C4200075
:10321C000020EF00804878000621EF001021EF001D
:10322C001E21EF00809923001AA1B70086A0A900E7
:10323C008EA0A80040B020001000E0000300320077
:10324C00500E20005AA1B70002003700400E20009B
:10325C005AA1B7001FE1A80011E1A8001FA1A90005
:08326C0011A1A90000000600F9
:103158008A1F78008B1F78000A202C001B00200093
:103168005EFA07000D42A8000DA2A90017A2A90047
:103178008520A9000A202C001B00200013FA070054
:10318800BE0907008D20A800AEFA07008700A90035
:103198008F00A800F1C520000020EF0080487800CB
:1031A800E1C520000020EF00804878000E22A90029
:1031B8001822A9000020EF00705488000020EF00BA
:1031C800F05788006AA32D0088FA0700013A8000AA
:1031D80000002200008050008BCC20000005780001
:1031E8005FF907008ACC20004CF907001AA62D00C9
:1031F8007EFA07004027EF00CF0578004F057800DA
:0432080000000600BC
:101AE4000800FA00A09F2200F0548800A0E721001B
:101AF40020558800F0FF2F0010558800F0FF2F00BC
:101B0400005588000C22EF00000028000EA2B70048
:101B140010FC0700823E2000030020003CFC07006C
:101B24008002780001037800640020000A01BE00EE
:101B34000402E900030035000201D0008381D200D1
:101B4400FBFF37000207980013079800851F7800F1
:101B5400861F78000002EB0001FC07004F037800A9
:101B6400CF0278002007980031079800050078001C
:101B7400860078000E0190009E0190000002EB00A8
:101B84000BFB070080017800010278006000470029
:101B9400B0007800200178000201D1008180D300D8
:101BA400640047003008E1002090E10004003100A7
:101BB40061804100E0004A000001BE0002003700DD
:101BC400030178008401780061005100E08059002D
:101BD400A01088000E22A9000DE2A8000F42A80060
:101BE40014FC070013FC07000080FA000000060044
:001BF400F1
:0C0B580000662E000100200000000600D6
:100C380088002000C7FC27000E20ED00FEFF3A00C8
:0C0C48001020ED00FCFF3A000000060048
:100C14000000FA00020AB800500088000200B80080
:100C240081004200032AB800810042000080FA00DB
:040C340000000600B6
:100B64000000FA000200070006060400000000006E
:100B74000800E20002003A0010000700000006002E
:100B8400811F78000200E20002003D0060001000B6
:100B9400E08018000600E20002003D006001110040
:100BA400E0811900050007004F00E00002003B004F
:100BB40060001000E080180000000600020007003A
:100BC4000480BE00000006006022B8000602200077
:100BD4000000D0008180D2000482D2008582D2003D
:100BE4000000A8000202520083825A0003003B0066
:100BF4000202420083824A000000A1000603E900C9
:100C0400F3FF3A00000006000080FA00000006002E
:000C1400E0
:1007B4000000FA0002000700280404000000000002
:1007C4000800E20002003A001000070000000600E2
:1007D400839F68000200E20002003D0060001000F8
:1007E400E08018000600E20002003D0060011100F4
:1007F400E0811900050007004F00E00002003B0003
:1008040060001000E0801800000006006022B800BC
:10081400060220000000D0008180D2000482D200B1
:100824008582D2000000A8000202520083825A008E
:1008340003003B000202420083824A000000A10040
:100844000603E900F3FF3A00000006000080FA0006
:04085400000006009A
:1019D4000800FA0020932000F054880000AC210095
:1019E40020558800F0FF2F0010558800F0FF2F00CD
:1019F400005588001622EF000000280018A2B70046
:101A040054FC0700823E20000300200080FC0700F5
:101A14008002780001037800640020000A01BE00FF
:101A24000402E900030035000201D0008381D200E2
:101A3400FBFF37000207980013079800851F780002
:101A4400861F78000002EB0045FC07004F03780076
:101A5400CF0278002007980031079800050078002D
:101A6400860078000E0190009E0190000002EB00B9
:101A74004FFB0700800178000102780060004700F6
:101A8400B0007800200178000201D1008180D300E9
:101A9400640047003008E1002090E10004003100B8
:101AA40061804100E0004A000001BE0002003700EE
:101AB400030178008401780061005100E08059003E
:101AC400F01088001822A90017E2A8001942A80003
:101AD40058FC070057FC07000080FA0000000600CD
:001AE40002
:10588400C1A820000020EF0080487800C0A82000B4
:105894009040780010C3B300000CE1000A0031000E
:1058A400C0A820009080FB0090B12000810040003F
:1058B4000020EF008048780011C0B300C0A8200089
:1058C40010C84000F1FF3700C18420000020EF0021
:1058D40080487800B1A820000020EF0080487800BC
:0858E4000E22A90000000600DD
:101C4C0001A920000020EF008048780000A92000A6
:101C5C009040780010C3B300000CE1000A00310082
:101C6C0000A920009080FB00C0C62000810040002D
:101C7C000020EF008048780011C0B30000A92000BC
:101C8C0010C84000F1FF3700918320000020EF00C6
:0C1C9C00804878001822A9000000060013
:101BF4001A4078000040E200120032001A407800D7
:101C04006A04E1000C0032001A4078006D04E1001F
:101C1400090032008A1F78001A85FB00F40D0700C2
:101C24004F057800970420000E20ED00FEFF3A00D7
:101C3400000000000000000061004500000578007D
:081C4400EBFF37000000060071
:1053F4000000FA000F02AF0001003700FDFF370084
:0C5404008A1088000080FA0000000600FA
:101768000200FA000420EF006514E10006003100D1
:101778000280FB008080450000C2B30080487800EA
:101788000460EC00F8FF37000280FB008080450011
:101798000020EF0080487800E14151000380FB0001
:1017A8000080450000079800A200200011000900F1
:1017B8000285D80000032000808040000E009000C1
:1017C80001487800A2002000110009000285D80015
:1017D800000578006000E10001003A0002003700CF
:1017E8000660ED00EDFF37000080FA0000000600FB
:0017F800F1
:101724000000FA000220EF001A4078006004E10093
:101734000A0032008A1F78000085FB002C0F070086
:101744004F05780061C04000804078000080FB00B5
:101754000000450010407800F4FF37000080FA00D4
:04176400000006007B
:10566C000000FA006011200000568800000E200097
:10567C00A0A2B700A222EF00F0F32100A4A2B70071
:10568C00AA22EF00A1E2A8000080FA0000000600A8
:00569C000E
:10569C008A1F78008B1F78008C1F78008D1F780074
:1056AC001A20EF00CC0120001620EF000A02200087
:1056BC0000102000801F78000020EF00801F780071
:1056CC000020EF00801F78000020EF00801F780082
:1056DC00A6F007008F00B10044F007006000E10065
:1056EC0004003A00B1CB20000020EF008048780085
:1056FC0013003700273321000E20ED00FEFF3A0087
:10570C00000000000000000038F007006000E1001D
:10571C0004003A00B1CB20000020EF008048780054
:10572C0003003700B1CB200010C0B30080487800D4
:10573C001420EF00C9EA07001420EF00C7EA0700A5
:10574C002D002000CC0120001620EF000A022000C2
:10575C000020EF00801F780000042000801F7800DC
:10576C000020EF00801F78000020EF00801F7800E1
:10577C007EF007008F00B100FA0F200047F1070000
:10578C00CF0678004F067800CF0578004F057800DB
:04579C000000060003
:101978000000FA00CEB897003EBA97002EB997003B
:101988009EB997002022EF002222EF00401320008A
:10199800F055880040E52000E05488000B007500F1
:1019A8000C0070000D007000010070000400700051
:1019B80082007000202220000388700020C2A90045
:0C19C80021E2A8000080FA0000000600E8
:1017F8000200FA008A1F78008B1F78008C1F78007F
:101808008D1F780001A7200050C0B30080487800E1
:10181800DE22A900DCFB07000220EF006A08E100D5
:1018280008003100811F7800FA0F2000F055800071
:1018380000000100CF00780061804000800078003F
:10184800F6FF370002FC07005DC9B3001620EF0061
:101858001820EF001420EF0001FC07000007980093
:10186800C9FB07000E0090006100E1000200320091
:101878001000200038003700F5FB07007DC8B300D2
:10188800AB1A20000C0020008AC0B300F4FB07004C
:1018980000079800FA0F2000F055800000000100B2
:1018A800FA0F2000F055800000000100FA0F200018
:1018B800F055800000000100FA0F2000F05580006C
:1018C80000000100B0FB07000E0090006100E1007D
:1018D800070032001AC0B30028FC07000000E2002D
:1018E800020032001420EF0024FC07000200370039
:1018F8002AC0B30021FC070000A720001080FB00CD
:101908006500E10002003A002000200012003700C4
:1019180000A720001080FB006400E1000D003200E9
:10192800CBFB0700FDCFB3000B2020000C002000EC
:101938000AC1B300CAFB07000007980092FB070022
:101948000E0090006000E10002003200300020002C
:10195800010037000020EF00CF0678004F0678001E
:10196800CF0578004F0578000080FA0000000600D7
:001978006F
:100790000000FA008A1F7800E222A800FA0F200069
:1007A000F0558000000001004F0578000080FA003D
:0407B000000006003F
:10022C000000FA00100020000A00DD008080EA00C7
:10023C00802A2000108860003A158800A022A800AF
:10024C00A002AF0001003700FDFF3700A002A9009B
:0C025C008082BF000080FA000000060055
:100268000000FA0020C2A9002022AE0001003700D9
:10027800FDFF37002A1188002002AF000100370077
:10028800FDFF37002482BF000080FA00000006004E
:0002980066
:100858000000FA00E222A9000080FA000000060069
:0008680090
:100868000200FA008A1F78008A80FB00000420003A
:10087800008040008D1F78008B1F78008C1F780047
:1008880000057800F0558000000001004F06780050
:10089800CF05780060012000630040008B1F7800BE
:1008A8008C1F78001085FB00F055800000000100C7
:1008B8004F067800CF0578006001200000A0EC000A
:1008C8008B1F78008C1F78001085FB00F055800086
:1008D800000001004F067800CF0578006001200075
:1008E8000020EC008B1F78008C1F78001085FB001F
:1008F800F0558000000001004F067800CF05780011
:100908000B85FB00F055800000000100CF06780041
:100918000D85FB00F0558000000001000420EF0069
:10092800821F78008A9FBE008C9FBE00FA0F2000AD
:10093800F1558000010001004F06BE004F05BE00C2
:100948004F017800000798000420EC0001082000FF
:10095800010060006000E100040032004006200051
:100968000010E10001003100EDFF37000E0090009B
:0C0978004F0578000080FA000000060027
:100984000600FA008B1F78008C1F78008D1F7800FA
:100994000020EF00000798008E00900000712200F4
:1009A4000008E100650031000A80FB006000E100FE
:1009B40013003A00A7FF07008A1F7800FDCFB30099
:1009C4001620EF001820EF001AC0B300A5FF07009F
:1009D400100798006DFF07004F0578001E00900077
:1009E4006000E10005003A0001A720000020EF00AC
:1009F400804878000020EF00510037004B0037009A
:100A040094FF07008A1F7800FDCFB3001620EF0083
:100A14001820EF007AC3B30092FF07001007980074
:100A24005AFF07004F0578001E0090006100E100A6
:100A34003D003A0087FF07008A1F7800FDCFB3000E
:100A44000B0020000C0024009AC2B30085FF0700AD
:100A5400100798004DFF07004F0578001E00900016
:100A64006000E1002F003A000A80FB006200E10010
:100A740027003A0077FF07008A1F7800FDCFB300F4
:100A84001620EF001820EF00AAC3B30075FF07007B
:100A940010079800FA0F2000F155800001000100B2
:100AA40020079800FA0F2000F05580000000010094
:100AB400FA0F2000F055800000000100FA0F20001A
:100AC400F05580000000010030FF07004F0578005A
:100AD4001E0090006000E1000C003A006400470032
:100AE4001060A6000400370001A7200040C0B30036
:100AF400804878000300370001A7200030C0B3000D
:100B0400804878000020EF000D0037000500370012
:100B140001A7200010C0B300804878000020EF0037
:100B24000700370001003700040037008E009000F2
:100B3400600047006188400097FF370010002000E4
:100B4400CF0678004F067800CF0578000080FA00C1
:040B54000000060097
:101CA8000000FA006EF907000080FA000000060044
:001CB8002C
:1057A0000200FA000420EF006314E100060031005B
:1057B0000280FB008080450000C2B3008048780072
:1057C0000460EC00F8FF37000280FB008080450099
:1057D0000020EF0080487800E14151000380FB0089
:1057E00000804500000798000A80FB00A20020000E
:1057F000110009000280D8000003200080804000D2
:105800000E009000014878000A80FB00A2002000F2
:10581000110009000280D800004578006004E10012
:1058200001003A00020037000660ED00EBFF370090
:085830000080FA0000000600F0
:10583800D1C020000020EF0080487800E1C020009F
:105848000020EF0080487800F1C020000020EF0021
:105858008048780001C1200010C0B300804878005B
:1058680011C1200010C0B3008048780021C1200079
:0C5878000020EF008048780000000600CF
:103F08000200FA0071C4200010C0B3008048780095
:103F180091C520000020EF008048780081C520006E
:103F28000020EF008048780080C52000104078000D
:103F38006404E1001B00310080C520001080FB00F4
:103F4800C200DD0020CA2000010140000020EF006F
:103F58000220EF000089BE0080C520001080FB0011
:103F6800C200DD0080C42000010140000020EF00F5
:103F78000220EF000089BE0080C520001080FB00F1
:103F8800C100DD00C0C22000810040000020EF0019
:103F98008008780011C0B30080C5200010C8400018
:103FA800E1FF370090C52000104078006A04E10066
:103FB8003200310030C12000104078006404E10074
:103FC80001003D00FBFF3700E1608000F2608000E7
:103FD80080C42000109840001010490011002000F3
:103FE800C0C220001088400001618000126180007A
:103FF800C0C4200010984000101049001100200093
:10400800E0C22000108840002161800032618000F9
:1040180000C5200010984000101049001100200031
:1040280000C3200010884000416180005261800078
:1040380040C52000109840001010490011002000D1
:1040480020C320001088400031C120000020EF006C
:104058008048780011C0B30090C5200010C8400007
:1040680088002000C7FC27000E20ED00FEFF3A0064
:104078001020ED00FCFF3A00CAFF370081C5200080
:104088000020EF008048780080C5200010407800AC
:104098006404E1001900310080C520001080FB0095
:1040A800C200DD0020CA200001004000000798007F
:1040B80080C42000010040001002BE0080C520001E
:1040C8001080FB00C100DD00C0C2200001004000DC
:1040D800100178008001EB000400BE000002EB0034
:1040E800B2F107000E0190000089BE0011C0B300B4
:1040F80080C5200010C84000E3FF370071C42000CD
:104108000020EF00804878000080FA0000000600D8
:00411800A7
:100CFC006054E10006003A00DC02A900DC22A900E5
:100D0C00A1CB20000020EF008048780005003700C0
:100D1C00DC42A900DC62A90061C420000020EF00C5
:100D2C00804878000A80FB00C200DD0060B720001C
:100D3C00010140000020EF000220EF000089BE00FE
:100D4C000A80FB00C200DD0040B52000010140001C
:100D5C000020EF000220EF000089BE000A80FB009B
:100D6C00C200DD00E0B62000010140000020EF00D1
:100D7C000220EF000089BE008A80FB0000B6200034
:100D8C00810040000020EF00804878008A80FB0042
:100D9C0040C42000810040000020EF008048780013
:100DAC000A80FB00C200DD00C0C32000010140002E
:100DBC000020EF000220EF000089BE0091B8200057
:100DCC000020EF008048780051B620000020EF0092
:100DDC008048780081B820000020EF00804878001F
:040DEC0000000600FD
:1078FC008A1F78008B1F78004BB1200020C120001C
:10790C0010457800D0E407004180200060B12000D1
:10791C00904878005180200070B120009048780089
:10792C004BB1200010C1200010457800C6E40700C0
:10793C007180200060B12000904878008180200088
:10794C0070B12000904878004BB1200000C120009D
:10795C0010457800BCE40700A180200060B1200035
:10796C0090487800B180200070B1200090487800D9
:10797C004BB12000F0C0200010457800B2E40700A5
:10798C00D180200060B1200090487800E180200078
:10799C0070B12000904878004BB12000E0C020006E
:1079AC0010457800A8E407000181200060B1200098
:1079BC00904878001181200070B120009048780028
:1079CC004BB12000D0C02000104578009EE4070089
:1079DC003181200060B12000904878004181200066
:1079EC0070B120009048780042062000C0658000ED
:1079FC00110009000200D8008001780001C3B30017
:107A0C006081200001C8410061812000608120005C
:107A1C0090487800C1CB20000020EF00804878000F
:107A2C002A8020002CE50700C1CB20009100FB0030
:107A3C000008E10012003D00C0CB20009000FB00CC
:107A4C0020802000010040009040780000C2B3006C
:107A5C00000CE10006003A00C0CB20009000FB00B7
:107A6C00208020008100400000C3B30080487800D3
:107A7C0011C0B300C0CB200010C84000E8FF370095
:0C7A8C00CF0578004F05780000000600D0
:100C54000000FA008A1F78000820EF000A00FB0059
:100C64006054E10005003D00E10042000A00FB0081
:100C74006000100001027800000037000045780091
:100C8400C612070043002000040178006018E10048
:100C940006003600838045006180510000804500D5
:100CA400904878000620ED00F8FF370000C2B3003A
:100CB400804D78000400E2000C0032000420EF00B4
:100CC400028045009040780000C2B300000CE100AF
:100CD40002003A000420EC00F9FF370061005100E3
:100CE40080804500D0C2B300804878004F0578006A
:080CF4000080FA000000060078
:100EE4000000FA008A007800010078000220EC007B
:100EF4001004E00001003200FBFF37000A805000BC
:0C0F04000020ED000080FA000000060054
:10411800B1B4200010C0B300804878000000060049
:0041280097
:104128000E00FA008B1F78008C1F78008A1F780019
:10413800605B8000CF80DE000081EB00EE040700AA
:1041480002002000A34724001B0407004F05780045
:104158004007980051079800405B8800515B880031
:10416800F05B8800015C88000A80FB00C200DD006B
:104178002107980060B72000010040006007980000
:104188008A1F78001000BE000081EB00DA040700E7
:104198004F05780000079800110798004E0090001E
:1041A800DE009000829FBE000E0190009E019000EC
:1041B8008A1F7800360E07004F0578004F01BE00B1
:1041C800405B8800515B8800E0B62000AE0090009C
:1041D800010240004407980040B52000010040005B
:1041E800200798001001BE0034001100A4801900B7
:1041F8008A1F78000081EB00BF0407000001BE00A1
:10420800F05B8000015C8000210E0700F05B8800F5
:10421800015C8800425B8000535B80001CF0070053
:104228000200200003002400190E07000007980070
:1042380011079800805A8800915A88006E009000F3
:10424800B0007800200178004E009000B081100086
:10425800200219002E01900032804100A2004A007D
:104268008100D1000080D300605A8800715A88000C
:104278000081EB00A00407000E0190009E01900051
:10428800CD030700E05A8800F15A88000200200098
:10429800A3472400FE0D0700200798003107980067
:1042A800E05A8800F15A8800305B8000CF80DE0039
:1042B8000081EB00900407004F0578000007980084
:1042C800110798002E009000BE009000829FBE004B
:1042D8000E0190009E0190008A1F7800ECF0070004
:1042E8004F0578004F01BE00E05A8800F15A880057
:1042F8008A1F7800C04B270031D12300825A8000E2
:10430800935A8000AC0307000005BE00B6F2070010
:104318003D0407004F05780031B62000804878003A
:104328008A80FB0000B62000010040009040780021
:1043380020B6200001487800E18420004080200059
:1043480090487800F1842000508020009048780040
:104358001185200070802000904878002185200079
:10436800808020009048780041852000A0802000AF
:104378009048780051852000B0802000904878004F
:1043880071852000D0802000904878008185200029
:10439800E080200090487800A1852000008120005E
:1043A80090487800B185200010812000904878005E
:1043B800D18520003081200090487800E1852000D8
:1043C800408120009048780001862000608120000C
:1043D800904878008A1F7800A0608000CF80DE00B7
:1043E8000081EB00440407000001BE00E05A800091
:1043F800F15A8000B0F007000000E0000060EF0014
:1044080001003D000060EC004F0578000040E2002C
:104418001A003200F0C02000104078006504E10066
:104428000D003600F0C02000104078007504E1004F
:104438000900310030B620009040780060C12000AB
:10444800100CE1000300360091B8200010C0B30042
:10445800804878000800370030B620009040780087
:10446800A0C12000100CE1000300360091B8200024
:1044780010C0B3008048780019003700F0C0200051
:10448800104078006504E1000D003600F0C02000FF
:10449800104078007504E1000900310030B62000B2
:1044A8009040780080C12000100CE1000300360025
:1044B80091B8200010C0B300804878000800370089
:1044C80030B620009040780060B82000100CE10061
:1044D8000300360091B8200010C0B300804878006F
:1044E80020B62000104078006C04E100080032007B
:1044F80051B6200010C0B300804878006054E10035
:1045080002003A001AC0B300010037001420EF007F
:104518000A80FB00C100DD0020B820000100400037
:1045280090007800007D20000008E10003003D00B5
:1045380081B8200010C0B300804878006054E100C2
:104548004E013A008A1F780050608000CF80DE005C
:104558000081EB00E80307000001BE00E05A80007C
:10456800F15A800054F007000000E0000060EF00FE
:1045780001003D000060EC004F0578000040E200BB
:104588002200320041B6200080C5B3008048780080
:10459800005E80000020EC00005E880090B82000DB
:1045A800104078006104E10003003A00205E8000BA
:1045B8000020EC00205E880050B6200010407800F3
:1045C8006104E10003003A00305E80000020EC0046
:1045D800305E880080B82000104078006104E10057
:1045E80003003A00405E80000020EC00405E880036
:1045F80030B620009080FB000001EB00A0B820003E
:1046080010984000101049001B0137008A1F7800DD
:10461800A0608000CF80DE000081EB00B6030700B9
:104628000001BE00E05A8000F15A800022F0070025
:104638000000E0000060EF0001003D000060EC00B9
:104648004F0578000040E2002200320041B6200009
:1046580010C4B30080487800705C80000020EC0033
:10466800705C880090B82000104078006104E10078
:1046780003003A00905C80000020EC00905C880009
:1046880050B62000104078006104E10003003A00B1
:10469800A05C80000020EC00A05C880080B82000AE
:1046A800104078006104E10003003A00B05C80002B
:1046B8000020EC00B05C880030B620009080FB0041
:1046C8000001EB0020AE20001098400010104900B7
:1046D800E90037008A1F780000578000CF80DE008D
:1046E8000081EB00840307000001BE00E05A80004F
:1046F800F15A8000F0EF07000000E0000060EF00D2
:1047080001003D000060EC004F0578000040E20029
:104718002200320041B6200020C4B300804878004F
:10472800C05C80000020EC00C05C880090B82000CD
:10473800104078006104E10003003A00E05C80006A
:104748000020EC00E05C880050B6200010407800A3
:104758006104E10003003A00F05C80000020EC00F6
:10476800F05C880080B82000104078006104E10007
:1047780003003A00005D80000020EC00005D880026
:1047880030B620009080FB000001EB00C0AD200097
:104798001098400010104900B70037008A1F7800B1
:1047A80030578000CF80DE000081EB005203070005
:1047B8000001BE00E05A8000F15A8000BEEF0700F9
:1047C8000000E0000060EF0001003D000060EC0028
:1047D8004F0578000040E2002200320041B6200078
:1047E80030C4B30080487800105D80000020EC00E1
:1047F800105D880090B82000104078006104E10046
:1048080003003A00305D80000020EC00305D880035
:1048180050B62000104078006104E10003003A001F
:10482800405D80000020EC00405D880080B82000DA
:10483800104078006104E10003003A00505D8000F8
:104848000020EC00505D880030B620009080FB000E
:104858000001EB00E0AE2000109840001010490065
:10486800850037008A1F780060578000CF80DE00FF
:104878000081EB00200307000001BE00E05A800021
:10488800F15A80008CEF07000000E0000060EF00A4
:1048980001003D000060EC004F0578000040E20098
:1048A8002200320041B6200040C4B300804878009E
:1048B800605D80000020EC00605D880090B82000FA
:1048C800104078006104E10003003A00805D800038
:1048D8000020EC00805D880050B620001040780071
:1048E8006104E10003003A00905D80000020EC00C4
:1048F800905D880080B82000104078006104E100D5
:1049080003003A00A05D80000020EC00A05D880054
:1049180030B620009080FB000001EB0080AE200044
:104928001098400010104900530037008A1F780083
:1049380050568000CF80DE000081EB00EE020700B9
:104948000001BE00E05A8000F15A80005AEF0700CB
:104958000000E0000060EF0001003D000060EC0096
:104968004F0578000040E2002200320041B62000E6
:1049780050C4B30080487800B05D80000020EC008F
:10498800B05D880090B82000104078006104E10014
:1049980003003A00D05D80000020EC00D05D880064
:1049A80050B62000104078006104E10003003A008E
:1049B800E05D80000020EC00E05D880080B8200009
:1049C800104078006104E10003003A00F05D8000C7
:1049D8000020EC00F05D880030B620009080FB00DD
:1049E8000001EB0060AC2000109840001010490056
:1049F8002100370041B6200080C5B3008048780008
:104A0800005E80000020EC00005E880090B8200066
:104A1800104078006104E10003003A00205E800045
:104A28000020EC00205E880050B62000104078007E
:104A38006104E10003003A00305E80000020EC00D1
:104A4800305E880080B82000104078006104E100E2
:104A580003003A00405E80000020EC00405E8800C1
:104A680030B620009080FB000001EB00A0B82000C9
:104A780010984000101049004F0137006154E100C0
:104A88004D013A008A1F780050608000CF80DE0018
:104A98000081EB00980207000001BE00E05A800088
:104AA800F15A800004EF07000000E0000060EF000A
:104AB80001003D000060EC004F0578000040E20076
:104AC8002200320041B6200080C5B300804878003B
:104AD800F05F80000020EC00F05F880090B82000B4
:104AE800104078006104E10003003A001060800083
:104AF8000020EC001060880050B6200010407800BC
:104B08006104E10003003A00206080000020EC000E
:104B18002060880080B82000104078006104E1001F
:104B280003003A00306080000020EC00306088000C
:104B380030B620009080FB000001EB0020AC200084
:104B480010984000101049001B0137008A1F780098
:104B5800A0608000CF80DE000081EB0066020700C5
:104B68000001BE00E05A8000F15A8000D2EE070032
:104B78000000E0000060EF0001003D000060EC0074
:104B88004F0578000040E2002200320041B62000C4
:104B980010C4B30080487800605E80000020EC00FC
:104BA800605E880090B82000104078006104E10041
:104BB80003003A00805E80000020EC00805E8800E0
:104BC80050B62000104078006104E10003003A006C
:104BD800905E80000020EC00905E880080B8200085
:104BE800104078006104E10003003A00A05E8000F4
:104BF8000020EC00A05E880030B620009080FB000A
:104C08000001EB00C0AC20001098400010104900D3
:104C1800E90037008A1F780000578000CF80DE0047
:104C28000081EB00340207000001BE00E05A80005A
:104C3800F15A8000A0EE07000000E0000060EF00DD
:104C480001003D000060EC004F0578000040E200E4
:104C58002200320041B6200020C4B300804878000A
:104C6800B05E80000020EC00B05E880090B82000A4
:104C7800104078006104E10003003A00D05E800033
:104C88000020EC00D05E880050B62000104078006C
:104C98006104E10003003A00E05E80000020EC00BF
:104CA800E05E880080B82000104078006104E100D0
:104CB80003003A00F05E80000020EC00F05E8800FF
:104CC80030B620009080FB000001EB0080AD200092
:104CD8001098400010104900B70037008A1F78006C
:104CE80030578000CF80DE000081EB000202070011
:104CF8000001BE00E05A8000F15A80006EEE070005
:104D08000000E0000060EF0001003D000060EC00E2
:104D18004F0578000040E2002200320041B6200032
:104D280030C4B30080487800005F80000020EC00A9
:104D3800005F880090B82000104078006104E1000E
:104D480003003A00205F80000020EC00205F88000C
:104D580050B62000104078006104E10003003A00DA
:104D6800305F80000020EC00305F880080B82000B1
:104D7800104078006104E10003003A00405F8000C1
:104D88000020EC00405F880030B620009080FB00D7
:104D98000001EB0040AD20001098400010104900C1
:104DA800850037008A1F780060578000CF80DE00BA
:104DB8000081EB00D00107000001BE00E05A80002E
:104DC800F15A80003CEE07000000E0000060EF00B0
:104DD80001003D000060EC004F0578000040E20053
:104DE8002200320041B6200040C4B3008048780059
:104DF800505F80000020EC00505F880090B82000D1
:104E0800104078006104E10003003A00705F800000
:104E18000020EC00705F880050B620001040780039
:104E28006104E10003003A00805F80000020EC008C
:104E3800805F880080B82000104078006104E1009D
:104E480003003A00905F80000020EC00905F88002B
:104E580030B620009080FB000001EB0000AD200080
:104E68001098400010104900530037008A1F78003E
:104E780050568000CF80DE000081EB009E010700C5
:104E88000001BE00E05A8000F15A80000AEE0700D7
:104E98000000E0000060EF0001003D000060EC0051
:104EA8004F0578000040E2002200320041B62000A1
:104EB80050C4B30080487800A05F80000020EC0058
:104EC800A05F880090B82000104078006104E100DD
:104ED80003003A00C05F80000020EC00C05F88003B
:104EE80050B62000104078006104E10003003A0049
:104EF800D05F80000020EC00D05F880080B82000E0
:104F0800104078006104E10003003A00E05F80008F
:104F18000020EC00E05F880030B620009080FB00A5
:104F28000001EB0020AF200010984000101049004D
:104F38002100370041B6200080C5B30080487800C2
:104F4800F05F80000020EC00F05F880090B820003F
:104F5800104078006104E10003003A00106080000E
:104F68000020EC001060880050B620001040780047
:104F78006104E10003003A00206080000020EC009A
:104F88002060880080B82000104078006104E100AB
:104F980003003A00306080000020EC003060880098
:104FA80030B620009080FB000001EB0020AC200010
:104FB80010984000101049004186200040B620009B
:104FC8009048780011C3B3002086200001484500AE
:104FD8008A1F78004BB1200030B6200010457800B9
:104FE800ED0107004F0578006186200040B12000E0
:104FF800904878007186200050B1200090487800D1
:105008008186200060B120009048780090B8200088
:10501800104078006104E10004003A00A1862000F5
:1050280010C3B3008048780003003700A186200031
:1050380000C3B3008048780050B6200010407800C4
:105048006104E10004003A00B186200010C3B300F7
:105058008048780003003700B186200000C3B30001
:105068008048780080B82000104078006104E10092
:1050780004003A00C186200010C3B30080487800BD
:1050880003003700C186200000C3B30080487800C1
:10509800D18620000020EF0080487800E1862000BB
:1050A8000020EF0080487800D1AB20000020EF00FE
:1050B800804878008A1F7800EA84200087EF07007C
:1050C8004F057800D1AB20009100FB000008E100FB
:1050D80012003D00D0AB20009000FB00E0842000CF
:1050E800010040009040780000C2B300000CE100CD
:1050F80006003A00D0AB20009000FB00E0842000BE
:105108008100400000C3B3008048780011C0B3009C
:10511800D0AB200010C84000E6FF37008A1F780097
:10512800EA8420007DF10700CA022000AF000700D2
:10513800EA5A8000FB5A80002BEF0700B2000700F4
:105148008CB020000005BE00A6F007008AB0200041
:1051580072F10700DA002000A4000700AA0020006E
:10516800A20007004F057800D1862000D0C0B30008
:1051780080487800E1862000A0C0B300804878000D
:1051880081B1200010C0B300804878000A80FB007D
:10519800C100DD0020B82000810040000020EF00A1
:1051A80080087800D3EE07004F067800CF05780016
:0851B8000080FA00000006006F
:100DF0000000FA00700120008A0078000B017800E2
:100E00000000E900030035000201D1008180D30019
:100E1000FBFF3700F00F200080806000F00720000B
:100E200000805000800078006000E10010003D006C
:100E30000420EF000620EF000A00BE0020FE07009D
:100E40000000E0000060EF0001003D000060EC00E9
:100E50000040E200030032000000200001F82B00F7
:100E60001E0037000020EF000220EF001B003700BB
:100E70007808E100020036000A00BE0017003700C3
:100E80008A9FBE000A00BE00611107000081EB00CE
:100E90009B1107004F05BE000002BE00849FBE00EC
:100EA0000A01BE0001FE07000000E0000060EF0044
:100EB000010034000060EC004F02BE000040E20080
:100EC000050032000200200003F823000400BE00E9
:100ED000F1FD0700010037000400BE000080FA00A9
:040EE0000000060008
:105410000000FA00020007007C2A040000000000DF
:105420000081BE001F0007000470A70003F0A10068
:105430006509B100160032000D0035006828E10052
:1054400006003500F0FF2F00F1FF27000600E20004
:1054500013003B0001002800000005000000400090
:10546000818048008502E900FCFF3A00080037000F
:10547000F88F420002003C008000EB0000000500B5
:105480008100D1000080D3008502E800FCFF3A00D3
:105490000600E20002003B0060001000E0801800FF
:1054A00000000600C70ADE00F107B200F50FB200E7
:1054B00008003200E1CF42000200320002E0A80002
:1054C00024000500810F700001003200040805006F
:1054D00044000500810F700002003A00140005002E
:1054E0008502E9000000400081C04800FCFF3B004D
:1054F00002E0A800240005000080FA000000060079
:00550000AB
:105500000000FA0002000700322B04000000000037
:105510000400E20006003A000005EB000200E20091
:105520000F003E000000E200270032000C003700B0
:10553000A10088000200E2000400350008003C00E1
:105540000000E2002000320005003700600010007B
:10555000E080180002003B0001F02C001A00370028
:105560000084BE006011B8006B0920000982CF00E2
:10557000020039000882CF000441B00069425200A5
:105580000E00320008003B0082817100610164005E
:105590008904D1000884D3008B05E8000442E800A8
:1055A000F9FF3A00050037000804440089844C00E4
:1055B0008B05E9000442E900FBFF3A000300070005
:1055C0000AF0A70003E0A800000006008100200008
:1055D000618055000B003D000B00200061FE2F0094
:1055E0000100E1001D00340082817100610164004E
:1055F0008904D1000884D3000000E800FAFF3A00D3
:10560000710020006100640003007000020060006F
:105610000900320061044400E0844C000988A500C0
:10562000050032008B05E8006808E10002003A003E
:105630008904D1000884D300F20F20000258E10051
:1056400005003D00C75DDD00F907B20089807500E7
:1056500008008800000006000BF827001B008800E7
:0C566000000005000080FA0000000600B9
:1006AC000000FA00F4FF2F00AEFF07000080FA00F4
:0406BC000000060034
:100570000000FA000200070026030400000000004B
:10058000841F7800140007004F007800110033002A
:10059000F0FF2F00838F6C0006003B000405650010
:1005A0000A00A7000800370009F0A600100020008C
:1005B00008003700820F5400838F5C00030039006D
:1005C0001000200001003E000000200009F0A700FC
:1005D0000000EA00000006000084BE0006000700DC
:1005E0000083BE000485BE000280BE00020007003A
:1005F000844F750000000600C70ADE00F107B20054
:10060000F50FB20008003200E1CF420002003200D4
:1006100002E0A80024000500810F700001003200F4
:100620000408050044000500810F700002003A0034
:10063000140005008502E9000000400081C0480068
:10064000FCFF3B0002E0A800240005000080FA0047
:0406500000000600A0
:100698000000FA0007E0AA00FDFE07000080FA004B
:0406A8000000060048
:100298000000FA0002000700B40204000000000099
:1002A800889FBE008A9FBE008C1F780059000700F7
:1002B800600033006450E1004F0032006420E10028
:1002C8005200320003826C0007003B000905D00091
:1002D8000306D000820F54000C065D0002003900AE
:1002E8000200320039008800C3008800858255006A
:1002F80004003D000003FD008103FD008502EA00C3
:100308008B854200840F720002003B0060001000E1
:10031800E08018006011B8000005EB007A28E100C1
:100328000A00390006008800C75DDD00F707B20043
:10033800878075002D003700828171002A008800AF
:10034800610560008180D1000080D3008502E9004A
:10035800F9FF3B00060440008784480002003B0088
:1003680060041400E0841C000988A3000700320020
:100378008A81710082817100610164008904D10061
:100388000884D3008B05E800170037000978A3001C
:1003980013003A001600E200130034008B05E90050
:1003A8000804440089844C000A4474000978A300B6
:1003B8000D003A001600E200070034008B05E90042
:1003C8000804440089844C0001003A000B00200016
:1003D8000978A300F7FF32000001EB0002003700A4
:1003E800828171002A008800220007000CF0A70013
:1003F80003E0A800180037006420E10002003A007A
:10040800838F6C00180033000881BE000280BE0094
:10041800110037000084BE003C0007000083BE00C6
:100428000485BE000280BE0038000700844F7500B6
:10043800000006000280BE006450E100050036009E
:100448006420E100020036000968A30001003A00B8
:100458000880BE0002C0A8004F0678004F05BE0005
:100468004F04BE0000000600F0FF2F00F1FF270038
:10047800F9FF370081002000618055000B003D0026
:100488000B00200061FE2F000100E1001D00340078
:1004980082817100610164008904D1000884D3005D
:1004A8000000E800FAFF3A007100200061006400D3
:1004B800030070000200600009003200610444007B
:1004C800E0844C000988A500050032008B05E8008F
:1004D8006808E10002003A008904D1000884D300CA
:1004E800F20F20000258E10005003D00C75DDD0065
:1004F800F907B2008980750008008800000006002E
:100508000BF827001B00880000000500C70ADE0062
:10051800F107B200F50FB20008003200E1CF420047
:100528000200320002E0A80024000500810F7000DC
:10053800010032000408050044000500810F700026
:1005480002003A00140005008502E900000040009E
:1005580081C04800FCFF3B0002E0A8002400050021
:080568000080FA00000006000B
:1006C0000000FA0014002000A9FF07000080FA00D3
:0406D0000000060020
:1013EC000000FA008A1F78008B1F78000020EF00A5
:1013FC008A0078000B0178006050E10060D8E100B1
:10140C0004003D0010002000E000150060811D006C
:10141C0000003700801F78008C1F780001057800D1
:10142C0082057800A8FC07004F0678004F00780072
:10143C00B3002000000178006018E10006003600BF
:10144C0083004600618051000000460090487800FF
:10145C000620ED00F8FF370000C2B300004E780004
:10146C000400E2000C0032000420EF0002004600F1
:10147C009040780000C2B300000CE10002003A007A
:10148C000420EC00F9FF3700610051008000460099
:10149C00D0C2B30080487800CF0578004F057800A3
:0814AC000080FA0000000600B8
:1006D4000200FA000420EF006A10E1000500310076
:1006E4008200460000C2B300804878000420EC0079
:1006F400F9FF3700820046000020EF0080487800B0
:10070400610251000400460000079800841F78002D
:100714008C1F78008A9FBE00A200200003002000E6
:100724000A00BE000002EB000D0107004F05BE00E9
:100734000203200003002000020140000E0090008C
:10074400024878008A9FBE00A20020000300200017
:100754000A00BE000002EB00150007004F05BE00B2
:100764004F0678004F0278000005BE006000E100EB
:100774006088E10001003A00020037000820ED0023
:0C078400E0FF37000080FA0000000600D3
:1051C0000000FA0002000700F629040000000000B9
:1051D000889FBE008A9FBE008C1F780030000700A9
:1051E0003700330003866C006450E1002400320075
