:020000040800F2
:100000000050002009770008517700085177000858
:100010005177000851770008517700080000000070
:100020000000000000000000000000005177000800
:100030005177000800000000517700085177000850
:100040005177000851770008517700085177000870
:100050005177000851770008517700085177000860
:100060005177000851770008517700085177000850
:100070005177000851770008517700085177000840
:100080005177000851770008517700085177000830
:100090005177000851770008517700085177000820
:1000A0005177000851770008517700085177000810
:1000B00099300008517700088D300008517700080A
:1000C00051770008517700085177000851770008F0
:1000D000517700085177000851770008A5300008D3
:1000E00051770008517700085177000800000000A0
:1000F0000000000000000000000000000000000000
:0C01000000000000000000005FF808F1A3
:100110000348044B834202D0034B03B11847704796
:100120007C0000207C000020000000000548064BF9
:100130001B1AD90F01EBA301491002D0034B03B1E5
:10014000184770477C0000207C0000200000000061
:1001500010B5064C237843B9FFF7DAFF044B13B10F
:100160000448AFF300800123237010BD7C00002001
:10017000000000005477000808B5044B1BB1044987
:100180000448AFF30080BDE80840CFE7000000005E
:100190008000002054770008C1F30A5C2DE9F0418B
:1001A000ACF2FF35132D02460B460C46064632DCF8
:1001B000002D20DBDFF8E0800F4648FA05F801EA61
:1001C000080C5CEA000C2BD031A3D3E9002300F02B
:1001D0006DF80022002300F0AFFC40B1002C03DAE0
:1001E0004FF480132B411F44002627EA08042146C0
:1001F0003046BDE8F08126A3D3E9002300F056F88D
:100200000022002300F098FC0028F0D0002C27DB0F
:1002100000263446EBE7332D06DDB5F5806F1CD0A4
:1002200010461946BDE8F0814FF0FF37ACF2134C91
:1002300027FA0CF70742F3D015A3D3E9002300F007
:1002400035F80022002300F077FC0028CFD0002CE6
:1002500033460CDB23EA0706C9E700F027F8E1E79D
:1002600024F0004426430DD14FF00044BFE7142D85
:1002700006D00122C5F13405AA401344B342E9D2A5
:100280000134E7E70026054CB1E700BFAFF300807B
:100290009C7500883CE4377EFFFF0F000000F0BF34
:1002A00081F0004102E000BF83F0004330B54FEA27
:1002B00041044FEA430594EA050F08BF90EA020F94
:1002C0001FBF54EA000C55EA020C7FEA645C7FEA27
:1002D000655C00F0E2804FEA5454D4EB5555B8BF4A
:1002E0006D420CDD2C4480EA020281EA030382EABB
:1002F000000083EA010180EA020281EA0303362D4D
:1003000088BF30BD11F0004F4FEA01314FF4801C1F
:100310004CEA113102D0404261EB410113F0004F31
:100320004FEA03334CEA133302D0524263EB4303E8
:1003300094EA050F00F0A780A4F10104D5F1200E86
:100340000DDB02FA0EFC22FA05F2801841F10001E1
:1003500003FA0EF2801843FA05F359410EE0A5F1B5
:1003600020050EF1200E012A03FA0EFC28BF4CF0E6
:10037000020C43FA05F3C01851EBE37101F000459C
:1003800007D54FF0000EDCF1000C7EEB00006EEBA9
:100390000101B1F5801F1BD3B1F5001F0CD3490833
:1003A0005FEA30004FEA3C0C04F101044FEA44528A
:1003B00012F5800F80F09A80BCF1004F08BF5FEA11
:1003C000500C50F1000041EB045141EA050130BDF1
:1003D0005FEA4C0C404141EB0101013C28BFB1F503
:1003E000801FE9D291F0000F04BF01460020B1FA4E
:1003F00081F308BF2033A3F10B03B3F120020CDA21
:100400000C3208DD02F1140CC2F10C0201FA0CF0FE
:1004100021FA02F10CE002F11402D8BFC2F1200C63
:1004200001FA02F120FA0CFCDCBF41EA0C01904019
:10043000E41AA2BF01EB0451294330BD6FEA040462
:100440001F3C1CDA0C340EDC04F11404C4F120024D
:1004500020FA04F001FA02F340EA030021FA04F35F
:1004600045EA030130BDC4F10C04C4F1200220FAB6
:1004700002F001FA04F340EA0300294630BD21FAF4
:1004800004F0294630BD94F0000F83F4801306BFBA
:1004900081F480110134013D4EE77FEA645C18BFAE
:1004A0007FEA655C29D094EA050F08BF90EA020F45
:1004B00005D054EA000C04BF1946104630BD91EA3D
:1004C000030F1EBF0021002030BD5FEA545C05D140
:1004D0004000494128BF41F0004130BD14F580047F
:1004E0003CBF01F5801130BD01F0004545F0FE41F3
:1004F00041F470014FF0000030BD7FEA645C1ABF28
:10050000194610467FEA655C1CBF0B46024650EA5E
:10051000013406BF52EA033591EA030F41F400218A
:1005200030BD00BF90F0000F04BF0021704730B510
:100530004FF4806404F132044FF000054FF00001E5
:1005400050E700BF90F0000F04BF0021704730B5A6
:100550004FF4806404F1320410F0004548BF40427B
:100560004FF000013EE700BF42004FEAE2014FEAD0
:1005700031014FEA02701FBF12F07F4393F07F4FAB
:1005800081F06051704732F07F4208BF704793F0AE
:100590007F4F04BF41F40021704730B54FF46074C1
:1005A00001F0004521F000411CE700BF50EA0102C4
:1005B00008BF704730B54FF000050AE050EA01026D
:1005C00008BF704730B511F0004502D5404261EBDD
:1005D00041014FF4806404F132045FEA915C3FF41E
:1005E000D8AE4FF003025FEADC0C18BF03325FEABB
:1005F000DC0C18BF033202EBDC02C2F1200300FA6C
:1006000003FC20FA02F001FA03FE40EA0E0021FA90
:1006100002F11444BDE600BF70B54FF0FF0C4CF47E
:10062000E06C1CEA11541DBF1CEA135594EA0C0F30
:1006300095EA0C0F00F0DEF82C4481EA030621EA6B
:100640004C5123EA4C5350EA013518BF52EA0335A6
:1006500041F4801143F4801338D0A0FB02CE4FF058
:100660000005E1FB02E506F00042E0FB03E54FF088
:100670000006E1FB03569CF0000F18BF4EF0010E80
:10068000A4F1FF04B6F5007F64F5407404D25FEA7C
:100690004E0E6D4146EB060642EAC62141EA55512F
:1006A0004FEAC52040EA5E504FEACE2EB4F1FD0C71
:1006B00088BFBCF5E06F1ED8BEF1004F08BF5FEAEF
:1006C000500E50F1000041EB045170BD06F00046A1
:1006D00046EA010140EA020081EA0301B4EB5C044E
:1006E000C2BFD4EB0C0541EA045170BD41F4801146
:1006F0004FF0000E013C00F3AB8014F1360FDEBF6B
:10070000002001F0004170BDC4F10004203C35DA46
:100710000C341BDC04F11404C4F1200500FA05F3C9
:1007200020FA04F001FA05F240EA020001F000426A
:1007300021F0004110EBD37021FA04F642EB0601E0
:100740005EEA430E08BF20EAD37070BDC4F10C040A
:10075000C4F1200500FA04F320FA05F001FA04F2CE
:1007600040EA020001F0004110EBD37041F10001BA
:100770005EEA430E08BF20EAD37070BDC4F12005C5
:1007800000FA05F24EEA020E20FA04F301FA05F22D
:1007900043EA020321FA04F001F0004121FA04F2D5
:1007A00020EA020000EBD3705EEA430E08BF20EAA5
:1007B000D37070BD94F0000F0FD101F000464000DF
:1007C00041EB010111F4801F08BF013CF7D041EA61
:1007D000060195F0000F18BF704703F00046520065
:1007E00043EB030313F4801F08BF013DF7D043EA36
:1007F0000603704794EA0C0F0CEA135518BF95EAEC
:100800000C0F0CD050EA410618BF52EA4306D1D172
:1008100081EA030101F000414FF0000070BD50EA91
:10082000410606BF1046194652EA430619D094EA1B
:100830000C0F02D150EA013613D195EA0C0F05D105
:1008400052EA03361CBF104619460AD181EA030159
:1008500001F0004141F0FE4141F470014FF0000011
:1008600070BD41F0FE4141F4780170BD70B54FF0AC
:10087000FF0C4CF4E06C1CEA11541DBF1CEA13552C
:1008800094EA0C0F95EA0C0F00F0A7F8A4EB05040E
:1008900081EA030E52EA03354FEA013100F0888005
:1008A0004FEA03334FF0805545EA131343EA1263CE
:1008B0004FEA022245EA111545EA10654FEA002683
:1008C0000EF000419D4208BF964244F1FD0404F53C
:1008D000407402D25B084FEA3202B61A65EB030598
:1008E0005B084FEA32024FF480104FF4002CB6EB55
:1008F000020E75EB030E22BFB61A754640EA0C00D5
:100900005B084FEA3202B6EB020E75EB030E22BF14
:10091000B61A754640EA5C005B084FEA3202B6EB55
:10092000020E75EB030E22BFB61A754640EA9C0014
:100930005B084FEA3202B6EB020E75EB030E22BFE4
:10094000B61A754640EADC0055EA060E18D04FEAA2
:10095000051545EA16754FEA06164FEAC30343EA42
:1009600052734FEAC2025FEA1C1CC0D111F4801F0F
:100970000BD141EA00014FF000004FF0004CB6E708
:1009800011F4801F04BF01430020B4F1FD0C88BFA7
:10099000BCF5E06F3FF6AFAEB5EB030C04BFB6EBB2
:1009A000020C5FEA500C50F1000041EB045170BDA5
:1009B0000EF0004E4EEA113114EB5C04C2BFD4EBD2
:1009C0000C0541EA045170BD41F480114FF0000E56
:1009D000013C90E645EA060E8DE60CEA135594EAD2
:1009E0000C0F08BF95EA0C0F3FF43BAF94EA0C0FD5
:1009F0000AD150EA01347FF434AF95EA0C0F7FF44A
:100A000025AF104619462CE795EA0C0F06D152EA9D
:100A100003353FF4FDAE1046194622E750EA410681
:100A200018BF52EA43067FF4C5AE50EA41047FF492
:100A30000DAF52EA43057FF4EBAE12E74FF0FF3CF7
:100A400006E000BF4FF0010C02E000BF4FF0010CC8
:100A50004DF804CD4FEA410C7FEA6C5C4FEA430C41
:100A600018BF7FEA6C5C1BD001B050EA410C0CBF90
:100A700052EA430C91EA030F02BF90EA020F0020F2
:100A8000704710F1000F91EA030F58BF994208BF59
:100A900090422CBFD8176FEAE37040F00100704716
:100AA0004FEA410C7FEA6C5C02D150EA013C07D16D
:100AB0004FEA430C7FEA6C5CD6D152EA033CD3D0B8
:100AC0005DF8040B704700BF8446104662468C46B2
:100AD0001946634600E000BF01B5FFF7B7FF0028E5
:100AE00048BF10F1000F01BD4DF808EDFFF7F4FF0E
:100AF0000CBF012000205DF808FB00BF4DF808ED99
:100B0000FFF7EAFF34BF012000205DF808FB00BFBB
:100B10004DF808EDFFF7E0FF94BF012000205DF8DD
:100B200008FB00BF4DF808EDFFF7CEFF94BF012092
:100B300000205DF808FB00BF4DF808EDFFF7C4FF8B
:100B400034BF012000205DF808FB00BF4A0011D22D
:100B500012F5001211D20DD56FF47873B3EB625217
:100B60000ED44FEAC12343F0004343EA505323FA23
:100B700002F070474FF00000704750EA013002D198
:100B80004FF0FF3070474FF00000704780F000409A
:100B900002E000BF81F0004142001FBF5FEA410355
:100BA00092EA030F7FEA226C7FEA236C6AD04FEA55
:100BB0001262D2EB1363C1BFD2184140484041409A
:100BC000B8BF5B42192B88BF704710F0004F40F44C
:100BD000000020F07F4018BF404211F0004F41F468
:100BE000000121F07F4118BF494292EA030F3FD034
:100BF000A2F1010241FA03FC10EB0C00C3F1200347
:100C000001FA03F100F0004302D5494260EB4000D5
:100C1000B0F5000F13D3B0F1807F06D340084FEA40
:100C2000310102F10102FE2A51D2B1F1004F40EB35
:100C3000C25008BF20F0010040EA0300704749009D
:100C400040EB0000013A28BFB0F5000FEDD2B0FA3A
:100C500080FCACF1080CB2EB0C0200FA0CF0AABF5D
:100C600000EBC25052421843BCBFD04018437047FB
:100C700092F0000F81F4000106BF80F40000013201
:100C8000013BB5E74FEA41037FEA226C18BF7FEAD8
:100C9000236C21D092EA030F04D092F0000F08BF1A
:100CA0000846704790EA010F1CBF0020704712F001
:100CB0007F4F04D1400028BF40F00040704712F140
:100CC00000723CBF00F50000704700F0004343F0A5
:100CD000FE4040F4000070477FEA226216BF0846DB
:100CE0007FEA23630146420206BF5FEA412390EA9E
:100CF000010F40F4800070474FF0000304E000BF94
:100D000010F0004348BF40425FEA000C08BF704744
:100D100043F0964301464FF000001CE050EA010208
:100D200008BF70474FF000030AE000BF50EA01021D
:100D300008BF704711F0004302D5404261EB41010A
:100D40005FEA010C02BF84460146002043F0B6432F
:100D500008BFA3F18053A3F50003BCFA8CF2083A54
:100D6000A3EBC25310DB01FA02FC634400FA02FC5D
:100D7000C2F12002BCF1004F20FA02F243EB020064
:100D800008BF20F00100704702F1200201FA02FCC6
:100D9000C2F1200250EA4C0021FA02F243EB0200B9
:100DA00008BF20EADC7070474FF0FF0C1CEAD052FD
:100DB0001EBF1CEAD15392EA0C0F93EA0C0F6FD0BE
:100DC0001A4480EA010C400218BF5FEA41211ED09C
:100DD0004FF0006343EA501043EA5111A0FB013188
:100DE0000CF00040B1F5000F3EBF490041EAD3715D
:100DF0005B0040EA010062F17F02FD2A1DD8B3F1D9
:100E0000004F40EBC25008BF20F00100704790F047
:100E1000000F0CF0004C08BF49024CEA502040EA99
:100E200051207F3AC2BFD2F1FF0340EAC25070475F
:100E300040F400004FF00003013A5DDC12F1190F9D
:100E4000DCBF00F000407047C2F10002410021FA0F
:100E500002F1C2F1200200FA02FC5FEA310040F127
:100E6000000053EA4C0308BF20EADC70704792F0A0
:100E7000000F00F0004C02BF400010F4000F013AD8
:100E8000F9D040EA0C0093F0000F01F0004C02BFD3
:100E9000490011F4000F013BF9D041EA0C018FE742
:100EA0000CEAD15392EA0C0F18BF93EA0C0F0AD048
:100EB00030F0004C18BF31F0004CD8D180EA01006E
:100EC00000F00040704790F0000F17BF90F0004F07
:100ED000084691F0000F91F0004F14D092EA0C0FE9
:100EE00001D142020FD193EA0C0F03D14B0218BF7C
:100EF000084608D180EA010000F0004040F0FE40C2
:100F000040F40000704740F0FE4040F4400070475D
:100F10004FF0FF0C1CEAD0521EBF1CEAD15392EADC
:100F20000C0F93EA0C0F69D0A2EB030280EA010CCC
:100F300049024FEA402037D04FF0805343EA111165
:100F400043EA10130CF000408B4238BF5B0042F1C3
:100F50007D024FF4000C8B4224BF5B1A40EA0C0068
:100F6000B3EB510F24BFA3EB510340EA5C00B3EB9A
:100F7000910F24BFA3EB910340EA9C00B3EBD10F88
:100F800024BFA3EBD10340EADC001B0118BF5FEADA
:100F90001C1CE0D1FD2A3FF650AF8B4240EBC25003
:100FA00008BF20F0010070470CF0004C4CEA5020C4
:100FB0007F32C2BFD2F1FF0340EAC250704740F413
:100FC00000004FF00003013A37E792F0000F00F005
:100FD000004C02BF400010F4000F013AF9D040EA83
:100FE0000C0093F0000F01F0004C02BF490011F417
:100FF000000F013BF9D041EA0C0195E70CEAD1530F
:1010000092EA0C0F08D142027FF47DAF93EA0C0FF5
:101010007FF470AF084676E793EA0C0F04D14B02D9
:101020003FF44CAF08466EE730F0004C18BF31F08B
:10103000004CCAD130F000427FF45CAF31F0004385
:101040007FF43CAF5FE700BF4FEA4002B2F1FE4FD2
:101050000FD34FF09E03B3EB12620DD94FEA00237A
:1010600043F0004310F0004F23FA02F018BF404253
:1010700070474FF00000704712F1610F01D142023A
:1010800005D110F0004008BF6FF0004070474FF0EE
:101090000000704701292DE9F0415AD901274FF08E
:1010A000000E4FF0FF34BC463B4607E09E464FF033
:1010B000010C1F1B0EEB0C0399420ED9051915F8F4
:1010C0000C50C65CAE42F1D333D00127BC46744607
:1010D000BE440EEB0C039942F0D84FF001084FF0DC
:1010E000000E4FF0FF35C4464346176008E09E46A9
:1010F0004FF0010CA3EB05080EEB0C0399420FD93E
:10110000461916F80C60C75CB742F0D819D04FF0FA
:101110000108C4467546C6440EEB0C039942EFD84D
:101120000135601C854202D32846C2F80080BDE824
:10113000F081BC450ABFE6440CF1010C4FF0010CF4
:10114000B8E7C4450ABFE6440CF1010C4FF0010CAE
:10115000D2E74FF001080025E6E700BF2DE9F04F88
:10116000174687B005AA80468946384619461C4668
:10117000FFF790FF8246059B38465246F9180293C6
:1011800000F07CFD00285FD10646054644F400636C
:101190000193029BA9EB0401E31A0393CAF1010B2B
:1011A000A9421BD35645334638BF53469C4223D9E8
:1011B000581EEA183844424402E001339C421BD0D6
:1011C00012F801CB10F801EFE645F6D09C4213D996
:1011D0005D441D44A9424FF00006E3D2019908EB9B
:1011E000090000F079FD8144A9EB0401A942D9D29C
:1011F000002007B0BDE8F08F56450AF1FF3370D2EA
:1012000005EB0A02424407EB0A00009502E09E4209
:1012100011D0734610F801CD12F8015D03F1FF3EC5
:10122000AC45F4D0009D013301369E4207D8029BA5
:10123000039E1D44B4E701369E42009DF7D908EB9A
:10124000050007B0BDE8F08FA4EB0A03534538BF93
:1012500053460025013344F40062A9EB04010092D7
:101260000AF1FF36CAF1010B01930593A94216D387
:10127000544520D905EB0A0253464244B81902E00E
:1012800001339C4217D012F801CB10F801EFE6456C
:10129000F6D09C420FD95D441D44A942E8D2009982
:1012A00008EB090000F018FD8144A9EB0401A942F4
:1012B0009ED35445DED8BAF1000FC0D005EB0A002A
:1012C000404407EB0A0202E0013BBB42B7D01346A1
:1012D00010F801CD12F801EDE645F5D0019B1D4453
:1012E000C4E75346A0E700BF2DE9F04F9346ADF2A7
:1012F0001C4D05AA80468A46584619461C46FFF7EB
:10130000C9FE814613460DF2144243F8044F93423E
:10131000FBD16CB1601E58440BF1FF3206AD12F8E0
:10132000011FA31A013B5B44824245F82130F6D1EC
:10133000059B4A4658460BEB0301019300F09EFCC7
:10134000002879D10746054644F40063AAEB040E51
:101350000293661EAE4512D308EB050C1CF806304E
:1013600006AA52F82330CBB127B1019A9A4284BF22
:101370001346E31A1D44AE454FF00007ECD208EBCC
:101380000A00029900F0A8FC8244AAEB040EAE45C4
:10139000E2D200200DF21C4DBDE8F08F4F453B46D8
:1013A00038BF4B469E4218D9591EEA185944424448
:1013B000009502E001339E420ED012F8010B11F8A5
:1013C000015F8542F6D09E42009D06D9C9F1010217
:1013D0002A440027D518BDE7009D4F4509F1FF338A
:1013E00080F0828005EB090242440BEB0901009575
:1013F000CDF80C9002E09F4213D04B4611F8015DEE
:1014000012F8010D03F1FF398542F4D0009DDDF89B
:101410000C90013301379F4209D8019B1D44E71A04
:1014200098E701379F42009DDDF80C90F5D96046A2
:101430000DF21C4DBDE8F08FA4EB09034B4538BFFE
:101440004B460025013344F40062AAEB040E0092DF
:10145000661E01930593AE4509D308EB0500835D35
:1014600006AA52F823306BB11D44AE45F5D208EB05
:101470000A00009900F030FC8244AAEB040EAE454D
:10148000EBD286E7B14517D209F1FF3105EB09022E
:101490004B465944424402E00133B3420CD012F8A7
:1014A000017B11F801CFBC45F6D09E4204D9C9F1A9
:1014B00001022A44D518CEE7B9F1000F3FF46AAF14
:1014C00005EB090141440BEB090203E0013B5B45DD
:1014D0003FF460AF134611F8017D12F801CDBC4511
:1014E000F4D0019B1D44C0E74B4693E72DE9F04142
:1014F0000D460978044690B0002954D06A78002A35
:1015000000F08280AB78002B51D0E8782E6800285C
:1015100000F081802B79002B56D0284600F004F98A
:101520000646204646F4007100F0D6FB86425AD8A3
:10153000FE2E00F28880801B271840226846711C0E
:1015400000F048F97EB16A1E5FFA86FC901912F825
:10155000013F03F03F034033A91A6B4461449042BA
:1015600003F8401CF3D1013CA35D03F03F0340337B
:101570006B4413F8403C1C44A74203D238E0444477
:10158000A74235D314F806C032460CF03F0C0CF1DC
:1015900040030DEB030C294620461CF8408C00F05C
:1015A0006DFB0028EBD1204610B0BDE8F08100783B
:1015B00042EA0142B8B140EA03439A42214614F894
:1015C000010FF7D14C1EEEE7227862B131BA01E08B
:1015D0008B421ED0204642EA032314F8012F002A32
:1015E000F6D18B4215D00024204610B0BDE8F08122
:1015F000BB5DB819002BF6D04FF4006100F06CFB16
:101600000744A742AFD2EEE710B0BDE8F04100F0CA
:1016100023B8C41EC7E7120442EA0162217842EAF5
:1016200003230029DFD0024601E00029DBD041EA94
:101630000200B3EB002F25464FEA002214F8011FE9
:10164000F3D1AC1EAFE7014633462A46204610B020
:10165000BDE8F04148E600BF11F0FF01034600F08D
:10166000030239D08ABB026810B501EB012E0EEBE4
:101670000E4E8EEA0204A2F1013323EA0203A4F122
:10168000013222EA0402134313F0803F0FD150F8D5
:10169000044F84EA0E0CA4F10133ACF1013223EAC9
:1016A000040322EA0C02134313F0803FEFD00378C7
:1016B00023B936E010F8013F002B32D09942F9D11E
:1016C00010BD8A4228D09A0729D01A7818460133CB
:1016D000002AF6D110467047CAB90268A2F1013358
:1016E00023EA020313F0803F08D150F8042FA2F13F
:1016F000013323EA020313F0803FF6D003785BB195
:1017000010F8013F002BFBD17047990705D0184610
:1017100013F8012B002AF8D170471846DDE7184668
:10172000A1E7184610BD00BF20F0030110F0030030
:10173000C0F1000051F8043B00F1040C4FEACC0C5E
:101740006FF000021CBF22FA0CF213434FF0010CA1
:101750004CEA0C2C4CEA0C4CA3EB0C0222EA0302E0
:1017600012EACC1204BF51F8043B0430F4D0C2F1A9
:10177000000102EA0102B2FA82F2C2F11F0200EB9A
:10178000D200704770B50F4B0F4DAB42A3EB05066F
:1017900007D00024B61055F8043B01349847A64200
:1017A000F9D805F0D7FF094D094B5E1BAB424FEA54
:1017B000A60606D0002455F8043B01349847A642FB
:1017C000F9D870BDF47A0008F47A0008F47A0008B9
:1017D000F87A000870B5860747D0541E002A3ED01C
:1017E0000346CAB201E0013C39D303F8012B9D073F
:1017F000F9D1032C2CD9CDB205EB05250F2C1A46B7
:1018000005EB054534D9A4F1100C2CF00F0603F1BB
:10181000100EB6444FEA1C1CC2E90055C2E902553D
:1018200010327245F8D10CF1010214F00C0F03EBE9
:10183000021204F00F0C13D0ACF1040323F00303E5
:101840000433134442F8045B9342FBD10CF00304CD
:101850002CB1C9B21C4403F8011BA342FBD170BDDB
:1018600064461346002CF4D1F9E703461446C0E75A
:10187000A446E1E70A22002100F0B0B80A230022C2
:1018800000F09CB8242B2DE9F84F42D8012B40D012
:101890001F468E468046484875461EF801BB10F824
:1018A0000B4014F00804F7D1BBF12D0F6FD06FF08F
:1018B0000049BBF12B0F04BF9EF800B005F1020EEA
:1018C0007BBBBBF1300F4CD00A273B460025B9FB50
:1018D000F7F6284607FB169A05E03BD0012507FBE3
:1018E00000C01EF801BBABF1300CBCF1090F06D9EA
:1018F000ABF1410CBCF1190F1AD8ABF1370C6345B1
:101900001FDDB5F1FF3FECD08642E6D24FF0FF3548
:10191000E7E700F0F3FB1622034600201A60BDE85B
:10192000F88F102BD2D1BBF1300F23D01F46CDE75B
:10193000ABF1610CBCF1190F03D8ABF1570C634547
:10194000DFDC6B1C2BD054B9002AE8D085BB1160BA
:10195000BDE8F88FE245C1DA4FF0FF35C1E74042FC
:10196000F2E79EF8003003F0DF03582B08D0082779
:101970003B46ABE79EF8000000F0DF005828D5D1C9
:1019800010279EF801B03B460EF1020E9EE79EF82E
:1019900000B04FF00049012405F1020E90E7222328
:1019A000C8F8003032B10EF1FF3148461160CFE780
:1019B0008146F8E74846B2E76D77000862E700BF66
:1019C0008C4600B586461346034A714610685DF89A
:1019D00004EB624656E700BF000000208C4600B5CD
:1019E00086461346034A714610685DF804EB62466A
:1019F00048E700BF00000020844641EA000313F0DE
:101A0000030349D1403A23D30B6803604B6843601A
:101A10008B688360CB68C3600B6903614B6943616A
:101A20008B698361CB69C3610B6A03624B6A436252
:101A30008B6A8362CB6AC3620B6B03634B6B43633A
:101A40008B6B8363CB6BC36340304031403ADBD256
:101A500030320BD30B6803604B6843608B68836044
:101A6000CB68C36010301031103AF3D20C3205D37A
:101A700051F8043B40F8043B043AF9D2043208D050
:101A8000D2071CBF11F8013B00F8013B01D30B88C2
:101A900003806046704700BF082A13D38B07B1D07C
:101AA00010F00303AED0C3F10403D21ADB071CBF4E
:101AB00011F8013B00F8013BA4D331F8023B20F8B8
:101AC000023B9FE7043AD9D3013A11F8013B00F8F1
:101AD000013BF9D20B7803704B7843708B7883709D
:101AE00060467047002A3ED0844630B5044608431D
:101AF00080070B462ED1032A07D82BE0043A25D0C5
:101B00001EF0803F22D1032A22D919462068A4461C
:101B1000A0F1013323EA000E0B4653F8045B0434B2
:101B2000A842EBD09CF800000C7884421DD1E64618
:101B300068B11EF8010F11F8014FA2EB0E03A0428D
:101B400003F1FF3311D11CEB0303F1D1002030BDB1
:101B5000A44619469CF800000C78A04205D1012A41
:101B6000F4D0E646E4E710467047001B30BD00BFE6
:101B700008B410B5002A04469DB034DB4FF4027C53
:101B80004FF00003ADF814C01B934FF6FF7C029199
:101B9000069120AB15D0013A0492079202A91F9A30
:101BA0000193ADF816C000F091F9421C01DA8B23C5
:101BB00023600022029B1A701DB0BDE8104001B0E6
:101BC00070470492079202A91F9A0193ADF816C0BC
:101BD00000F07CF9431C01DA8B2323601DB0BDE8C3
:101BE000104001B070478B234FF0FF302360F5E7C2
:101BF0000CB410B5204B00291C689CB036DB4FF0AC
:101C000000034FF402721B934FF6FF7C0290069084
:101C1000ADF814201FAB16D001391E9A049107911C
:101C2000204602A90193ADF816C000F04FF9421CFE
:101C300001DA8B2323600022029B1A701CB0BDE8DE
:101C4000104002B070470491079120461E9A02A9E5
:101C50000193ADF816C000F039F9431C01DA8B236B
:101C600023601CB0BDE8104002B070478B234FF0DA
:101C7000FF302360F5E700BF00000020032A30B4E6
:101C800015D941EA0004A40784460B4604D0541E2B
:101C90000FE0043A032A08D91946604653F8044B6A
:101CA0005CF8045BA542F4D0F1E760461946541E87
:101CB0007AB1431E0139021901E09A4209D013F8A2
:101CC000010F11F801CF6045F7D0A0EB0C0030BC3C
:101CD0007047002030BC704771B1034600EB010C27
:101CE00001E0634506D01A46117801330029F8D186
:101CF000101A7047181A7047084670472DE9F047C8
:101D00001D468F680C46AF4216460B6836D8B1F9AF
:101D10000CC01CF4906F0ED13D46184631462A4641
:101D200000F0F6FA0020A368DF1B2368A7602B44AD
:101D30002360BDE8F0874A69096902EB42025F1A35
:101D400002EBD2726B1C52103B44934292BF9146FD
:101D500099461A461CF4806F804611D0114600F057
:101D6000F9F9824600B33A462169FFF745FEA38997
:101D700023F4906343F08003A38105E02F46CCE772
:101D800000F044FB824658B10AEB0703A9EB0707B2
:101D9000A760C4F810A02F46C4F814902360BCE7D5
:101DA0004046216900F056FA0C22A3894FF0FF301B
:101DB00043F04003C8F80020A381BAE72DE9F04FB3
:101DC000936883B0924617680190002B76D04FF04D
:101DD000000B0C465D468B680A6848E0B4F90CC0FD
:101DE0001CF4906F2FD0D4E90403A2EB000803EB9E
:101DF000430202EBD27208F10101521029449142D0
:101E000092BF914689460A461CF4806F39D011462C
:101E1000019800F09FF9064600283DD0424621690E
:101E2000FFF7EAFDA28922F4906242F08002A281CB
:101E300006EB0800A9EB08022661A8462E46A26020
:101E40002060C4F814903246594600F061FADAF87E
:101E50000810A3682268A3EB08033244491BA3605F
:101E60002260CAF8081049B3D7E900B50837984688
:101E70001046002DF8D09D421E46AFD2A8462E46F1
:101E8000E1E70146019800F0C1FA06460028CFD1EB
:101E90000198216900F0DEF90C21A389019D43F02E
:101EA000400329600022A3814FF0FF300023CAF8CD
:101EB0000820CAF8043003B0BDE8F08F00200023EA
:101EC000CAF8043003B0BDE8F08F00BF2DE9F04F31
:101ED0001C468B8989461D06824693469DB003D5D4
:101EE0000B69002B00F0EE80002343F220020993DF
:101EF0009BF8003001277C4E0394ADF82920002B7D
:101F000071D05D4603E015F8013F002B73D0252BFF
:101F1000F9D1B5EB0B0471D12A78002A63D00023E4
:101F20004FF0FF320135CDE90523049307938DF877
:101F300053301A9306E02546049B801B07FA00F0F5
:101F4000034304932C46052214F8011B304600F08D
:101F500067FCA3460028EED1049BD90644BF20228B
:101F60008DF853201A0748BF2B22297848BF8DF8D7
:101F700053202A294FD1039A116804320029039271
:101F80007BDB079169782E295BD0584C03222046D1
:101F900000F046FC38B14022049B001B82401343F2
:101FA0000BF1010B04931BF8011B062250488DF81E
:101FB000281000F035FC002865D04E4B002B55D082
:101FC00003A900914A4650464B4B04A9AFF3008049
:101FD0008046B8F1FF3F06D0099B434409939BF824
:101FE0000030002B8DD1B9F80C305B0679D40998FC
:101FF0001DB0BDE8F08FB5EB0B04F4D023465A4674
:1020000049465046FFF77AFE0130ECD0099B2A780A
:102010002344099381E7A1F13002092A88BFAB4626
:10202000B1D8079B00E00134217803EB830302EB76
:102030004303A1F13002092AF5D92E29A3460793BB
:10204000A3D19BF801102A2927D1039B0BF1020091
:102050001A680433002A0393B8BF4FF0FF339BF88C
:10206000021005928346B8BF05938EE7039B0733A2
:1020700023F0070308330393AEE7494243F002031A
:10208000079104937EE703A900914A4650461A4BF4
:1020900004A900F07FFA80469BE70023A1F13002FB
:1020A000092A0BF1010B05933FF66FAF1BF8011FD7
:1020B00003EB830302EB4303A1F13002092AF5D9B4
:1020C000059362E7402100F045F8C9F80000C9F81F
:1020D000100018B14023C9F8143005E70C23CAF8E2
:1020E00000304FF0FF3083E7B07A0008B87A00087C
:1020F000BC7A000800000000FD1C0008014B1868B5
:10210000704700BF0000002070B5114E05463368CF
:102110000C46BBB12146284600F0CEFB431C0146CD
:102120000CD0C41C24F00304A04205D02846611A38
:1021300000F0C2FB013001D0204670BD4FF0FF34EB
:10214000204670BD194600F0B7FB3060E2E700BFE3
:10215000D40100202DE9F843CD1C25F003050835F6
:102160000C2D38BF0C25002D064618DBA94216D8C9
:10217000DFF8DC8000F050FBD8F80420A2B1144650
:1021800003E0636822467BB11C4623685B1BF8D4DE
:102190000B2B1FD89442636854D053600CE00C237F
:1021A00033600020BDE8F88329463046FFF7ACFFD6
:1021B000431C044619D00560304600F02FFB04F1A3
:1021C0000B00231D20F00700C21A1CBF1B1AA350CE
:1021D000BDE8F88361199442256014BF5160C8F8C6
:1021E0000410635163684B60E6E7D8F804701FB3CE
:1021F0003C467F68002FFBD123683946304604EB0C
:10220000030900F059FB814516D123683046ED1AC9
:102210002946FFF779FF01300ED02368D8F8042053
:102220002B442360536883B1A34203D01A465B68F2
:102230009C42FBD10023B0E70C233046336000F012
:10224000EDFAAEE7C8F80430B6E7C8F80470B3E7B3
:10225000D4010020002950D038B551F8043C0C1F9F
:10226000002BB8BFE418054600F0D6FA274A1368D9
:102270002BB1A3420CD92168601883422CD0284688
:1022800063601460BDE8384000F0C8BAA3420FD8BC
:102290001A465B68002BF9D111685018844217D098
:1022A0002CD3636054602846BDE8384000F0B6BACD
:1022B00011685018A04214D020D8216860188342B9
:1022C000EFD118685B680844C4E900035460EAE78A
:1022D00023680B441360E6E718685B6808442060D5
:1022E000CDE720680144501883421160DBD1D3E967
:1022F00000040144C2E90014D5E770470C232846C6
:102300002B60BDE8384000F089BA00BFD80100203A
:1023100088420ED98B1883420BD900EB020C002A9D
:102320006DD0624613F801CD994202F801CDF9D182
:1023300070470F2A0FD8034602F1FF3C002A5ED0F7
:102340000CF1010C013B8C4411F8012B614503F8A1
:10235000012FF9D1704740EA01039B0750D1A2F148
:10236000100370B501F1200C23F00F0501F1100EE0
:1023700000F11004AC441B095EF8105C0EF1100E65
:1023800044F8105C5EF81C5C103444F81C5C5EF889
:10239000185C44F8185C5EF8145CE64544F8145C7C
:1023A000EAD1013312F00C0F01EB031102F00F041C
:1023B00000EB031328D08E46043C24F003064FEABA
:1023C000940C1E441C1F5EF8045B44F8045FB44286
:1023D000F9D10CF1010402F0030203EB840301EBD9
:1023E000840102F1FF3C4AB10CF1010C013B8C4429
:1023F00011F8012B614503F8012FF9D170BD704729
:10240000034602F1FF3C9BE72246EAE72DE9F04153
:10241000144641B30AB306460D4600F05FFA844203
:10242000074602D8B4EB500F13D821463046FFF7C9
:1024300091FE804650B1BC422246294628BF3A460A
:10244000FFF7DAFA29463046FFF704FF4046BDE8B9
:10245000F081A8464046BDE8F081A046FFF7FAFEAD
:102460004046BDE8F0811146BDE8F041FFF772BE7D
:102470002DE9F84F92461F460A698B680C469A422E
:10248000B8BF1A46CAF8002091F843300646DDF876
:10249000289013B10132CAF80020226891065FD556
:1024A000DAF800300233CAF80030226812F0060F62
:1024B00011461DD1E1689942D8BF114618DD4FF091
:1024C000000804F1190B05E0E568DAF80030ED1AB0
:1024D00045450CDD01235A4639463046C847013090
:1024E00008F10108F0D14FF0FF30BDE8F88F216806
:1024F00094F84330003B18BF01238A060AD53021E7
:10250000E21882F8431094F845105A1C2244023312
:1025100082F843103946304604F14302C84701307F
:10252000E1D0D4E902202368DAF8005003F0060372
:10253000042B21691BD08A4220DD4FF00008521A7B
:10254000904400251A3401E0454517DA012322465C
:1025500039463046C847013005F10105F4D1C2E7DC
:1025600012F0060F0DD0003B18BF0123D2E7401B2D
:102570008A4220EAE078E2DC0028E2DC0020BDE8C4
:10258000F88FE168DAF800309942D8BF114696DC3E
:10259000AEE700BF2DE9F04717460A7E84B00C462F
:1025A000064698460C9D01F1430C002A35D0A2F155
:1025B0005803D9B2202969D8202B67D8DFE813F057
:1025C000E60066006600660066006600660066005B
:1025D000660066006600AC0070006600660066007B
:1025E00066007000660066006600660021008300D9
:1025F000C60066006600B6006600830066006600DE
:10260000EC002B682268181D6169286010061B68A1
:1026100002D4520600F1E08019600023E1462361F4
:102620003B4621463046CDF8008003AAFFF720FF45
:10263000013020D04A46394630462369C047013030
:1026400019D02368E0689B07DDF80C9018D5484541
:1026500016DD002504F1190A04E0E068A0EB090387
:10266000AB420DDD0123524639463046C0470130AA
:1026700005F10105F1D14FF0FF3004B0BDE8F0875E
:102680004845B8BF484604B0BDE8F087012084F84B
:10269000422004F142090023206184F84330BFE75F
:1026A0002A682368111D1806296002D4590600F112
:1026B00095801068014600286268C0F293804FF050
:1026C0000A0E534815E020682B6810F0800F53F86D
:1026D000041B02D1400648BF89B26F2A14BF4FF0D5
:1026E0000A0E4FF0080E4A482B600023626884F8F7
:1026F0004330002AA26051DB236823F004032360E7
:1027000000294BD1002A7BD1E146BEF1080F56D0FB
:10271000ACEB0903236183E72A68012011680432C6
:102720002A6004F1420984F84210B4E72B680021C2
:102730001A1D2A60D3F800906268484600F070F8CD
:10274000002863D0A0EB09006060A4E7236843F091
:102750002003236078222F4884F845202A6813F04C
:10276000800F52F8041B03D113F0400F18BF89B239
:102770002A60DA0744BF43F02003236019B92368B5
:1027800023F0200323604FF0100EAEE758232048BB
:1027900084F845302368E1E72368DBE77546E146C6
:1027A000B1FBF5F30A4605FB131A194610F80A3077
:1027B000AA4209F8013DF3D2BEF1080FA8D123685F
:1027C000DD07A5D5626823699A42A1DC302309F1AF
:1027D000FF3989F800309BE719801EE7B2F9001035
:1027E000084668E72D20002AA26084F8430002DB37
:1027F00023F0040323600A250548AE464942CEE78C
:10280000037804F1420984F842307EE7606842E7C9
:10281000C47A0008D87A0008704700BF704700BF2C
:102820005FFA81FC810744D00346511E22B909E0BA
:102830009A0709D0013905D3184602780133624559
:10284000F6D1704700207047184603290CD800299C
:10285000F8D00346014401E08B42F3D0184613F848
:10286000012B6245F8D1704710B50CEB0C240246E1
:1028700004EB044402E00439032915D9104652F848
:10288000043B6340A3F1013E2EEA030313F0803FB3
:10289000F1D00346014401E08B4208D0184613F8FA
:1028A000012B6245F8D110BD10460029F1D100205E
:1028B00010BD1146C9E700BF002238B5064D0446D9
:1028C00008462A6000F012F8431C00D038BD2B687F
:1028D000002BFBD0236038BDDC01002051F8043C04
:1028E000181F002BBCBF0B58C0187047044A05497D
:1028F0001368002B08BF0B46184410601846704739
:10290000E0010020F00E00201FB5012205230A4C33
:1029100001A901902046CDE9022303F089F9204660
:1029200003F040FA0A21204603F0DAF8204603F0CB
:102930007BF904B010BD00BF2006002010B504468E
:10294000FEF7F2FE2146BDE8104082B26423014842
:1029500004F08ABE480700202DE9F04F9DB003F037
:1029600093F81422002114A8FEF734FF142200214A
:102970000DA80126FEF72EFF02274FF48033CDE984
:102980001263CDE919734FF4E01312A800244FF439
:1029900080681B9303F0C8FC0F23C24D39460DA875
:1029A000CDE90D37CDE90F48119403F07FFE2146A4
:1029B000102212A8FEF70EFFAB69324643F0040363
:1029C000AB61AB69102103F004030A930A9BAB6966
:1029D000B54843F00803AB61AB694FF0030903F05E
:1029E00008030B930B9BAB694FF0470B43F01003AD
:1029F000AB61AB69DFF8B4A203F010030C930C9B3E
:102A000003F084FC32464FF48071A74803F07EFC4B
:102A10004FF48873A44812A9CDE91236CDF854902A
:102A200003F09AFB4FF400639F4812A9CDE91234DA
:102A3000149703F091FB32460C219D4803F066FC8D
:102A400032464FF480519A4803F060FC41F2EF3275
:102A5000974812A9CDE91226159703F07DFB32465F
:102A60004FF40051934803F051FC4FF40052914849
:102A700012A9CDE91226159703F06EFB214610220C
:102A80000DA8FEF7A7FEEA6950463243EA61EA69FB
:102A9000CAF8084032400992099A4FF08042CAE9C8
:102AA000002B4FF0FF32CAF81840CAE9032404F0A3
:102AB000B5FB082250460DA9CDE90D46CDE90F44DE
:102AC00004F006FC0422784812A9CDE913441594B9
:102AD000129203F041FB314622461C2003F0EAFA31
:102AE0001C2003F017FBEA69734842F00402EA6114
:102AF000EA694FF4007A02F004020D920D9A6F4ACF
:102B00008460C0E9002B40F2E732C0E90324802250
:102B1000826104F057FB224621461E2003F0CAFAC8
:102B20001E2003F0F7FAAA695F4842F48042AA61C6
:102B3000AA6912A902F480420792079AAA694FF083
:102B40000C0B42F00402AA61AA69149402F0040278
:102B50000892089ACDE912A7CDF8549003F0FCFA38
:102B6000514812A9CDE91284149403F0F5FA4FF4F8
:102B7000E13253485349C0E90244C0E90012C0E9B8
:102B800005B40461C46104F040FDEA69484842F4B8
:102B90008022EA61EA6912A902F480220592059A6C
:102BA000AA6942F00802AA61AA69CDE9128702F077
:102BB00008020692069A1494CDF8549003F0CCFAC9
:102BC0004FF4006312A93A48CDE91234149603F089
:102BD000C3FA4FF41653DFF8F0803C48C8E90244CA
:102BE000C8E900034046C8E9044BC8E9064404F0BC
:102BF0000CFDD8F800203146D368272043F020038D
:102C0000D360224603F056FA272003F083FAAB691B
:102C1000254843F48053AB61AB6912A903F4805398
:102C20000493049BA0231494CDE91237CDF854905B
:102C300003F092FA40234FF4827812A91A48CDE9A2
:102C40001234149403F088FA2148224BC0E902445C
:102C5000C0E900380823C0E90444C0E90734C0E9EA
:102C60000944C0F818A003F0DEFEEB69104843F4F5
:102C70008043EB61EB6912A903F480430293029B4A
:102C8000AB6943F00803AB61AB69149403F008032C
:102C90000393039B4FF42043CDF85490CDE91237B2
:102CA0001AE000BF0010024000080140D8070020D1
:102CB000000C014000100140900700200008004077
:102CC000480700200038014000070020004800406D
:102CD000A80600200030014003F03EFA4FF4804384
:102CE00012A9A648CDE91234149603F035FAA44887
:102CF000A44BC0E90244C0E900383823C0E90444C9
:102D0000C0E90734C0E90944C0F818A003F08BFEFD
:102D1000AB6912A943EA0A03AB61AB699A4803EABB
:102D20000A030193994DCDE91444019BCDE9129911
:102D300003F012FA964B28462B604FF46023AC60E8
:102D4000EB612C732C756C602E6103F0B3F8284690
:102D500003F02EF9C8228F4B8F49C3E90066C3E9FF
:102D600002668E4B96201A6050230B608C490A60D5
:102D700064228C490A608C490B608C490860FA20F7
:102D80008B4908604FF4E1708A4908604FF416706F
:102D9000894908604FF496608849086088490B604B
:102DA00088490A6088490B60884B1A600A22884B60
:102DB0001E60884B884E1A60346001F0C7FA01F03B
:102DC000E5FA01F0A9FD8548FFF7B8FD8448FFF753
:102DD000B5FD4FF4FA7002F06FFE01F015FF814867
:102DE000FFF7ACFD02F044FC0446002840F03081BF
:102DF0007D48FFF7A3FD7D48FFF7A0FD00F0F4FA42
:102E0000002800F02F817A4A7A4813889BB243F059
:102E100020031380FFF792FD02F030F80022764B7A
:102E2000764F774D1A605A60764C237823B1002094
:102E300000F00AFD00232370734C237823B1012096
:102E400000F002FD00232370704A13881BB2012B8F
:102E500040F0F98000244FF400513846148003F00C
:102E60005AFA234664496A486A4C0A88013292B287
:102E70001E2A21F8022B07D950F8232054F823C02A
:102E80006244520840F823200133042BEDD12B88F3
:102E90001BB223B9688800B208B900F0A1FCAB8866
:102EA0001BB22BB9EB881BB213B9012000F098FCC0
:102EB0000020FFF729FDDFF86081584CC8F80000BA
:102EC0000120FFF721FD2060D8F800305449E52BA0
:102ED000474B1A88CBBF22F0800292B2120442F014
:102EE0008002C8BF120C1A803268B2B9CA780A2AA6
:102EF0000AD9CA780D2A07D82268C72ADFBF1A88DC
:102F000092B242F040021A802268FA2A05DD1A883D
:102F100022F040021204120C1A804B796BB9052280
:102F20000B79B3FBF2F202EB82029B1ADBB223B9FC
:102F300001F06EFA3B48FFF701FD2A88202112B20A
:102F4000003A18BF01220D4803F0E0F96A884021D9
:102F500012B2003A18BF0122084803F0D7F9AA8834
:102F6000802112B2003A18BF0122044803F0CEF9C2
:102F7000EA884FF4807112B2003A55E0000C01402B
:102F800050060020003800400008014020060020C4
:102F900000240140340300202403002028030020E3
:102FA000300300202C030020200300201C030020FD
:102FB0001803002014030020100300200C0300203D
:102FC000080300200403002000030020FC0200206E
:102FD000F8020020F4020020F00200206D780008C2
:102FE0008C780008A3780008B678000815790008E6
:102FF0001E06002027790008E4020020001001408E
:103000000C06002045050020440500201C06002079
:10301000CC050020DC0500206C05002068050020A0
:10302000660000204D79000818BF01220E4803F009
:103030006DF901F02FFF021E18BF01224FF400713D
:10304000094803F063F901F035FF00F08BF9EBE676
:10305000C20702D50548FFF771FCA3077FF5CBAE89
:103060000348C6E60348D5E6000C0140E4780008B2
:10307000FC7800083D7900080268034B9A4201D1B0
:1030800001F06EBC704700BF00080040014803F02B
:10309000D7BF00BF90070020014803F0D1BF00BF99
:1030A000D807002000F032B904480268136823F002
:1030B000400313600823C36103F0B5BC5006002031
:1030C0000E4B82B09A6942F001029A619A6902F04D
:1030D00001020092009ADA6942F08052DA61DB69FB
:1030E000074A03F080530193019B536823F0E06388
:1030F00043F00073536002B0704700BF00100240FD
:1031000000000140084B1888084B80B21B889BB216
:10311000C01A00F500704342C3F30803C0F308006F
:1031200058BF584280B27047CE0A0020CC0A002017
:10313000054A064913889BB2C85C13880133C3F360
:1031400008031380704700BFCC0A0020D00A00207B
:1031500010B50446FEF7E8FA2146BDE8104082B2F9
:103160004FF4FA73014804F07FBA00BF0007002053
:1031700008B5FFF7EDFFBDE808400148FFF7E8BFDD
:10318000E17800082DE9F0412F490446FEF7AEF939
:1031900030B101232D4A13702D4A1370BDE8F08120
:1031A00020462C49FEF7A2F90028F2D120462A49F0
:1031B000FEF79CF918B10122284B1A70EEE7204661
:1031C0002749FEF793F920B920462649FEF78EF9E4
:1031D00010B100221D4BF0E7052220462249FEF7E0
:1031E00081FC0028DAD105343A212046FEF734FA72
:1031F00006460028D2D02046FEF73CFB01360446A6
:103200003046FEF791FAA4B285B2A54228BF254602
:10321000DFF858801648B8F800703146C7F50073DB
:103220009BB29D4228BF1D4638442A46FEF7E4FB68
:10323000AC4207EB050388BF641BA8F8003082BFCF
:103240000C4BA4B21C80A9E75E7900082508002079
:1032500022080020697900087979000823080020F5
:1032600081790008887900089179000828080020F1
:103270002A080020200800202DE9F043A9B00646C6
:103280000F46002402F012FCA0460546DFF87890B5
:1032900002F00CFC401BB8421AD34FF0FF3029B0AB
:1032A000BDE8F083FFF744FF3E280DD1012389F8E4
:1032B00000309E2C0CD804F1A002631C0DEB02041C
:1032C00004F8A00CDCB203E00A281AD144B90024A7
:1032D000FFF718FF0028E5D1052002F0EDFBD7E746
:1032E00004F1A00368460DEB030404F8A08CFFF77B
:1032F00049FF31466846FEF7F9F80028E7D000207C
:10330000CDE70D28E4D0D4E724080020114B37B5D1
:103310001A681368990610D50F49104854680B882D
:1033200000880133C3F3080380B2984205D00888AF
:103330000B4D80B2E4B22C540B8013681B0706D5EA
:10334000002301931368019353680193019B03B019
:1033500030BD00BF00070020CE0A0020CC0A0020AC
:10336000D00A002070B51A4E1A4DFFF7CBFE00B9F7
:1033700070BDFFF7DDFE3E2803D10122164B1A7007
:10338000F3E73488A4B26CB1144A1388B3F5007F14
:103390003FBF591C1180124AD0543388013B9BB265
:1033A0003380E2E70A2808D12B78002BDDD00D48C6
:1033B000C454FFF7E7FE2C70D7E70D28D5D02B7843
:1033C0009E2B9FBF5A1C2A70064AD054CDE700BFDF
:1033D000200800202A0A00202408002028080020B5
:1033E0002A0800202B0A00202DE9F0470024774B03
:1033F0004FF400611C70764B76481C70764B94B08D
:103400001C70764B1C70764B1C80764B1C80764B68
:103410001C70764B1C80764B1C80764B1C8002F017
:103420006FFF012824D022464FF48071694802F0D2
:103430006DFF4FF4966002F03FFB01224FF4807164
:10344000644802F063FF02F031FB43F6982604461D
:10345000604D4FF40061284602F052FF20B902F09F
:1034600025FB001BB04218D940F6B83002F024FB0F
:103470000524614D614E2846FFF77AFE4FF47A71BC
:103480003046FFF7F9FE002800F08A80013CF2D1B7
:103490004FF0FF3014B0BDE8F087642002F00CFB61
:1034A000D7E702F003FB0546554FDFF8588102F0DD
:1034B000FDFA4EF65F23401B984202D96FF00200DE
:1034C000E8E73846FFF754FE02F0F0FA002406461B
:1034D000DFF83491DFF834A102F0E8FA801BB0F590
:1034E000FA6F01D23E2C0ED94FF4FA6002F0E4FAE2
:1034F000DDE70D2807D004F15002631C0DEB020438
:1035000004F8500CDCB2FFF7FDFD0028E4D0FFF713
:103510000FFE0A28EDD104F150030DEB0304002344
:10352000414604F8503C6846FDF7E0FF0446002899
:10353000E9D049466846FDF7D9FF30B9514668469B
:10354000FDF7D4FF04460028DDD05021304B314A2E
:103550006846FEF74DFB6846FFF70AFE41F28831E8
:103560002648FFF789FE10B16FF0030092E72A4862
:10357000FFF7FEFD43F698212048FFF77DFE60B976
:103580002648FFF7F5FD41F288312548FFF774FE24
:10359000002818BF6FF005007CE76FF0040079E7A2
:1035A0002048FFF7E5FD4FF47A711448FFF764FEF9
:1035B0001D48FFF7DDFD40F6B8311C48FFF75CFE03
:1035C00000283FF46EAF6FF0010063E7250800208C
:1035D00024080020000801402308002022080020C1
:1035E000CC0A0020CE0A00202A0A0020260800204B
:1035F0002808002020080020977900087E7900081C
:103600009A790008A3790008AA790008AD79000822
:10361000B0790008BC790008CF790008D879000893
:10362000E1790008E3790008E8790008427A0008A7
:10363000F0B599B018B94FF0FF3019B0F0BD039153
:10364000C378502102938378134A01934378134D32
:103650000093037804A8FEF7CBFA0023104E04A8C9
:103660002B703370FFF784FD02F020FA43F69727A2
:10367000044602F01BFA031BBB42DCD8FFF772FEC4
:1036800033782BB12878B0FA80F040094042D4E773
:10369000142002F011FAECE7F17900082508002067
:1036A000220800202DE9F043284B06461B780C46E3
:1036B00089B023B94FF0FF3009B0BDE8F08300298D
:1036C000F8D00B46224A20216846FEF791FA0023E3
:1036D000204F214D68463B702B70FFF749FD02F0EB
:1036E000E5F940F6B73980463B78BBB13B78002B13
:1036F000E0D041F2883322463146184803F0B4FF47
:103700000028D7D102F0D2F941F2873706462B784C
:1037100083B12B78002BCDD02046CDE702F0C6F93F
:10372000A0EB08034B45E1D8FFF71CFE022002F096
:10373000C3F9D9E702F0BAF9831BBB42E9D8FFF716
:1037400011FE052002F0B8F9E1E700BF25080020CE
:10375000167A000824080020230800200007002013
:103760002DE9F04781468A46FFF7FCFD144B1B7894
:1037700013B3144E144F3588B7F80080454504D371
:10378000002030803880BDE8F087A8EB0504A4B2A3
:10379000544528BF54460D49224629442544ADB21C
:1037A0004846FEF729F9A84598BF002320468EBF5A
:1037B000358033803B80E6E74FF0FF30E3E700BF22
:1037C0002508002026080020280800202A080020BC
:1037D00008B5FFF7C7FD014B187808BD2508002084
:1037E0000F4BB8B9188058800E4B188000230E4A32
:1037F00042F820300D4A42F820300D4A42F820307D
:103800000C4A22F810300C4A22F810300B4A42F8C9
:103810002030704700229A80DA80094B1A80E5E751
:103820000C060020660500205C05002054050020E1
:103830004C0500200806002004060020FC0500209E
:103840006405002000000000A74B2DE9F74F8346D8
:103850001868FCF777FEA54B0022FCF7DDFEDFF8C9
:103860009082064658F82B300F46002B40F3BC8060
:1038700058F82B00FCF766FE02460B4630463946E8
:10388000FCF7F4FF04460D46DFF86892DFF868A203
:1038900059F82B205AF82B309A4240F3A88059F857
:1038A0002B005AF82B30C01AFCF74CFE02460B4690
:1038B00030463946FCF7DAFF02460B4620462946D9
:1038C000FCF7F4FC00228D4BFCF7A6FE04460D46E7
:1038D0005AF82B2059F82B3058F82B105B1A134448
:1038E00003EBD373864A5B1013601068FCF72AFE63
:1038F00022462B46FCF790FE00227C4BFCF7B6FFDD
:10390000804B064618680F46FCF71CFE02460B4625
:1039100030463946FCF7C8FC71A3D3E90023814641
:103920008A4620462946FCF777FEFCF735FCFDF772
:103930000DF9754B754A33F81B3086B213801FB2F0
:10394000734B5680DA78062A54D9DC78142C8CBF55
:10395000002401246F4B1868FCF7F4FD02460B4667
:10396000CDE900234A465346FDF7E6F8002845D046
:10397000002C41D0684B1D68684BADB2AE4294BF7D
:10398000002501250C2F1CBFBBFA8BFB4FEA5B1BEC
:1039900053F82B80624B18BF0127186808BF002717
:1039A000604CFCF7CFFD4A465346BBF1000F40F098
:1039B0001181FDF7C1F830B3636E0133636615B151
:1039C000E36E0133E36617B1236F01332367B8F564
:1039D000FA6FB8BF636F544ABCBF013363671368A3
:1039E0003344136058234DE0002400254CE70022A7
:1039F000002363E70024ADE74C4BBCE70CB14C4B14
:103A0000B9E74C4BB7E74A46DDE900015346FDF7FD
:103A100093F8B8B123680133236015B1A36801336B
:103A2000A36017B1E3680133E360B8F5FA6FB8BF7C
:103A30002369414ABCBF01332361136833441360D7
:103A400041231FE03D4B1868FCF77CFD4A46534676
:103A5000FDF772F810B363690133636115B1E3696F
:103A60000133E36117B1236A01332362B8F5FA6FBA
:103A7000B8BF636A324ABCBF013363621368334420
:103A800013604223214A584613710023234A42F807
:103A90002B3003B0BDE8F04FFFF7A2BE294B1868EA
:103AA000FCF750FD4A465346FDF746F800284DD036
:103AB000A36A0133A36215B1236B0133236317B1EA
:103AC000636B01336363B8F5FA6FB8BFA36B1E4A2B
:103AD000BCBF0133A3631368334413604323D1E7AE
:103AE0003BDF4F8D976EA23F2803002000408F40A0
:103AF0005C0500204C050020540500200000E03F3C
:103B0000480500202403002008060020E4010020CE
:103B1000660000201C03002008030020EC050020A4
:103B200020030020EC010020900500200403002069
:103B300000030020FC020020A40500201803002040
:103B4000A0050020140300209C0500209A4B186853
:103B5000FCF7F8FC4A465346FCF7EEFFB8B1E36BBE
:103B60000133E36315B1636C0133636417B1A36C74
:103B70000133A364B8F5FA6FB8BFE36C8F4ABCBFDA
:103B80000133E36413683344136044237AE78C4BB6
:103B90001868FCF7D7FC4A465346FCF7CDFF0028CF
:103BA0003FF40AAF236D0133236515B1A36D0133D3
:103BB000A36517B1E36D0133E365B8F5FA6FB8BFDC
:103BC000236E804ABCBF01332366136833441360FD
:103BD000452357E7FCF7B0FFD8B1D4F8E030013304
:103BE000C4F8E03025B1D4F8E8300133C4F8E83047
:103BF00027B1D4F8EC300133C4F8EC30B8F5FA6FE3
:103C0000B8BFD4F8F030704ABCBF0133C4F8F0300C
:103C1000E5E64A46DDE900015346FCF78DFFC8B1F1
:103C2000E36F0133E36725B1D4F884300133C4F87E
:103C3000843027B1D4F888300133C4F88830B8F51F
:103C4000FA6FB8BFD4F88C30604ABCBF0133C4F8F7
:103C50008C30F2E65E4B1868FCF774FC4A4653461B
:103C6000FCF76AFFD8B1D4F890300133C4F8903033
:103C700025B1D4F898300133C4F8983027B1D4F87E
:103C80009C300133C4F89C30B8F5FA6FB8BFD4F853
:103C9000A030504ABCBF0133C4F8A030EEE64E4B12
:103CA0001868FCF74FFC4A465346FCF745FFD8B16D
:103CB000D4F8A4300133C4F8A43025B1D4F8AC3022
:103CC0000133C4F8AC3027B1D4F8B0300133C4F8B4
:103CD000B030B8F5FA6FB8BFD4F8B4303F4ABCBFC3
:103CE0000133C4F8B430F6E6334B1868FCF72AFC0D
:103CF0004A465346FCF720FFD8B1D4F8B830013318
:103D0000C4F8B83025B1D4F8C0300133C4F8C0309D
:103D100027B1D4F8C4300133C4F8C430B8F5FA6F11
:103D2000B8BFD4F8C8302E4ABCBF0133C4F8C8307D
:103D300028E7234B1868FCF705FC4A465346FCF776
:103D4000FBFED8B1D4F8CC300133C4F8CC3025B167
:103D5000D4F8D4300133C4F8D43027B1D4F8D830F3
:103D60000133C4F8D830B8F5FA6FB8BFD4F8DC30F6
:103D70001C4ABCBF0133C4F8DC3026E7D4F8E0307D
:103D80000133C4F8E03025B1D4F8E8300133C4F889
:103D9000E83027B1D4F8EC300133C4F8EC30B8F592
:103DA000FA6FBEBFD4F8F0300133C4F8F030064BE0
:103DB0001A6816441E6015E61003002098050020BE
:103DC0000C03002094050020780500208C050020BD
:103DD000180300208805002014030020840500201B
:103DE000800500207C050020764910B50B881BB2A9
:103DF000002B40F08F80744B1B68002B00F08A80F2
:103E0000724B734A1B8812681BB2934240F3828044
:103E1000704B1A8812B242B11A8812B2012A79D1B3
:103E20006D4A128812B2152A74D101226B4C0A8095
:103E3000208800B2002864D0694A1068694A10607E
:103E400002221A804B881BB2002B40F0DB805E4BB5
:103E50005B68002B00F0D6805C4B5D4A5B88126883
:103E60001BB2934240F3CE805A4B1A8812B252B121
:103E70001A8812B2012A40F0C580574A128812B23D
:103E80000C2A40F0BF800122544C4A80208800B2A6
:103E9000002800F08D80524A1068524A10600222B9
:103EA0001A808B881BB2002B40F02D81464B9B68FB
:103EB000002B00F02881454B454A9B8812681BB2B5
:103EC000934240F32081484B1A8812B252B11A88AB
:103ED00012B2012A40F017813F4A528812B2152AC5
:103EE00040F0118101223D4C8A80608800B2002898
:103EF00000F0D6803A4A50683A4A506002221A804E
:103F0000D7E022801A80394B5A68394B5A600C220C
:103F1000314B96E70B881BB2002B33D02A4B1B6822
:103F2000002B2FD0294B334A1B8812681BB29342B7
:103F300028DA284B1A8812B2022A04D1264A12889B
:103F400012B20C2A08D01A8812B2032A1AD1224AB5
:103F5000128812B2152A15D10024274A0C80106845
:103F6000A0421F4800680ADD244A10601C801F4BD5
:103F70005A681F4B5A600122214B1A7062E7106089
:103F800003225EE70B881BB2002B3FF45BAF0E4BA6
:103F90001B68002B3FF456AF0C4B164A1B88126867
:103FA0001BB29342BFF64EAF0020FFF719FC49E762
:103FB00022801A800D4B1A680D4B1A601522064B91
:103FC0006EE700BF0C06002034030020A805002087
:103FD00030030020660500200806002004060020AB
:103FE000FC0500205C05002064050020DC050020A5
:103FF000CC0500202C030020540500204C05002097
:10400000450500204B881BB2002B33D0844B5B68E6
:10401000002B2FD0834B844A5B8812681BB29342DB
:1040200028DA824B1A8812B2032A04D1804A1288F5
:1040300012B20C2A08D01A8812B2022A1AD17C4A6B
:10404000128812B2152A15D100247A4A4C801068C1
:10405000A042794800680ADD784A10601C80784BDD
:104060001A68784B1A600122774B1A7019E71060B2
:10407000032215E74B881BB2002B3FF412AF684BAD
:104080005B68002B3FF40DAF664B674A5B88126894
:104090001BB29342BFF605AF0020FFF7A1FB00E77C
:1040A00062801A80664BDA68664BDA600C22604BDD
:1040B0005A80CB881BB2002B7AD1594BDB68002B7E
:1040C00076D0584B614ADB8812681BB293426FDD91
:1040D0005F4B1A8812B242B11A8812B2012A67D114
:1040E000534A528812B20C2A62D101225948CA801E
:1040F000418809B2002951D04F4A5168564A51604F
:1041000002221A8053E08B881BB2002B33D0444B21
:104110009B68002B2FD0434B434A9B8812681BB2ED
:10412000934228DA4A4B1A8812B2022A04D1404A32
:10413000528812B20C2A08D01A8812B2032A1AD155
:104140003B4A528812B2152A15D10024394A8C8074
:104150005068A042384840680ADD384A50601C80E8
:10416000374BDA68374BDA6001223C4B1A70A0E714
:1041700050600322C3E68B881BB2002B99D0284BDA
:104180009B68002B95D0274B274A9B8812681BB24F
:1041900093428EDA0120FFF723FB8AE742801A80E0
:1041A000274B9A68274B9A601522214B5A8010BDE5
:1041B000CB881BB2002B53D0194BDB68002B4FD0A0
:1041C000184B194ADB8812681BB2934248DA204B1D
:1041D0001A8812B2032A04D1154A528812B20C2A44
:1041E00008D01A8812B2022A3AD1114A528812B261
:1041F000152A35D100200F4AC880516881420E49E6
:1042000049680ADD0D4A516018800D4B9A680D4BC4
:104210009A600122114B1A70C9E75160032270E7BE
:1042200034030020A80500202C0300206605002090
:104230000806002054050020FC0500204C05002045
:10424000DC050020CC0500204505002030030020BF
:1042500064050020040600205C05002044050020C1
:10426000CB881BB2002BA2D0074BDB68002B9ED063
:10427000064B074ADB8812681BB2934297DABDE807
:1042800010400120FFF7ACBA34030020A80500203D
:104290002C030020642930B5A8BF00210A24B1FBFB
:1042A000F4F204FB1211044B02F130051D543031BD
:1042B0000133195430BD00BF4403002042F20F7394
:1042C000994288BF00214FF47A73B1FBF3F30F4A90
:1042D000303370B5135464230A24B1FBF3F3B3FBFA
:1042E000F4F604FB1633551C30332B54B1FBF4F5B4
:1042F000B5FBF4F304FB151104FB1353961C303388
:10430000033230313354115470BD00BF44030020D8
:10431000B1F57A7F28BF0021642270B50A24B1FB71
:10432000F2F2B1FBF4F5084B30321A54B5FBF4F25B
:1043300004FB151104FB12525E1C30320233303183
:104340003254195470BD00BF4403002008B50E4B11
:104350004FF4837230211846FDF73CFA3122027087
:10436000827138223421C2710D22417080F80621F9
:1043700035210A22C17080F80721322100224171C3
:1043800080F8082108BD00BF44030020F82208B5CA
:1043900000211048FDF71EFA00230F4A13600F4A50
:1043A00013600F4A13600F4A13600F4A13600F4ADD
:1043B00013600F4A13600F4A13600F4A13600F4ACD
:1043C00013600F4A13600F4A13600F4A13600F4ABD
:1043D000136008BDEC01002090050020940500202A
:1043E000980500209C050020A0050020A4050020C1
:1043F000780500207C050020800500208405002031
:10440000880500208C050020740500207005002020
:104410002DE9F04F97B0FFF799FFAE49DFF8B8925A
:104420000A68002AC9BFAD4B4FF000081B68B3FBF8
:10443000F2F84B69C8BF1FFA88F8002BCABFA8481A
:1044400000270768886AC4BFB7FBF3F7BFB200282C
:104450000090C9BFA348002606680098A1F8048010
:10446000C8BFB6FBF0F6C86BC8BFB6B20028019053
:10447000C3BF9D48019C00680020C4BFB0FBF4F09E
:1044800080B20A900A988E85A1F84000086D0F83CB
:1044900000280290C3BF9548029C00680020C4BF5A
:1044A000B0FBF4F080B20B900B98A1F85400486E6A
:1044B00000280390C3BF8E48039C00680020C4BF3F
:1044C000B0FBF4F080B20C900C98A1F86800C86FB3
:1044D00000280490C3BF8748049C00680020C4BF24
:1044E000B0FBF4F080B20D900D98A1F88000D1F8E7
:1044F000901000290591C3BF7F49059809680021E4
:10450000C4BFB1FBF0F189B20E910E987149A1F8C8
:104510009400D1F8A40000280690C3BF7748069CF9
:1045200000680020C4BFB0FBF4F080B20F900F9879
:10453000A1F8A800D1F8B81000290791C3BF7049AD
:10454000079809684FF0000BC4BFB1FBF0F11FFAE8
:1045500081FB6049D1F8CC00A1F8BCB000280890DC
:10456000C3BF6848089C00684FF0000AC4BFB0FB96
:10457000F4F01FFA80FAA1F8D0A0D1F8E010554C61
:1045800000290991C9BF604900250D6809994FF0BC
:104590000800C8BFB5FBF1F599F80010C8BFADB26F
:1045A000CDE91023A4F8E450FFF774FE0A2099F82F
:1045B0000110FFF76FFE0C2099F80210FFF76AFE5A
:1045C0000E2099F80310FFF765FE102099F80410EB
:1045D000FFF760FE109A12201146FFF76FFE41466A
:1045E0001620FFF795FE1920A168FFF767FE1D2032
:1045F000E168FFF763FE21202169FFF75FFE119B51
:1046000025201946FFF75AFE39462920FFF780FE7C
:104610002C20E169FFF752FE3020216AFFF74EFEA1
:104620003420616AFFF74AFE38200099FFF746FE02
:10463000314641F270763C20FFF76AFE3F20216B45
:10464000FFF73CFE4320616BFFF738FE4720A16B6C
:10465000FFF734FE4B200199FFF730FE4F200A99F7
:10466000FFF756FE5220616CFFF728FE5620A16C22
:10467000FFF724FE5A20E16CFFF720FE5E2002992E
:10468000FFF71CFE62200B99FFF742FE6520A16D2B
:10469000FFF714FE6920E16DFFF710FE6D20216E1B
:1046A000FFF70CFE71200399FFF708FE75200C99A7
:1046B000FFF72EFE7820E16EFFF700FE7C20216FD1
:1046C000FFF7FCFD8020616FFFF7F8FD0F4B8420A2
:1046D00019681DE0EC01002066000020A405002000
:1046E000A00500209C0500209805002094050020CE
:1046F000900500208C0500208805002084050020FE
:10470000800500207C05002078050020740500202D
:1047100091FBF6F1FFF7FCFD87200499FFF7CEFD32
:104720008B200D99FFF7F4FD8E20D4F88410FFF74D
:10473000C5FD9220D4F88810FFF7C0FD9620D4F86C
:104740008C10FFF7BBFD9A200599FFF7B7FD9E205F
:104750000E99FFF7DDFDA120D4F89810FFF7AEFD0C
:10476000A520D4F89C10FFF7A9FDA920D4F8A0102B
:10477000FFF7A4FDAD200699FFF7A0FDB1200F992A
:10478000FFF7C6FDB420D4F8AC10FFF797FDB820B2
:10479000D4F8B010FFF792FDBC20D4F8B410FFF7A6
:1047A0008DFDC0200799FFF789FD5946C420FFF70A
:1047B000AFFDC720D4F8C010FFF780FDCB20D4F8A0
:1047C000C410FFF77BFDCF20D4F8C810FFF776FDAB
:1047D000D3200899FFF772FD5146D720FFF798FDC7
:1047E000DA20D4F8D410FFF769FDDE20D4F8D81011
:1047F000FFF764FDE220D4F8DC10FFF75FFDE62050
:104800000999FFF75BFD2946EA20FFF781FDED20BE
:10481000D4F8E810FFF752FDF120D4F8EC10FFF7C0
:104820004DFDF520D4F8F010FFF748FD314BF9208D
:10483000196891FBF6F1FFF76BFD2F4B1868FCF739
:104840005FFA2E49FCF7B0FA2D49FCF7A5F9FCF701
:10485000FBFB0146FC20FFF75BFD2A4B1A68312A5F
:104860003DDD1868FCF74CFA2449FCF79DFAFCF78B
:10487000EBFB0146FF20FFF74BFD234B4FF481700C
:104880001988302589B2FFF719FD2048002340F22E
:10489000071201461E4C2380013A92B20ABB13B1A3
:1048A0004FF4837323800D23002481F806310A23FB
:1048B000184A886881F8073181F80841516813ABBC
:1048C00003C31189A2F10800198013A98DF856407D
:1048D00000F0F4FEFFF75AFD17B0BDE8F08F00219D
:1048E000C8E710F8013B202B08BF00F8015C01234A
:1048F000D2E700BF700500206C050020A7EAC63E85
:104900000000E040680500201E060020440300204F
:10491000EC0200204C03002008B50821034802F0F7
:1049200065FDBDE80840024802F046BBD8070020FC
:1049300090070020026808B5B2F1804F0AD1037FCA
:10494000042B07D1082102F062FB0122024B186000
:10495000024B1A7008BD00BFD80C0020D00C0020FC
:10496000F8B5904A904C1378E3B1904B90491D688C
:104970000B680D6000211170ED1A23881BB240F006
:104980009A808C4A22F8135023881BB2032B09D833
:10499000DFE803F0027F858B874A13889BB243F0E0
:1049A00002031380854D2B881BB2002B2DD142F2C0
:1049B0000F72834B19689142DEBF1A6801321A6088
:1049C00042F20F7259689142DEBF5A6801325A6052
:1049D0007C4B1A8812B21AB17B490A6801320A600C
:1049E0005A8812B21AB178490A6801320A609A8864
:1049F00012B21AB175490A6801320A60DB881BB22B
:104A00001BB1724A1368013313600021704A238876
:104A100001331BB2238023881BB2042B08BF2180E3
:104A200023881BB252F82330002BF0D022880121BA
:104A3000684802F0010201F069FC22880221654801
:104A4000C2F3400201F062FC2B881BB223B1624A20
:104A5000138801331BB21380604B61491A6801321D
:104A60001A601A680A601A68B2F57A7F0DD30022BC
:104A70001A600A6001215B4B19805B4B58793A2818
:104A80006BD85A790A44D2B25A71BDE8F840FFF7A0
:104A9000ABB9494A13889BB243F0040381E7464A05
:104AA00013889BB243F008037BE7434A13889BB209
:104AB00043F0100375E74D4A4D4E42F823502388CA
:104AC0001BB256F823304BB323881BB256F8230091
:104AD000FCF712F907462846FCF70EF9014638465E
:104AE000FCF758F8434D286023881BB256F8230082
:104AF000FCF702F92E6801463046FCF709FA2860F7
:104B000028683D49FCF750F928602868FCF79CFAB2
:104B10002588284B2DB200B223F8150023881BB23C
:104B2000032B3FF63FAFDFE803F002090E13224AE2
:104B3000138823F002031B041B0C32E71E4A138860
:104B400023F00403F7E71C4A138823F00803F2E775
:104B5000194A138823F01003EDE75A7118793A289F
:104B600004D81A790132D2B21A718EE71A71D87844
:104B7000162804D8DA780132D2B2DA7085E7DA7012
:104B80009A781E2A04D89A780132D2B29A707CE7B9
:104B900099705A780B2A31D85A780132D2B25A70A9
:104BA00073E700BFD00C0020F8050020D80C0020CF
:104BB000D40C0020A80500201E060020F6050020C9
:104BC000EC0500200C060020740500207005002074
:104BD00034030020000C0140F405002014060020DE
:104BE000180600201C06002066000020DC050020BE
:104BF000CC050020B005002000401C4659701A78F2
:104C00000132D2B21A7040E72DE9F84F0123264F46
:104C1000DFF898803B8000231A46254E254D48F842
:104C2000232046F8232025F813200133042BF6D146
:104C30000A244FF0000BDFF88090DFF880A0A9F87D
:104C400000B0B9F800301BB2032BFADD00235AF88C
:104C5000231056F823200A4446F8232035F8132061
:104C6000013292B225F813200133042BEFD16420D6
:104C700000F022FF631E13F0FF04E0D1234635F855
:104C8000132092B242B156F8232035F8131089B29E
:104C9000B2FBF1F248F823200133042BEFD10023BB
:104CA0003B80BDE8F88F00BFF6050020CC05002052
:104CB000BC050020B4050020F4050020DC05002020
:104CC0003222314B70B51A7030225A700A222F49A5
:104CD0000878B0FBF2F0303098700878B0FBF2F44E
:104CE00002FB14003030D87048782E24B0FBF2F06C
:104CF0003030587148781C71B0FBF2F502FB15009A
:104D0000303098718878DC71B0FBF2F03030187276
:104D10008878B0FBF2F502FB1500303058722D2078
:104D20009872C878B0FBF2F03030D872C878B0FB17
:104D3000F2F502FB15003030187308793A25B0FB04
:104D4000F2F03030987308795D73B0FBF2F602FB35
:104D500016003030D87348794979B0FBF2F0303022
:104D60005874B1FBF2F002FB1011303199746421D8
:104D7000074A1D74DC74126892FBF1F230321A7526
:104D800000225A7570BD00BF500000206600002050
:104D90001806002000B5182993B063D98379C27929
:104DA000303B03EB8303303A02EB43022F4BD2B28A
:104DB0001A70427A303A02EB8201827A303A02EB80
:104DC0004102D2B25A70027B303A02EB8201427B3E
:104DD000303A02EB4102D2B29A70C27B303A02EB17
:104DE0008201027C303A02EB4102D2B2DA70827C5C
:104DF000303A02EB8201C27C303A02EB4102D2B27D
:104E00001A71427D303A02EB8201827D303A02EB28
:104E10004102D2B25A715A780C2A84BF01225A70C8
:104E20009A781F2A84BF01229A70DA78172A84BFE1
:104E30000022DA701A793B2A84BF00221A715A794B
:104E40003B2A84BF00225A71FFF73AFF084B4021EA
:104E50000093084A084B02A8FCF7CAFE81B202A8D8
:104E6000FEF720FC13B05DF804FB00BF66000020D5
:104E70002D7A0008247A0008500000200021034BFE
:104E80004FF4007202481970FCF7A4BCDC0E00203D
:104E9000DC0C002008B5064B1B78032B05D1FEF770
:104EA00097FC003818BF012008BD0020FCE700BFB8
:104EB000DC0E0020F0B5764DA9B02B786BB1FEF773
:104EC00087FC18B900232B7029B0F0BD2B78032B79
:104ED000FAD8DFE803F00211294740F2E6716D4885
:104EE000FEF7A6FB08B90123EDE741F2883029B0AF
:104EF000BDE8F04000F0E0BDFEF76AFC0028E3D01A
:104F0000FFF7DEFE644B80210293644B644A0193F9
:104F1000644B08A80093644BFCF76AFE81B208A8B2
:104F2000FEF7C0FB0223CEE7604C40F2FF112046A3
:104F3000FEF716FC011EC5DB0329C5DD0023635403
:104F40002378302BC0D16378302BBDD1A378312B9F
:104F5000BAD1E378322BB7D1204689B2FFF71AFFD6
:104F60000323B0E7514C40F2FF112046FEF7F8FB57
:104F7000061EA7DB032EA7DD00234D4D4A4FA35588
:104F80002378302BA0D16378302B10D1A378312B2C
:104F90009AD1E378322B97D12046B1B2FFF7FAFECF
:104FA000182E91DD1934193E032EE9DC8CE7312BE4
:104FB0008AD1A378392B87D1E378372B84D1B3B248
:104FC0000D2B05D80D2E7FF77FAF0E340E3EEBE78D
:104FD0006068A16805AB03C3A2891A8000232A7AFE
:104FE0008DF81E3023799A4223D16A7A63799A42E6
:104FF0001FD1AA7AA3799A421BD1EA7AE3799A421D
:1050000017D12A7B237A9A4213D16A7B637A9A4218
:105010000FD1AA7BA37A9A420BD1EA7BE37A9A4218
:1050200007D12A7C237B9A4203D16A7C637B9A4214
:105030001AD0294605A800F059FBA8B9FFF786F950
:1050400023792B7263796B72A379AB72E379EB727C
:10505000237A2B73637A6B73A37AAB73E37AEB7364
:10506000237B2B74637B6B74FFF72AFE20213B4666
:10507000104A0DEB0100FCF7BBFD81B208A8FEF75A
:1050800011FB4FF484712846FEF70CFB9DE700BF2F
:10509000DC0E00206C000020487A0008667A0008C8
:1050A000367A00082D7A000850000020DC0C002021
:1050B000440300206D7A00087FB5FF238DF8173078
:1050C000C8238DF80F0000930DF1170201230DF195
:1050D0000F01044801F0AFFD9DF8170007B05DF81F
:1050E00004FB00BF50060020F8B504460D4600F052
:1050F000DDFC0746FF20FFF7DFFF064600F0D6FC89
:10510000C01BB0F5FA7F15D8FF2EF3D0FE2E11D1BB
:105110002544ADB2FF20FFF7CFFF04F8010BA3B287
:105120009D42F7D1FF20FFF7C7FFFF20FFF7C4FF25
:105130000020F8BD4FF0FF30FBE710B500F0B6FCE3
:105140000446FF20FFF7B8FFFF2808D000F0AEFCB0
:10515000031BB3F5FA7FF4D34FF0FF3010BD0020EE
:10516000FCE738B504460D46FFF7E7FF00281BDBD8
:105170002846FFF7A1FF651E04F2FF1415F8010F82
:10518000FFF79AFFA542F9D1FF20FFF795FFFF2017
:10519000FFF792FFFF20FFF78FFF00F01F00053899
:1051A00018BF4FF0FF3038BD4FF0FF30FBE7000075
:1051B00008B5054801224FF4805101F0A7F8BDE879
:1051C0000840FF20FFF778BF000C014008B500221F
:1051D0004FF48051064801F099F8FF20FFF76CFF6B
:1051E000FFF7ABFF18B1FFF7E3FF4FF0FF3008BD4B
:1051F000000C0140020673B504460D4607D5002198
:105200003720FFF7F7FF012831D804F07F040C2C7A
:105210002FD1280EC5F30741C5F3072244F04006FD
:10522000EDB274B3082C0CBF872301238DF8010065
:105230008DF802108DF803208DF805300622C82362
:10524000694611488DF800608DF8045001F043FC68
:105250000C2C02D1FF20FFF72FFF0A24FF20FFF7BD
:105260002BFF030603D5013C14F0FF04F6D102B076
:1052700070BDFFF79DFFFFF7A9FF0028C9DAFF20E7
:10528000F5E79523D2E700BF5006002000232DE963
:10529000F041724F724C86B001224FF48051714838
:1052A0003B70236001F032F8FF230A256E4E8DF823
:1052B0000830013DC8230122304602A9ADB201F0F9
:1052C0000AFC002DF5D129462846FFF793FF012857
:1052D000064606D0FFF76CFF4FF0FF3006B0BDE882
:1052E000F0814FF4D5710820FFF784FF012870D1B9
:1052F00001AEB0460425FF20FFF7DEFE013D15F0AC
:10530000FF0508F8010BF6D19DF80630012B2DD0D2
:1053100000253D70FFF74CFF002DDDD0FFF756FF55
:105320000028D9DB00210920FFF764FFD0B9102144
:1053300002A8FFF7D9FEA8B99DF808309DF80F1014
:105340009B09012B9DF810009DF811206BD1BDF831
:10535000103009045BBA9BB201F47C110B4301339A
:105360009B022360FFF724FF0020B7E79DF807307A
:10537000AA2BCDD100F09AFB054600F097FB401B0D
:10538000B0F57A7F1DD300F091FB401BB0F57A7F1A
:10539000BED200213A20FFF72DFF0028B8D1042506
:1053A000FF20FFF789FE013D15F0FF0506F8010B10
:1053B000F6D19DF8043013F0400F0CBF04250C25E6
:1053C000A7E74FF08041A920FFF714FF0028D4D1B0
:1053D000D9E72946A920FFF70DFF01288EBF012537
:1053E0000225A92600F062FB804600F05FFBA0EBDF
:1053F0000800B0F57A7F0FD300F058FBA0EB08004F
:10540000B0F57A7F84D24FF400711020FFF7F2FEDE
:1054100000287FF47DAF7CE700213046FFF7EAFEED
:105420000028E2D1E8E79DF80E3080099B0240EAAF
:10543000810103F440630B4352009DF8121002F007
:10544000060242EAD1120232013393409DF80D2048
:1054500002F00F0293405B0A83E700BFE40E0020D6
:10546000E00E0020000C01405006002038B51D4B16
:105470000D461B78144663B15AB11B0758BF400252
:10548000012A014614D11120FFF7B4FE28B1FFF71D
:105490008FFE4FF0FF34204638BD4FF40071284690
:1054A000FFF722FE04460028F1D1FFF781FEF2E764
:1054B0001220FFF79FFE0028E9D14FF40071284623
:1054C000FFF712FE18B9013C05F50075F5D1002172
:1054D0000C20FFF78FFEFFF76BFE003C18BF012486
:1054E0006442D8E7E40E002070B5214B06461B78D5
:1054F0000D46144663B15AB11A0758BF4602012C33
:1055000014D131461820FFF775FE28B1FFF750FE81
:105510004FF0FF34204670BDFE212846FFF721FEE4
:1055200004460028F2D1FFF743FEF3E75B0703D5FB
:1055300021469720FFF75EFE31461920FFF75AFEFD
:105540000028E3D1FC212846FFF70BFE18B9013CE7
:1055500005F50075F6D1FD20FFF7AEFDFFF7EDFD77
:10556000FFF726FE003C18BF01246442D2E700BFCB
:10557000E40E002010B530B30A218278C378303AA7
:10558000303B01FB023304794279303C303A01FB75
:105590000422C3EB431384791344C279303C303A7C
:1055A00001FB0422182404FB0323027A407A303AD8
:1055B000303801FB02000522B0FBF2F00C2202FBA6
:1055C0000300C0F30A0010BD70B5ADF5007D0D46B7
:1055D0000646FFF7CFFF0122694600F58060FFF71E
:1055E00045FF0446B0B99DF80030A52B0ED10A2224
:1055F00031460DF10100FCF741FB38B94FF48472DC
:1056000028460DF10B01FCF7F7F9012420460DF5B2
:10561000007D70BD0024F9E770B50646ADF5007D4C
:1056200008460C46FFF7A6FF4FF400720546FF211F
:105630006846FCF7CFF8A5238DF800302368314683
:10564000CDF8013063684FF48472CDF805302389BA
:105650000DF10B00ADF80930FCF7CEF901226946D7
:1056600005F58060FFF740FF0DF5007D70BD00007F
:10567000002310B50F4C237000F0CCF818B9237834
:1056800043F001032370FFF701FE28B9FDF70CFD7D
:10569000237843F002032370074A2078138820B947
:1056A0009BB243F00103138010BD23F001031B04E0
:1056B0001B0CF8E7E50E00201E06002070B50D4615
:1056C000044678B171B1084E3378DA0701D500F09D
:1056D0005DF933789B0705D529462046BDE8704023
:1056E000FFF79ABF70BD00BFE50E002070B50D46F4
:1056F000044608B9002070BD0029FBD00A4E33785B
:105700009A070AD43378DB07F4D52946204600F0FF
:1057100071F9003818BF0120EDE7FFF755FF0028A9
:10572000F0D00120E7E700BFE50E002000221021A5
:10573000014800F0EBBD00BF00080140012210212C
:10574000014800F0E3BD00BF000801407FB5002321
:105750008DF817304FF0FF338DF80F0000930DF1E7
:10576000170201230DF10F01034801F064FA9DF8BF
:10577000170007B05DF804FBA806002010B504462A
:1057800020B3FBF7D1FF092820D90A2122796379B8
:10579000303A303B01FB0233E079A2793038303ABD
:1057A00001FB02000C2250434FF4907202FB0300F5
:1057B000227A637A303A303B01FB02330522B3FB95
:1057C000F2F3184400F07F00000310BD0020FCE756
:1057D00010B5FFF7ABFF0520FFF7B8FFFF20FFF77D
:1057E000B5FF0446FFF7AAFF204610BD38B500F00C
:1057F0005DF941F288350446FFF7EAFFC30700D49C
:1058000038BD00F053F9001BA842F9D8012000F080
:1058100053F9F1E770B5FFF791FFFFF787FFAB2072
:10582000FFF794FFFFF78AFF032000F045F9FFF729
:105830007DFF9F20FFF78AFFFF20FFF787FF0646C7
:10584000FF20FFF783FF0546FF20FFF77FFF044699
:10585000FFF774FFEF2E07D1402D05D1B4F11400EE
:1058600018BF4FF0FF3070BD4FF0FF30FBE7000076
:10587000032373B58DF80430030C40BA0C4615466B
:105880008DF80530ADF80600FFF750FF04220C4EEE
:105890000DEB02014FF0FF33304601F01CF92A46B0
:1058A000FF212046FBF796FF4FF0FF332A462146A3
:1058B000304601F0BCFAFFF741FF02B070BD00BFF7
:1058C000A8060020531EFF2B73B504460E4615464E
:1058D00029D8FFF72BFF0620FFF738FFFFF72EFF31
:1058E000FFF784FF02238DF80430230C64BA8DF88F
:1058F0000530ADF80640FFF719FF04224FF0FF33E3
:105900000DEB0201094801F0E6F84FF0FF332A469B
:105910003146064801F0DFF8FFF710FFFFF766FF9A
:10592000002002B070BD4FF0FF30FAE7A80600205B
:1059300013B50446FFF7FAFE0620FFF707FFFFF74F
:10594000FDFEFFF753FF24F47F63240C20228DF823
:105950000540002423F00F031B0A8DF804208DF866
:1059600006308DF80740FFF7E1FE04224FF0FF33C9
:105970000DEB0201044801F0AEF8FFF7DFFEFFF780
:1059800035FF204602B010BDA806002070B50C46B9
:105990000646C6B060B359B30846FFF7EFFE4FF4B2
:1059A0008C720546FF216846FBF714FFA5238DF88E
:1059B000003023684FF48472CDF8013063683146BB
:1059C000CDF8053023890DF10B00ADF80930FCF757
:1059D00013F82846FFF7ACFF4FF48072694628465B
:1059E000FFF770FF182240A905F58070FFF76AFFE6
:1059F00046B070BD30B50C460546C7B010B90020A2
:105A000047B030BD0029FAD0FFF7B8FE4FF48C72D2
:105A10006946FFF72DFF9DF80030A52BEFD10A2234
:105A200029460DF10100FCF729F90028E7D14FF4D0
:105A3000847220460DF10B01FBF7DEFF0120DFE74A
:105A400038B50E4B05461A784FF47A73B3FBF2F370
:105A50000B4A1068B0FBF3F000F06AFB044658B93B
:105A60000F2D09D8024629464FF0FF3000F022FBE7
:105A70002046044B1D6038BD0120FCE7700000206B
:105A80007800002074000020074A08B5136803203E
:105A900043F01003136000F0FBFA0020FFF7D0FF83
:105AA000FDF70EFB002008BD00200240014B1868E6
:105AB000704700BFE80E002038B50446FFF7F6FF38
:105AC0000546631C1EBF044B1B78E418FFF7EEFF6E
:105AD000431BA342FAD338BD70000020704700007A
