:020000040800F2
:100000000050002061A5000835450008374500086C
:10001000394500083B4500083D4500080000000048
:100020000000000000000000000000003F45000844
:100030004145000800000000434500084545000810
:10004000A9A50008A9A50008A9A50008A9A5000858
:10005000A9A50008A9A50008A9A50008A9A5000848
:10006000A9A50008A9A50008A9A50008A9A5000838
:10007000A9A50008A9A50008A9A50008A9A5000828
:10008000A9A50008A9A50008A9A50008A9A5000818
:10009000A9A50008A9A50008A9A50008A9A5000808
:1000A000A9A50008A9A50008A9A50008A9A50008F8
:1000B0004D450008A9A500085D450008A9A5000850
:1000C000A9A50008A9A50008A9A50008A9A50008D8
:1000D000A9A50008A9A50008A9A500086D45000864
:1000E000A9A50008A9A50008A9A50008000000000E
:1000F0000000000000000000000000000000000000
:0C01000000000000000000005FF808F1A3
:100110000348044B834202D0034B03B11847704796
:100120008800002088000020000000000548064BE1
:100130001B1AD90F01EBA301491002D0034B03B1E5
:100140001847704788000020880000200000000049
:1001500010B5064C237843B9FFF7DAFF044B13B10F
:100160000448AFF300800123237010BD88000020F5
:1001700000000000ACA5000808B5044B1BB1044901
:100180000448AFF30080BDE80840CFE7000000005E
:100190008C000020ACA5000801292DE9F0415AD9B6
:1001A00001274FF0000E4FF0FF34BC463B4607E0FE
:1001B0009E464FF0010C1F1B0EEB0C0399420ED90B
:1001C000051915F80C50C65CAE42F1D333D00127A7
:1001D000BC467446BE440EEB0C039942F0D84FF077
:1001E00001084FF0000E4FF0FF35C446434617603C
:1001F00008E09E464FF0010CA3EB05080EEB0C0344
:1002000099420FD9461916F80C60C75CB742F0D86E
:1002100019D04FF00108C4467546C6440EEB0C03D6
:100220009942EFD80135601C854202D32846C2F8B6
:100230000080BDE8F081BC450ABFE6440CF1010C2A
:100240004FF0010CB8E7C4450ABFE6440CF1010CBD
:100250004FF0010CD2E74FF001080025E6E700BFA0
:100260002DE9F04F174687B005AA804689463846E3
:1002700019461C46FFF790FF8246059B38465246BA
:10028000F918029300F0E0FE00285FD1064605460B
:1002900044F400630193029BA9EB0401E31A039366
:1002A000CAF1010BA9421BD35645334638BF53460A
:1002B0009C4223D9581EEA183844424402E00133D4
:1002C0009C421BD012F801CB10F801EFE645F6D0A6
:1002D0009C4213D95D441D44A9424FF00006E3D26D
:1002E000019908EB090000F0DDFE8144A9EB04014F
:1002F000A942D9D2002007B0BDE8F08F56450AF1D7
:10030000FF3370D205EB0A02424407EB0A00009566
:1003100002E09E4211D0734610F801CD12F8015D43
:1003200003F1FF3EAC45F4D0009D013301369E42FF
:1003300007D8029B039E1D44B4E701369E42009DF0
:10034000F7D908EB050007B0BDE8F08FA4EB0A036E
:10035000534538BF53460025013344F40062A9EBEE
:10036000040100920AF1FF36CAF1010B01930593D3
:10037000A94216D3544520D905EB0A0253464244FC
:10038000B81902E001339C4217D012F801CB10F8E3
:1003900001EFE645F6D09C420FD95D441D44A942C9
:1003A000E8D2009908EB090000F07CFE8144A9EB3B
:1003B0000401A9429ED35445DED8BAF1000FC0D043
:1003C00005EB0A00404407EB0A0202E0013BBB4296
:1003D000B7D0134610F801CD12F801EDE645F5D07F
:1003E000019B1D44C4E75346A0E700BF2DE9F04F31
:1003F0009346ADF21C4D05AA80468A4658461946DA
:100400001C46FFF7C9FE814613460DF2144243F81D
:10041000044F9342FBD16CB1601E58440BF1FF3284
:1004200006AD12F8011FA31A013B5B44824245F856
:100430002130F6D1059B4A4658460BEB0301019348
:1004400000F002FE002879D10746054644F4006317
:10045000AAEB040E0293661EAE4512D308EB050C00
:100460001CF8063006AA52F82330CBB127B1019A06
:100470009A4284BF1346E31A1D44AE454FF000076D
:10048000ECD208EB0A00029900F00CFE8244AAEBC1
:10049000040EAE45E2D200200DF21C4DBDE8F08FF7
:1004A0004F453B4638BF4B469E4218D9591EEA1865
:1004B00059444244009502E001339E420ED012F8A6
:1004C000010B11F8015F8542F6D09E42009D06D9CE
:1004D000C9F101022A440027D518BDE7009D4F4508
:1004E00009F1FF3380F0828005EB090242440BEBF7
:1004F00009010095CDF80C9002E09F4213D04B46C5
:1005000011F8015D12F8010D03F1FF398542F4D0B5
:10051000009DDDF80C90013301379F4209D8019B03
:100520001D44E71A98E701379F42009DDDF80C90C3
:10053000F5D960460DF21C4DBDE8F08FA4EB090320
:100540004B4538BF4B460025013344F40062AAEB0B
:10055000040E0092661E01930593AE4509D308EB85
:100560000500835D06AA52F823306BB11D44AE45E9
:10057000F5D208EB0A00009900F094FD8244AAEB42
:10058000040EAE45EBD286E7B14517D209F1FF3133
:1005900005EB09024B465944424402E00133B342A1
:1005A0000CD012F8017B11F801CFBC45F6D09E4269
:1005B00004D9C9F101022A44D518CEE7B9F1000FD8
:1005C0003FF46AAF05EB090141440BEB090203E07C
:1005D000013B5B453FF460AF134611F8017D12F813
:1005E00001CDBC45F4D0019B1D44C0E74B4693E7C9
:1005F0002DE9F0410D460978044690B0002954D009
:100600006A78002A00F08280AB78002B51D0E8781D
:100610002E68002800F081802B79002B56D02846C8
:1006200000F004F90646204646F4007100F03AFD59
:1006300086425AD8FE2E00F28880801B271840225E
:100640006846711C00F0A0F97EB16A1E5FFA86FC54
:10065000901912F8013F03F03F034033A91A6B448D
:100660006144904203F8401CF3D1013CA35D03F0C8
:100670003F0340336B4413F8403C1C44A74203D271
:1006800038E04444A74235D314F806C032460CF093
:100690003F0C0CF140030DEB030C294620461CF8DF
:1006A000408C00F0D1FC0028EBD1204610B0BDE812
:1006B000F081007842EA0142B8B140EA03439A422D
:1006C000214614F8010FF7D14C1EEEE7227862B1F3
:1006D00031BA01E08B421ED0204642EA032314F8CF
:1006E000012F002AF6D18B4215D00024204610B0ED
:1006F000BDE8F081BB5DB819002BF6D04FF4006166
:1007000000F0D0FC0744A742AFD2EEE710B0BDE83E
:10071000F04100F023B8C41EC7E7120442EA0162A8
:10072000217842EA03230029DFD0024601E00029B4
:10073000DBD041EA0200B3EB002F25464FEA00224E
:1007400014F8011FF3D1AC1EAFE7014633462A4629
:10075000204610B0BDE8F04148E600BF11F0FF01AF
:10076000034600F0030239D08ABB026810B501EBE2
:10077000012E0EEB0E4E8EEA0204A2F1013323EAA3
:100780000203A4F1013222EA0402134313F0803F72
:100790000FD150F8044F84EA0E0CA4F10133ACF1F0
:1007A000013223EA040322EA0C02134313F0803FD0
:1007B000EFD0037823B936E010F8013F002B32D098
:1007C0009942F9D110BD8A4228D09A0729D01A78C7
:1007D00018460133002AF6D110467047CAB902689C
:1007E000A2F1013323EA020313F0803F08D150F84D
:1007F000042FA2F1013323EA020313F0803FF6D065
:1008000003785BB110F8013F002BFBD170479907CB
:1008100005D0184613F8012B002AF8D17047184666
:10082000DDE71846A1E7184610BD00BF20F0030120
:1008300010F00300C0F1000051F8043B00F1040C7B
:100840004FEACC0C6FF000021CBF22FA0CF21343EB
:100850004FF0010C4CEA0C2C4CEA0C4CA3EB0C02B4
:1008600022EA030212EACC1204BF51F8043B04301E
:10087000F4D0C2F1000102EA0102B2FA82F2C2F13E
:100880001F0200EBD200704770B50F4B0F4DAB420B
:10089000A3EB050607D00024B61055F8043B01343D
:1008A0009847A642F9D809F081FE094D094B5E1B15
:1008B000AB424FEAA60606D0002455F8043B0134AB
:1008C0009847A642F9D870BDD0B00008D0B0000853
:1008D000D0B00008D4B000080EB44FF40172F0B5E7
:1008E00000269CB021AD55F8047BADF814201B9672
:1008F00002900690FFF79AFF4FF6FF7204460A4BEC
:100900000A49ADF816200B933A462B46086802A90F
:100910000F96149601950394079400F079FE1CB08D
:10092000BDE8F04003B07047ED1000080000002063
:100930000CB44FF401732DE9F04100269CB022ADB8
:100940000746084655F8048BADF81430029106911D
:100950001B96FFF76BFF4FF6FF7304460949ADF88E
:1009600016300B91424638462B4602A90F96149634
:1009700001950394079400F04BFE1CB0BDE8F041D4
:1009800002B07047ED10000870B5860747D0541EBE
:10099000002A3ED00346CAB201E0013C39D303F835
:1009A000012B9D07F9D1032C2CD9CDB205EB0525E0
:1009B0000F2C1A4605EB054534D9A4F1100C2CF088
:1009C0000F0603F1100EB6444FEA1C1CC2E9005595
:1009D000C2E9025510327245F8D10CF1010214F04F
:1009E0000C0F03EB021204F00F0C13D0ACF1040354
:1009F00023F003030433134442F8045B9342FBD116
:100A00000CF003042CB1C9B21C4403F8011BA3422F
:100A1000FBD170BD64461346002CF4D1F9E70346C0
:100A20001446C0E7A446E1E7242B2DE9F84F42D84D
:100A3000012B40D01F468E468046484875461EF81A
:100A400001BB10F80B4014F00804F7D1BBF12D0FD7
:100A50006FD06FF00049BBF12B0F04BF9EF800B0C0
:100A600005F1020E7BBBBBF1300F4CD00A273B4691
:100A70000025B9FBF7F6284607FB169A05E03BD0A0
:100A8000012507FB00C01EF801BBABF1300CBCF127
:100A9000090F06D9ABF1410CBCF1190F1AD8ABF113
:100AA000370C63451FDDB5F1FF3FECD08642E6D23F
:100AB0004FF0FF35E7E701F0D9FA16220346002090
:100AC0001A60BDE8F88F102BD2D1BBF1300F23D0C4
:100AD0001F46CDE7ABF1610CBCF1190F03D8ABF1A8
:100AE000570C6345DFDC6B1C2BD054B9002AE8D0CF
:100AF00085BB1160BDE8F88FE245C1DA4FF0FF35E4
:100B0000C1E74042F2E79EF8003003F0DF03582BC4
:100B100008D008273B46ABE79EF8000000F0DF0056
:100B20005828D5D110279EF801B03B460EF1020E91
:100B30009EE79EF800B04FF00049012405F1020E37
:100B400090E72223C8F8003032B10EF1FF31484659
:100B50001160CFE78146F8E74846B2E7C5A500082F
:100B600062E700BF8C4600B586461346034A7146CD
:100B700010685DF804EB624656E700BF00000020F5
:100B80008C4600B586461346034A714610685DF8E8
:100B900004EB624648E700BF00000020844641EABB
:100BA000000313F0030349D1403A23D30B680360D9
:100BB0004B6843608B688360CB68C3600B690361DB
:100BC0004B6943618B698361CB69C3610B6A0362C3
:100BD0004B6A43628B6A8362CB6AC3620B6B0363AB
:100BE0004B6B43638B6B8363CB6BC3634030403190
:100BF000403ADBD230320BD30B6803604B68436062
:100C00008B688360CB68C36010301031103AF3D228
:100C10000C3205D351F8043B40F8043B043AF9D2B6
:100C2000043208D0D2071CBF11F8013B00F8013B89
:100C300001D30B8803806046704700BF082A13D396
:100C40008B07B1D010F00303AED0C3F10403D21A66
:100C5000DB071CBF11F8013B00F8013BA4D331F8BE
:100C6000023B20F8023B9FE7043AD9D3013A11F83E
:100C7000013B00F8013BF9D20B7803704B784370CD
:100C80008B7883706046704740EA01039B0710B57C
:100C900024D1032A22D98E468446DEF800407146CC
:100CA000A4F1013323EA040313F0803F0EF1040E94
:100CB00015D1043A032A4CF8044BEED8714601F1E1
:100CC000FF3E52B163461EF8011F541E03F8011B7C
:100CD00041B122469C46002AF4D110BD844601F160
:100CE000FF3EEEE79444002CF7D003F8011B634568
:100CF000FBD110BD002A3ED0844630B504460843DF
:100D000080070B462ED1032A07D82BE0043A25D0C2
:100D10001EF0803F22D1032A22D919462068A4461A
:100D2000A0F1013323EA000E0B4653F8045B0434B0
:100D3000A842EBD09CF800000C7884421DD1E64616
:100D400068B11EF8010F11F8014FA2EB0E03A0428B
:100D500003F1FF3311D11CEB0303F1D1002030BDAF
:100D6000A44619469CF800000C78A04205D1012A3F
:100D7000F4D0E646E4E710467047001B30BD00BFE4
:100D800080EA010C1CF0030F37D110F0030C20F0A7
:100D9000030021F0030150F8042B08BF51F8043B75
:100DA0000ED08CF0030C6FF07F434FEACC0C23FA8B
:100DB0000CFC51F8043B42EA0C0243EA0C0300BF6E
:100DC000A2F1013C9A4201BF2CEA020C1CF0803FC8
:100DD00050F8042B51F8043BF2D04FEA02604FEA7E
:100DE0001222012828BFB0EB036F08BF1B0AF4D002
:100DF00003F0FF03000EC01A704710F0030F0AD073
:100E000010F8012B11F8013B012A28BF9A42F4D0B7
:100E1000A2EB030070474DF8045D50F8042B01F07D
:100E2000030521F0030151F8043B022D26D04DD8D3
:100E300022F07F45B5EB132FA2F1013C2CEA020C06
:100E40000DD11CF0803C08BF51F8043B0AD185EA63
:100E50000205B5EB036F0CD150F8042BE8E74FEA1D
:100E600013235BE03CF07F4C54D10B784FEA1265C2
:100E700054E04FEA126503F0FF034FE04FEA0245EA
:100E8000A2F1013C4FEA15452CEA020CB5EB134FD9
:100E900018D11CF0803C08BF51F8043B07D185EA0B
:100EA0000205B5EB034F09D150F8042BE6E75FEAE2
:100EB0000C4C2FD10B884FEA12452FE04FEA034329
:100EC0004FEA12454FEA134328E000BF02F0FF0546
:100ED000B5EB136FA2F1013C2CEA020C0DD11CF012
:100EE000803C08BF51F8043B0AD185EA0205B5EB06
:100EF000032F0AD150F8042BE8E74FEA13630DE003
:100F000012F0FF0F06D051F8043B4FEA122523F0F0
:100F10007F4303E04FF0000020BC704705F0FF0264
:100F200003F0FF00012828BF904204BF2D0A1B0ACE
:100F3000F4D0A2EB000020BC704700BF08B410B58D
:100F4000002A04469DB034DB4FF4027C4FF00003CE
:100F5000ADF814C01B934FF6FF7C0291069120ABB5
:100F600015D0013A0492079202A91F9A0193ADF895
:100F700016C000F0DBF9421C01DA8B23236000224B
:100F8000029B1A701DB0BDE8104001B0704704927A
:100F9000079202A91F9A0193ADF816C000F0C6F996
:100FA000431C01DA8B2323601DB0BDE8104001B063
:100FB00070478B234FF0FF302360F5E70CB410B57A
:100FC000204B00291C689CB036DB4FF000034FF427
:100FD00002721B934FF6FF7C02900690ADF814202E
:100FE0001FAB16D001391E9A04910791204602A921
:100FF0000193ADF816C000F099F9421C01DA8B2379
:1010000023600022029B1A701CB0BDE8104002B0A1
:1010100070470491079120461E9A02A90193ADF8EA
:1010200016C000F083F9431C01DA8B2323601CB047
:10103000BDE8104002B070478B234FF0FF302360B3
:10104000F5E700BF00000020032A30B415D941EABB
:101050000004A40784460B4604D0541E0FE0043A53
:10106000032A08D91946604653F8044B5CF8045B20
:10107000A542F4D0F1E760461946541E7AB1431EEA
:101080000139021901E09A4209D013F8010F11F851
:1010900001CF6045F7D0A0EB0C0030BC70470020BA
:1010A00030BC704771B1034600EB010C01E06345B1
:1010B00006D01A46117801330029F8D1101A70476A
:1010C000181A70470846704710B50C46B1F90E1053
:1010D00001F076F9002803DB636D0344636510BDFE
:1010E000A38923F48053A38110BD00BF0020704763
:1010F0002DE9F0410C46B1F90C101F46CB05054611
:1011000016460BD421F48051A1813B463246284635
:10111000B4F90E10BDE8F04101F0C6BCB4F90E10F0
:101120000223002201F0BAFBB4F90C10EAE700BF79
:1011300010B50C46B1F90E1001F0B0FBB4F90C304B
:10114000421C0EBF23F4805343F480536065A38197
:1011500010BD00BFB1F90E1000F0AABE2DE9F04796
:101160001D468F680C46AF4216460B6836D8B1F95B
:101170000CC01CF4906F0ED13D46184631462A46ED
:1011800001F07EF80020A368DF1B2368A7602B44D2
:101190002360BDE8F0874A69096902EB42025F1AE1
:1011A00002EBD2726B1C52103B44934292BF9146A9
:1011B00099461A461CF4806F804611D0114600F003
:1011C00081FF824600B33A462169FFF7E7FCA38915
:1011D00023F4906343F08003A38105E02F46CCE71E
:1011E00001F004F9824658B10AEB0703A9EB07079F
:1011F000A760C4F810A02F46C4F814902360BCE781
:101200004046216900F0DEFF0C22A3894FF0FF3039
:1012100043F04003C8F80020A381BAE72DE9F04F5E
:10122000936883B0924617680190002B76D04FF0F8
:10123000000B0C465D468B680A6848E0B4F90CC0A8
:101240001CF4906F2FD0D4E90403A2EB000803EB49
:10125000430202EBD27208F101015210294491427B
:1012600092BF914689460A461CF4806F39D01146D8
:10127000019800F027FF064600283DD0424621692C
:10128000FFF78CFCA28922F4906242F08002A281D6
:1012900006EB0800A9EB08022661A8462E46A260CC
:1012A0002060C4F814903246594600F0E9FFDAF89D
:1012B0000810A3682268A3EB08033244491BA3600B
:1012C0002260CAF8081049B3D7E900B50837984634
:1012D0001046002DF8D09D421E46AFD2A8462E469D
:1012E000E1E70146019801F081F806460028CFD1D8
:1012F0000198216900F066FF0C21A389019D43F04C
:10130000400329600022A3814FF0FF300023CAF878
:101310000820CAF8043003B0BDE8F08F0020002395
:10132000CAF8043003B0BDE8F08F00BF2DE9F04FDC
:101330001C468B8989461D06824693469DB003D57F
:101340000B69002B00F0EE80002343F2200209938A
:101350009BF8003001277C4E0394ADF82920002B28
:1013600071D05D4603E015F8013F002B73D0252BAB
:10137000F9D1B5EB0B0471D12A78002A63D0002390
:101380004FF0FF320135CDE90523049307938DF823
:1013900053301A9306E02546049B801B07FA00F0A1
:1013A000034304932C46052214F8011B304601F038
:1013B0002FFBA3460028EED1049BD90644BF202270
:1013C0008DF853201A0748BF2B22297848BF8DF883
:1013D00053202A294FD1039A11680432002903921D
:1013E0007BDB079169782E295BD0584C032220467D
:1013F00001F00EFB38B14022049B001B82401343D6
:101400000BF1010B04931BF8011B062250488DF8C9
:10141000281001F0FDFA002865D04E4B002B55D066
:1014200003A900914A4650464B4B04A9AFF30080F4
:101430008046B8F1FF3F06D0099B434409939BF8CF
:101440000030002B8DD1B9F80C305B0679D40998A7
:101450001DB0BDE8F08FB5EB0B04F4D023465A461F
:1014600049465046FFF77AFE0130ECD0099B2A78B6
:101470002344099381E7A1F13002092A88BFAB46D2
:10148000B1D8079B00E00134217803EB830302EB22
:101490004303A1F13002092AF5D92E29A346079367
:1014A000A3D19BF801102A2927D1039B0BF102003D
:1014B0001A680433002A0393B8BF4FF0FF339BF838
:1014C000021005928346B8BF05938EE7039B07334E
:1014D00023F0070308330393AEE7494243F00203C6
:1014E000079104937EE703A900914A4650461A4BA0
:1014F00004A901F03FF880469BE70023A1F13002E8
:10150000092A0BF1010B05933FF66FAF1BF8011F82
:1015100003EB830302EB4303A1F13002092AF5D95F
:10152000059362E7402100F0CDFDC9F80000C9F83D
:10153000100018B14023C9F8143005E70C23CAF88D
:1015400000304FF0FF3083E72CB0000834B00008C3
:1015500038B00008000000005D1100084B1C70B599
:101560001AD014469389526823F02003A381636B39
:10157000CDB2A3B1A36B934209DD23685A1E22604A
:1015800003F8015C636801336360284670BD21463F
:1015900001F09AF90028F0D04FF0FF35F5E7236904
:1015A00021682BB18B4203D211F8013CAB420ED023
:1015B00023460320C4E90F12012204F14406A0636C
:1015C000666303F8465F2846C4E9003270BD0139FE
:1015D0000132C4E90012D8E710B50C46496B69B175
:1015E00004F14403994201D000F0ECFD0020236C8B
:1015F0006063636013B1E36B236010BD0021A289B7
:101600004FF0FF3042F020022369A2816160F3E7CE
:101610002DE9F04792460025884AADF5247DA19238
:101620009AF80090864A0DF108084595A2924695D1
:10163000CDF81C810193B9F1000F13D0814E0746FC
:1016400016F809300C4613F008030AF101052ED1F3
:10165000B9F1250F44D06368002B08DD23681A78A0
:101660004A450FD045980DF5247DBDE8F087214609
:101670003846A29B9847002840F0098123681A78D1
:101680004A45EFD1AA46013323606368013B63609A
:10169000469B013346939AF80090B9F1000FE1D0D0
:1016A00016F809300AF1010513F00803D0D062687A
:1016B0000CE023681A780133B25C11070ED562681A
:1016C0004699013AC4E9003201314691002AF0DC22
:1016D00021463846A29B98470028EAD0AA46DAE776
:1016E000449342939AF801102A2905D1102342937A
:1016F0009AF802100AF10205A1F13003092B0DD866
:10170000002303EB830301EB4301A1F13003449376
:1017100015F8011FA1F13002092AF2D9DFF828A13A
:101720000322504601F074F938B10123429AA0EB2C
:101730000A008340134301354293AA461AF8013B3D
:10174000782B00F28380DFE813F0A800810081008D
:101750008100810081008100810081008100810081
:101760008100810081008100810081008100810071
:101770008100810081008100810081008100810061
:101780008100810081008100810081008100810051
:1017900081008100110181008100810081008100B0
:1017A0008100810081008100810081008100810031
:1017B0008100810081008100810081008100810021
:1017C0008100810081008100810081008100810011
:1017D00081008100C600C600C60081008100810032
:1017E00081008100810081008100810081008100F1
:1017F00081008100810081008100C9008100810099
:10180000FB00810081008100810081008100810056
:101810000701DD00C600C600C60081000E01810080
:10182000810081008100DF00EE00F2008100810074
:10183000F9008100DD0081008100C9005D1500080C
:10184000D9150008C5A5000834B000080323489343
:101850000A2343936368002B4DDD429B580625D530
:10186000489B022B40F38480042B40F38880474B35
:10187000002B3FF410AF2246384601AB42A9AFF32C
:10188000008001283FF4EEAE02287FF404AF4598B3
:1018900018B1A3895B067FF5E6AE4FF0FF30E2E6B4
:1018A00021463846A29B98470028F0D12268137839
:1018B000F35C1907D4D563684699013B0131002BCD
:1018C0004691636002F10102EADD22601378F35C65
:1018D0001907C5D5EFE705234893BBE7429A42F4C1
:1018E0000072429210226E2B43921ED8032348931B
:1018F0006368002BB1DC21463846A29B984700283C
:10190000ABD0C4E70A22EEE7429BDA063FF5C3AE4E
:10191000019ADB0702F104000190469913684CBF5D
:1019200019801960B7E6082343930423DFE71023E7
:101930004393429B43F408734293F6E70223D6E7AE
:101940005146404600F058FF01234893429B82468F
:1019500043F0400342937DE700234893429B43F0CA
:101960004003429376E700234393BFE7554672E670
:101970002246384601AB42A900F00AF881E7224628
:10198000384601AB42A900F069F87AE70000000090
:101990002DE9F84314468A6807460D4688692AB936
:1019A000002814BF4FF0FF3201228A602A68D20655
:1019B00003D41A68111D196016684FF00009DFF88A
:1019C000988000B3012837D002283BD123681A78C9
:1019D00018F80220120735D42A6809F10109D10646
:1019E00003D41B7806F8013B23686168AA680139B3
:1019F0000133013AC4E90031AA606AB1002904DD6B
:101A0000A8690028DED12368E6E721463846D5F8E4
:101A1000803198470028F3D02B6813F0100305D1CC
:101A2000EA680132EA60AA6902B1337000202B69CA
:101A30004B442B61BDE8F88323686A691978525CCE
:101A4000002AC9D1B9F1000FE6D10128F2D02B68E4
:101A500013F01003EAD1E3E7C5A500082DE9F04F24
:101A60000C4687B0854D0DF10C0A0746164695E8E1
:101A70000700DFF80CE28AE80700DFF808C2A26975
:101A80000093032A08BFE646A368CDF804E05A1E77
:101A9000B2F5AE7F40F2AB806FF4AE7003EB00099D
:101AA00040F25D13A360A04658F81C2B4FF0000BCA
:101AB000454642F450622260336802221978DAF80F
:101AC000000000F0A5FF50B3BBF1010F0CD0BBF13B
:101AD000020F00F0AD80A3685A1EA260A3B94FF0B8
:101AE000010B0AF1040AE7E7D4E900321AB9082227
:101AF00043F40073626023F4A0632360A3685A1E5A
:101B0000A260002B00F0848033685A1C32601B787E
:101B100005F8013B7368013B002B73606EDD0BF130
:101B2000010BBBF1030FDCD16168002962D0C1F168
:101B30001001554B6069194400F05EFEA368002B4C
:101B400063D04FF0000A06E0336801333360A368C6
:101B5000013BA360E3B1326860691178D4F800C03A
:101B6000405C2CF4106E002875D0302953D0C4F896
:101B700000E0137805F8013B7368013B002B7360AC
:101B8000E2DC31463846D4F8803198470028DED070
:101B90002268D1050CD5454507D915F8011C3246F8
:101BA0003846D4F87C31013D9847454564D02268D9
:101BB00012F0100211D12A70636838464146019E26
:101BC000B04723689A0648D500990B681A1D0A6029
:101BD0001B681860E3680133E36000202369A5EB0C
:101BE000080555442B44236107B0BDE8F08F4FF042
:101BF000000958E70A23062163609AE73146384610
:101C0000D4F880319847002889D04FF0000ABFE708
:101C10004FF0020B65E71CF4006FA8D001330AF106
:101C2000010AB9F1000FA7D0A36009F1FF39A3E7BA
:101C3000236803F4C062B2F5007F7FF475AF43F40C
:101C40008073236010236360A3685A1EA260002B78
:101C50003FF46AAF58E762469BE7009EDF073268B1
:101C600002F1040103D5316013681880B2E7009BCC
:101C7000196013681860ADE70120B5E7C8A6000831
:101C80003D2C0008610B000840B0000800207047A0
:101C9000024A0349034800F071BB00BF5000002016
:101CA000E91F0008040000200C4B416810B5994260
:101CB000044601D000F098F9A168094B994202D07E
:101CC000204600F091F9E168064B994204D0204685
:101CD000BDE8104000F088B910BD00BFA40000208E
:101CE0000C01002074010020002070472DE9F8430A
:101CF00000250423294C2A490822C4F8381104F18C
:101D00005C002946DFF89C90DFF89C80274F284E26
:101D1000C4E90335C4E90055C4E90555A560656605
:101D2000FEF732FE234B0822294604F1C400636704
:101D3000C4E90849C4E90A87C4E91A55C4E91E552B
:101D400026632567C4F8CC50C4F88050FEF71CFE0B
:101D5000194B2946C4F8DC30082204F1680304F565
:101D60009670C4F88830C4E92398C4E92576C4E99C
:101D70003455C4E93855C4F8D850C4F83451C4F8BF
:101D8000E850FEF701FE04F1D003C4E93D98C4E930
:101D90003F76C4F8F030BDE8F88300BFA40000200F
:101DA000911C0008C9100008F1100008311100084A
:101DB000551100080900010012000200F8B5254B7A
:101DC0000646D3F83831002B3CD0234FD7E90134F5
:101DD000013B04D51DE05A1C04F1680419D0B4F984
:101DE0000C50013B002DF6D11C4B08222946C4E9BA
:101DF0000155C4E90455E36065662560A56104F1F9
:101E00005C00FEF7C1FDC4E90D55C4E9125520463A
:101E1000F8BD3D680DB12F46D8E74FF4D671304676
:101E200000F050F9044680B1042305602946254698
:101E30000C304FF4D072A0606360FEF7A5FD3C60EB
:101E40002F46C3E7FFF752FFBFE70C23386033602C
:101E5000DDE700BFA4000020500000200100FFFFCC
:101E6000036A03B17047044B044AD3F83831026265
:101E7000002BF7D13AE700BFA4000020A91C0008FE
:101E8000704700BF704700BF0020024A024900F0BF
:101E900075BA00BF500000208D1C00080020024AC7
:101EA000024900F06BBA00BF50000020E91C000896
:101EB000002238B5064D044608462A6001F05AFE55
:101EC000431C00D038BD2B68002BFBD0236038BDED
:101ED000E8010020F8B5B1F90C300C461E070746A2
:101EE00039D44A68002A53DDE56A002D31D000223A
:101EF0003E683A6013F48052216A55D10123384676
:101F0000A847451C024663D0B4F90C30E56A216A43
:101F1000580705D56368D21A636B0BB1236CD21ACC
:101F200000233846A847421C40D000222369626043
:101F30002360A389DB0400D56065616B3E6041B11D
:101F400004F14403994202D0384600F03BF90023E3
:101F500063630020F8BD0E69002EFAD09B0718BFFE
:101F600000230D6808BF4B690E60AD1B8B600CE051
:101F70002B463246D4F828C03846216AE047B0F1F3
:101F8000000CA5EB0C05664406DD002DF0DCE0E757
:101F90000A6C002AA8DCDCE7B4F90C3043F04003FB
:101FA0004FF0FF30A381F8BD626DB1E73968B4F935
:101FB0000C301D29F2D80B4ACA40D507EED50022B5
:101FC000626022692260DA04B7D50029B4D0B4E790
:101FD0003B68002B98D01D2B01D0162BDCD13E6026
:101FE000B7E700BF010040200B69B3B110B504464C
:101FF00082B008B1036A5BB1B1F90C3013B90020AB
:1020000002B010BD204602B0BDE81040FFF762BF2D
:102010000191FFF725FF0199EEE70020704700BF0F
:10202000B8B138B50D4A0369044615682BB10DB136
:102030002B6A53B1B4F90C300BB9002038BD2146DE
:102040002846BDE83840FFF745BF2846FFF708FFA0
:10205000F0E7034A0349044800F090B9000000206B
:1020600050000020E91F000804000020014B186800
:10207000704700BF0000002070B5114E0546336860
:102080000C46BBB12146284600F024FD431C014606
:102090000CD0C41C24F00304A04205D02846611AC9
:1020A00000F018FD013001D0204670BD4FF0FF3424
:1020B000204670BD194600F00DFD3060E2E700BF1C
:1020C000E00100202DE9F843CD1C25F0030508357B
:1020D0000C2D38BF0C25002D064618DBA94216D85A
:1020E000DFF8DC8000F0D6FBD8F80420A2B114465B
:1020F00003E0636822467BB11C4623685B1BF8D46F
:102100000B2B1FD89442636854D053600CE00C230F
:1021100033600020BDE8F88329463046FFF7ACFF66
:10212000431C044619D00560304600F0B5FB04F1AD
:102130000B00231D20F00700C21A1CBF1B1AA3505E
:10214000BDE8F88361199442256014BF5160C8F856
:102150000410635163684B60E6E7D8F804701FB35E
:102160003C467F68002FFBD123683946304604EB9C
:10217000030900F0AFFC814516D123683046ED1A03
:102180002946FFF779FF01300ED02368D8F80420E4
:102190002B442360536883B1A34203D01A465B6883
:1021A0009C42FBD10023B0E70C233046336000F0A3
:1021B00073FBAEE7C8F80430B6E7C8F80470B3E7BD
:1021C000E0010020002950D038B551F8043C0C1F24
:1021D000002BB8BFE418054600F05CFB274A1368E3
:1021E0002BB1A3420CD92168601883422CD0284619
:1021F00063601460BDE8384000F04EBBA3420FD8C6
:102200001A465B68002BF9D111685018844217D028
:102210002CD3636054602846BDE8384000F03CBBD6
:1022200011685018A04214D020D821686018834249
:10223000EFD118685B680844C4E900035460EAE71A
:1022400023680B441360E6E718685B680844206065
:10225000CDE720680144501883421160DBD1D3E9F7
:1022600000040144C2E90014D5E770470C23284656
:102270002B60BDE8384000F00FBB00BFE401002038
:1022800088420ED98B1883420BD900EB020C002A2E
:102290006DD0624613F801CD994202F801CDF9D113
:1022A00070470F2A0FD8034602F1FF3C002A5ED088
:1022B0000CF1010C013B8C4411F8012B614503F832
:1022C000012FF9D1704740EA01039B0750D1A2F1D9
:1022D000100370B501F1200C23F00F0501F1100E71
:1022E00000F11004AC441B095EF8105C0EF1100EF6
:1022F00044F8105C5EF81C5C103444F81C5C5EF81A
:10230000185C44F8185C5EF8145CE64544F8145C0C
:10231000EAD1013312F00C0F01EB031102F00F04AC
:1023200000EB031328D08E46043C24F003064FEA4A
:10233000940C1E441C1F5EF8045B44F8045FB44216
:10234000F9D10CF1010402F0030203EB840301EB69
:10235000840102F1FF3C4AB10CF1010C013B8C44B9
:1023600011F8012B614503F8012FF9D170BD7047B9
:10237000034602F1FF3C9BE72246EAE72DE9F843DA
:102380004FF0000980460F461646D6E90154013D3C
:1023900010D4A389012B08D9B4F90E30013304D02D
:1023A00021464046B84749EA0009013D6B1C04F14B
:1023B0006804EED13668002EE7D14846BDE8F883C0
:1023C00038B50C46114600228446074D20462A6047
:1023D0001A46644601F0DEFB431C00D038BD2B6872
:1023E000002BFBD0236038BDE80100202DE9F0412F
:1023F000144641B30AB306460D4600F07DFB844205
:10240000074602D8B4EB500F13D821463046FFF7E9
:1024100059FE804650B1BC422246294628BF3A4662
:10242000FEF7BCFB29463046FFF7CCFE4046BDE830
:10243000F081A8464046BDE8F081A046FFF7C2FE05
:102440004046BDE8F0811146BDE8F041FFF73ABED5
:102450002DE9F84F92461F460A698B680C469A424E
:10246000B8BF1A46CAF8002091F843300646DDF896
:10247000289013B10132CAF80020226891065FD576
:10248000DAF800300233CAF80030226812F0060F82
:1024900011461DD1E1689942D8BF114618DD4FF0B1
:1024A000000804F1190B05E0E568DAF80030ED1AD0
:1024B00045450CDD01235A4639463046C8470130B0
:1024C00008F10108F0D14FF0FF30BDE8F88F216826
:1024D00094F84330003B18BF01238A060AD5302107
:1024E000E21882F8431094F845105A1C2244023333
:1024F00082F843103946304604F14302C8470130A0
:10250000E1D0D4E902202368DAF8005003F0060392
:10251000042B21691BD08A4220DD4FF00008521A9B
:10252000904400251A3401E0454517DA012322467C
:1025300039463046C847013005F10105F4D1C2E7FC
:1025400012F0060F0DD0003B18BF0123D2E7401B4D
:102550008A4220EAE078E2DC0028E2DC0020BDE8E4
:10256000F88FE168DAF800309942D8BF114696DC5E
:10257000AEE700BF2DE9F04717460A7E84B00C464F
:10258000064698460C9D01F1430C002A35D0A2F175
:102590005803D9B2202969D8202B67D8DFE813F077
:1025A000E60066006600660066006600660066007B
:1025B000660066006600AC0070006600660066009B
:1025C00066007000660066006600660021008300F9
:1025D000C60066006600B6006600830066006600FE
:1025E000EC002B682268181D6169286010061B68C2
:1025F00002D4520600F1E08019600023E146236115
:102600003B4621463046CDF8008003AAFFF720FF65
:10261000013020D04A46394630462369C047013050
:1026200019D02368E0689B07DDF80C9018D5484561
:1026300016DD002504F1190A04E0E068A0EB0903A7
:10264000AB420DDD0123524639463046C0470130CA
:1026500005F10105F1D14FF0FF3004B0BDE8F0877E
:102660004845B8BF484604B0BDE8F087012084F86B
:10267000422004F142090023206184F84330BFE77F
:102680002A682368111D1806296002D4590600F132
:1026900095801068014600286268C0F293804FF070
:1026A0000A0E534815E020682B6810F0800F53F88D
:1026B000041B02D1400648BF89B26F2A14BF4FF0F5
:1026C0000A0E4FF0080E4A482B600023626884F817
:1026D0004330002AA26051DB236823F00403236007
:1026E00000294BD1002A7BD1E146BEF1080F56D01C
:1026F000ACEB0903236183E72A68012011680432E7
:102700002A6004F1420984F84210B4E72B680021E2
:102710001A1D2A60D3F800906268484600F078F9E4
:10272000002863D0A0EB09006060A4E7236843F0B1
:102730002003236078222F4884F845202A6813F06C
:10274000800F52F8041B03D113F0400F18BF89B259
:102750002A60DA0744BF43F02003236019B92368D5
:1027600023F0200323604FF0100EAEE758232048DB
:1027700084F845302368E1E72368DBE77546E146E6
:10278000B1FBF5F30A4605FB131A194610F80A3097
:10279000AA4209F8013DF3D2BEF1080FA8D123687F
:1027A000DD07A5D5626823699A42A1DC302309F1CF
:1027B000FF3989F800309BE719801EE7B2F9001055
:1027C000084668E72D20002AA26084F8430002DB57
:1027D00023F0040323600A250548AE464942CEE7AC
:1027E000037804F1420984F842307EE7606842E7EA
:1027F00060B0000874B0000870B50D7804465E2D16
:1028000025D04FF0000EF446481C002223466EF3FC
:1028100007026EF30F226EF3174204F580716EF318
:102820001F6243F8042B8B42FBD175B18CF0010180
:10283000615500F1010E1EF8013C2D2B0FD05D2BD0
:102840000BD01BB11D467046F2E7013870BD4FF04A
:10285000010E4D78F446881CD7E7704670BD90F89D
:1028600001C0BCF15D0FEDD06545EBDC6E1C0230A4
:10287000A21902F8011B131B013B9C45F9DCACEBD0
:102880000503013B6545A8BF00230EF1020EF518B4
:10289000D1E700BF704700BF704700BF38B50C4696
:1028A000114600228446074D20462A601A46644697
:1028B00001F068F9431C00D038BD2B68002BFBD019
:1028C000236038BDE80100202DE9F0410C46496B3A
:1028D00004F14403994214D0A66B77003A46FFF7FF
:1028E00085FD054630B300EB0608014632464046FA
:1028F000FEF754F9C4E90D57C4F800800020BDE884
:10290000F0814FF48061FFF7DDFB98B14FF48061F7
:1029100094F846206063A16380F8FF2394F8452073
:1029200000F2FD3380F8FE2394F8442080F8FD2364
:102930002360E3E74FF0FF30E1E700BF70B54C1CC8
:102940002BD00E460546144610B1036A002B4CD01E
:10295000B4F90C3023F020025807A28106D4D9061E
:102960001BD51B0734D442F00402A281626B63685A
:10297000F6B2AAB1A26B9A4209DD23685A1E226000
:1029800003F8016C636801336360304670BD214613
:102990002846FFF799FF0028EFD04FF0FF36F4E705
:1029A000226921682AB18A4203D211F8012CB2426D
:1029B0001ED022460320C4E90F13012304F144056D
:1029C000A063656302F8466F3046C4E9002370BD1A
:1029D00021462846FFF708FB0028DED1B4F90C2079
:1029E000A06022F00802A061BDE7FFF739FAAFE767
:1029F00001390133C4E90013C7E700BF03460A46A3
:102A0000024908681946FFF799BF00BF000000207F
:102A10005FFA81FC810744D00346511E22B909E0C8
:102A20009A0709D0013905D3184602780133624567
:102A3000F6D1704700207047184603290CD80029AA
:102A4000F8D00346014401E08B42F3D0184613F856
:102A5000012B6245F8D1704710B50CEB0C240246EF
:102A600004EB044402E00439032915D9104652F856
:102A7000043B6340A3F1013E2EEA030313F0803FC1
:102A8000F1D00346014401E08B4208D0184613F808
:102A9000012B6245F8D110BD10460029F1D100206C
:102AA00010BD1146C9E700BF38B50C4611460022DB
:102AB0008446074D20462A601A46644601F080F895
:102AC000431C00D038BD2B68002BFBD0236038BDE1
:102AD000E8010020002238B5064D044608462A6069
:102AE00001F060F8431C00D038BD2B68002BFBD0F0
:102AF000236038BDE801002051F8043C181F002B6A
:102B0000BCBF0B58C01870472DE9F04707460E466A
:102B1000484C304616F801EB14F80EC01CF0080CB7
:102B2000F7D1BEF12D0F5AD0BEF12B0F09BF64466D
:102B3000644696F800E0861C4BB9BEF1300F5CD0BD
:102B40000A234FF0050A9946DFF8EC800AE0102BC3
:102B50004AD04FF0FF38B8FBF3F803FB08FA994668
:102B60006FEA0A0A0025284605E02CD0012509FB5A
:102B700000C016F801EBAEF1300CBCF1090F06D91C
:102B8000AEF1410CBCF1190F0BD8AEF1370C634517
:102B900010DDB5F1FF3FECD04045E6D94FF0FF35F1
:102BA000E7E7AEF1610CBCF1190F03D8AEF1570C99
:102BB0006345EEDC6B1C0BD004B140420AB165B931
:102BC0001160BDE8F087D445D0DD4FF0FF35D0E788
:102BD000222328463B60002AF3D0711EF0E796F8C6
:102BE00000E00124861CA7E7BEF1300F11D04FF0A2
:102BF0000F0A6FF070489946B4E7337803F0DF03AB
:102C0000582B0BD008234FF0070A6FF06048994605
:102C1000A8E7307800F0DF005828E8D14FF010091D
:102C200096F801E04FF00F0A6FF070484B460236FD
:102C300098E700BFC5A500089999991964E700BFF6
:102C40008C4600B586461346034A714610685DF807
:102C500004EB624658E700BF000000208C4600B538
:102C600086461346034A714610685DF804EB6246D7
:102C70004AE700BF00000020C1F30A5C2DE9F041E3
:102C8000ACF2FF35132D02460B460C46064632DCED
:102C9000002D20DBDFF8E0800F4648FA05F801EA56
:102CA000080C5CEA000C2BD031A3D3E9002300F020
:102CB0006DF80022002300F0AFFC40B1002C03DAD5
:102CC0004FF480132B411F44002627EA08042146B5
:102CD0003046BDE8F08126A3D3E9002300F056F882
:102CE0000022002300F098FC0028F0D0002C27DB05
:102CF00000263446EBE7332D06DDB5F5806F1CD09A
:102D000010461946BDE8F0814FF0FF37ACF2134C86
:102D100027FA0CF70742F3D015A3D3E9002300F0FC
:102D200035F80022002300F077FC0028CFD0002CDB
:102D300033460CDB23EA0706C9E700F027F8E1E792
:102D400024F0004426430DD14FF00044BFE7142D7A
:102D500006D00122C5F13405AA401344B342E9D29A
:102D60000134E7E70026054CB1E700BFAFF3008070
:102D70009C7500883CE4377EFFFF0F000000F0BF29
:102D800081F0004102E000BF83F0004330B54FEA1C
:102D900041044FEA430594EA050F08BF90EA020F89
:102DA0001FBF54EA000C55EA020C7FEA645C7FEA1C
:102DB000655C00F0E2804FEA5454D4EB5555B8BF3F
:102DC0006D420CDD2C4480EA020281EA030382EAB0
:102DD000000083EA010180EA020281EA0303362D42
:102DE00088BF30BD11F0004F4FEA01314FF4801C15
:102DF0004CEA113102D0404261EB410113F0004F27
:102E00004FEA03334CEA133302D0524263EB4303DD
:102E100094EA050F00F0A780A4F10104D5F1200E7B
:102E20000DDB02FA0EFC22FA05F2801841F10001D6
:102E300003FA0EF2801843FA05F359410EE0A5F1AA
:102E400020050EF1200E012A03FA0EFC28BF4CF0DB
:102E5000020C43FA05F3C01851EBE37101F0004591
:102E600007D54FF0000EDCF1000C7EEB00006EEB9E
:102E70000101B1F5801F1BD3B1F5001F0CD3490828
:102E80005FEA30004FEA3C0C04F101044FEA44527F
:102E900012F5800F80F09A80BCF1004F08BF5FEA06
:102EA000500C50F1000041EB045141EA050130BDE6
:102EB0005FEA4C0C404141EB0101013C28BFB1F5F8
:102EC000801FE9D291F0000F04BF01460020B1FA43
:102ED00081F308BF2033A3F10B03B3F120020CDA16
:102EE0000C3208DD02F1140CC2F10C0201FA0CF0F4
:102EF00021FA02F10CE002F11402D8BFC2F1200C59
:102F000001FA02F120FA0CFCDCBF41EA0C0190400E
:102F1000E41AA2BF01EB0451294330BD6FEA040457
:102F20001F3C1CDA0C340EDC04F11404C4F1200242
:102F300020FA04F001FA02F340EA030021FA04F354
:102F400045EA030130BDC4F10C04C4F1200220FAAB
:102F500002F001FA04F340EA0300294630BD21FAE9
:102F600004F0294630BD94F0000F83F4801306BFAF
:102F700081F480110134013D4EE77FEA645C18BFA3
:102F80007FEA655C29D094EA050F08BF90EA020F3A
:102F900005D054EA000C04BF1946104630BD91EA32
:102FA000030F1EBF0021002030BD5FEA545C05D135
:102FB0004000494128BF41F0004130BD14F5800474
:102FC0003CBF01F5801130BD01F0004545F0FE41E8
:102FD00041F470014FF0000030BD7FEA645C1ABF1D
:102FE000194610467FEA655C1CBF0B46024650EA54
:102FF000013406BF52EA033591EA030F41F4002180
:1030000030BD00BF90F0000F04BF0021704730B505
:103010004FF4806404F132044FF000054FF00001DA
:1030200050E700BF90F0000F04BF0021704730B59B
:103030004FF4806404F1320410F0004548BF404270
:103040004FF000013EE700BF42004FEAE2014FEAC5
:1030500031014FEA02701FBF12F07F4393F07F4FA0
:1030600081F06051704732F07F4208BF704793F0A3
:103070007F4F04BF41F40021704730B54FF46074B6
:1030800001F0004521F000411CE700BF50EA0102B9
:1030900008BF704730B54FF000050AE050EA010262
:1030A00008BF704730B511F0004502D5404261EBD2
:1030B00041014FF4806404F132045FEA915C3FF413
:1030C000D8AE4FF003025FEADC0C18BF03325FEAB0
:1030D000DC0C18BF033202EBDC02C2F1200300FA61
:1030E00003FC20FA02F001FA03FE40EA0E0021FA86
:1030F00002F11444BDE600BF70B54FF0FF0C4CF474
:10310000E06C1CEA11541DBF1CEA135594EA0C0F25
:1031100095EA0C0F00F0DEF82C4481EA030621EA60
:103120004C5123EA4C5350EA013518BF52EA03359B
:1031300041F4801143F4801338D0A0FB02CE4FF04D
:103140000005E1FB02E506F00042E0FB03E54FF07D
:103150000006E1FB03569CF0000F18BF4EF0010E75
:10316000A4F1FF04B6F5007F64F5407404D25FEA71
:103170004E0E6D4146EB060642EAC62141EA555124
:103180004FEAC52040EA5E504FEACE2EB4F1FD0C66
:1031900088BFBCF5E06F1ED8BEF1004F08BF5FEAE4
:1031A000500E50F1000041EB045170BD06F0004696
:1031B00046EA010140EA020081EA0301B4EB5C0443
:1031C000C2BFD4EB0C0541EA045170BD41F480113B
:1031D0004FF0000E013C00F3AB8014F1360FDEBF60
:1031E000002001F0004170BDC4F10004203C35DA3C
:1031F0000C341BDC04F11404C4F1200500FA05F3BF
:1032000020FA04F001FA05F240EA020001F000425F
:1032100021F0004110EBD37021FA04F642EB0601D5
:103220005EEA430E08BF20EAD37070BDC4F10C04FF
:10323000C4F1200500FA04F320FA05F001FA04F2C3
:1032400040EA020001F0004110EBD37041F10001AF
:103250005EEA430E08BF20EAD37070BDC4F12005BA
:1032600000FA05F24EEA020E20FA04F301FA05F222
:1032700043EA020321FA04F001F0004121FA04F2CA
:1032800020EA020000EBD3705EEA430E08BF20EA9A
:10329000D37070BD94F0000F0FD101F000464000D4
:1032A00041EB010111F4801F08BF013CF7D041EA56
:1032B000060195F0000F18BF704703F0004652005A
:1032C00043EB030313F4801F08BF013DF7D043EA2B
:1032D0000603704794EA0C0F0CEA135518BF95EAE1
:1032E0000C0F0CD050EA410618BF52EA4306D1D168
:1032F00081EA030101F000414FF0000070BD50EA87
:10330000410606BF1046194652EA430619D094EA10
:103310000C0F02D150EA013613D195EA0C0F05D1FA
:1033200052EA03361CBF104619460AD181EA03014E
:1033300001F0004141F0FE4141F470014FF0000006
:1033400070BD41F0FE4141F4780170BD70B54FF0A1
:10335000FF0C4CF4E06C1CEA11541DBF1CEA135521
:1033600094EA0C0F95EA0C0F00F0A7F8A4EB050403
:1033700081EA030E52EA03354FEA013100F08880FA
:103380004FEA03334FF0805545EA131343EA1263C3
:103390004FEA022245EA111545EA10654FEA002678
:1033A0000EF000419D4208BF964244F1FD0404F531
:1033B000407402D25B084FEA3202B61A65EB03058D
:1033C0005B084FEA32024FF480104FF4002CB6EB4A
:1033D000020E75EB030E22BFB61A754640EA0C00CA
:1033E0005B084FEA3202B6EB020E75EB030E22BF0A
:1033F000B61A754640EA5C005B084FEA3202B6EB4B
:10340000020E75EB030E22BFB61A754640EA9C0009
:103410005B084FEA3202B6EB020E75EB030E22BFD9
:10342000B61A754640EADC0055EA060E18D04FEA97
:10343000051545EA16754FEA06164FEAC30343EA37
:1034400052734FEAC2025FEA1C1CC0D111F4801F04
:103450000BD141EA00014FF000004FF0004CB6E7FD
:1034600011F4801F04BF01430020B4F1FD0C88BF9C
:10347000BCF5E06F3FF6AFAEB5EB030C04BFB6EBA7
:10348000020C5FEA500C50F1000041EB045170BD9A
:103490000EF0004E4EEA113114EB5C04C2BFD4EBC7
:1034A0000C0541EA045170BD41F480114FF0000E4B
:1034B000013C90E645EA060E8DE60CEA135594EAC7
:1034C0000C0F08BF95EA0C0F3FF43BAF94EA0C0FCA
:1034D0000AD150EA01347FF434AF95EA0C0F7FF43F
:1034E00025AF104619462CE795EA0C0F06D152EA93
:1034F00003353FF4FDAE1046194622E750EA410677
:1035000018BF52EA43067FF4C5AE50EA41047FF487
:103510000DAF52EA43057FF4EBAE12E74FF0FF3CEC
:1035200006E000BF4FF0010C02E000BF4FF0010CBD
:103530004DF804CD4FEA410C7FEA6C5C4FEA430C36
:1035400018BF7FEA6C5C1BD001B050EA410C0CBF85
:1035500052EA430C91EA030F02BF90EA020F0020E7
:10356000704710F1000F91EA030F58BF994208BF4E
:1035700090422CBFD8176FEAE37040F0010070470B
:103580004FEA410C7FEA6C5C02D150EA013C07D162
:103590004FEA430C7FEA6C5CD6D152EA033CD3D0AD
:1035A0005DF8040B704700BF8446104662468C46A7
:1035B0001946634600E000BF01B5FFF7B7FF0028DA
:1035C00048BF10F1000F01BD4DF808EDFFF7F4FF03
:1035D0000CBF012000205DF808FB00BF4DF808ED8E
:1035E000FFF7EAFF34BF012000205DF808FB00BFB1
:1035F0004DF808EDFFF7E0FF94BF012000205DF8D3
:1036000008FB00BF4DF808EDFFF7CEFF94BF012087
:1036100000205DF808FB00BF4DF808EDFFF7C4FF80
:1036200034BF012000205DF808FB00BF4A0011D222
:1036300012F5001211D20DD56FF47873B3EB62520C
:103640000ED44FEAC12343F0004343EA505323FA18
:1036500002F070474FF00000704750EA013002D18D
:103660004FF0FF3070474FF00000704780F000408F
:1036700002E000BF81F0004142001FBF5FEA41034A
:1036800092EA030F7FEA226C7FEA236C6AD04FEA4A
:103690001262D2EB1363C1BFD2184140484041408F
:1036A000B8BF5B42192B88BF704710F0004F40F441
:1036B000000020F07F4018BF404211F0004F41F45D
:1036C000000121F07F4118BF494292EA030F3FD029
:1036D000A2F1010241FA03FC10EB0C00C3F120033C
:1036E00001FA03F100F0004302D5494260EB4000CB
:1036F000B0F5000F13D3B0F1807F06D340084FEA36
:10370000310102F10102FE2A51D2B1F1004F40EB2A
:10371000C25008BF20F0010040EA03007047490092
:1037200040EB0000013A28BFB0F5000FEDD2B0FA2F
:1037300080FCACF1080CB2EB0C0200FA0CF0AABF52
:1037400000EBC25052421843BCBFD04018437047F0
:1037500092F0000F81F4000106BF80F400000132F6
:10376000013BB5E74FEA41037FEA226C18BF7FEACD
:10377000236C21D092EA030F04D092F0000F08BF0F
:103780000846704790EA010F1CBF0020704712F0F6
:103790007F4F04D1400028BF40F00040704712F135
:1037A00000723CBF00F50000704700F0004343F09A
:1037B000FE4040F4000070477FEA226216BF0846D0
:1037C0007FEA23630146420206BF5FEA412390EA93
:1037D000010F40F4800070474FF0000304E000BF89
:1037E00010F0004348BF40425FEA000C08BF70473A
:1037F00043F0964301464FF000001CE050EA0102FE
:1038000008BF70474FF000030AE000BF50EA010212
:1038100008BF704711F0004302D5404261EB4101FF
:103820005FEA010C02BF84460146002043F0B64324
:1038300008BFA3F18053A3F50003BCFA8CF2083A49
:10384000A3EBC25310DB01FA02FC634400FA02FC52
:10385000C2F12002BCF1004F20FA02F243EB020059
:1038600008BF20F00100704702F1200201FA02FCBB
:10387000C2F1200250EA4C0021FA02F243EB0200AE
:1038800008BF20EADC7070474FF0FF0C1CEAD052F2
:103890001EBF1CEAD15392EA0C0F93EA0C0F6FD0B3
:1038A0001A4480EA010C400218BF5FEA41211ED091
:1038B0004FF0006343EA501043EA5111A0FB01317D
:1038C0000CF00040B1F5000F3EBF490041EAD37152
:1038D0005B0040EA010062F17F02FD2A1DD8B3F1CE
:1038E000004F40EBC25008BF20F00100704790F03D
:1038F000000F0CF0004C08BF49024CEA502040EA8F
:1039000051207F3AC2BFD2F1FF0340EAC250704754
:1039100040F400004FF00003013A5DDC12F1190F92
:10392000DCBF00F000407047C2F10002410021FA04
:1039300002F1C2F1200200FA02FC5FEA310040F11C
:10394000000053EA4C0308BF20EADC70704792F095
:10395000000F00F0004C02BF400010F4000F013ACD
:10396000F9D040EA0C0093F0000F01F0004C02BFC8
:10397000490011F4000F013BF9D041EA0C018FE737
:103980000CEAD15392EA0C0F18BF93EA0C0F0AD03D
:1039900030F0004C18BF31F0004CD8D180EA010063
:1039A00000F00040704790F0000F17BF90F0004FFC
:1039B000084691F0000F91F0004F14D092EA0C0FDE
:1039C00001D142020FD193EA0C0F03D14B0218BF71
:1039D000084608D180EA010000F0004040F0FE40B7
:1039E00040F40000704740F0FE4040F44000704753
:1039F0004FF0FF0C1CEAD0521EBF1CEAD15392EAD2
:103A00000C0F93EA0C0F69D0A2EB030280EA010CC1
:103A100049024FEA402037D04FF0805343EA11115A
:103A200043EA10130CF000408B4238BF5B0042F1B8
:103A30007D024FF4000C8B4224BF5B1A40EA0C005D
:103A4000B3EB510F24BFA3EB510340EA5C00B3EB8F
:103A5000910F24BFA3EB910340EA9C00B3EBD10F7D
:103A600024BFA3EBD10340EADC001B0118BF5FEACF
:103A70001C1CE0D1FD2A3FF650AF8B4240EBC250F8
:103A800008BF20F0010070470CF0004C4CEA5020B9
:103A90007F32C2BFD2F1FF0340EAC250704740F408
:103AA00000004FF00003013A37E792F0000F00F0FA
:103AB000004C02BF400010F4000F013AF9D040EA78
:103AC0000C0093F0000F01F0004C02BF490011F40C
:103AD000000F013BF9D041EA0C0195E70CEAD15304
:103AE00092EA0C0F08D142027FF47DAF93EA0C0FEB
:103AF0007FF470AF084676E793EA0C0F04D14B02CF
:103B00003FF44CAF08466EE730F0004C18BF31F080
:103B1000004CCAD130F000427FF45CAF31F000437A
:103B20007FF43CAF5FE700BF4FEA4002B2F1FE4FC7
:103B30000FD34FF09E03B3EB12620DD94FEA00236F
:103B400043F0004310F0004F23FA02F018BF404248
:103B500070474FF00000704712F1610F01D142022F
:103B600005D110F0004008BF6FF0004070474FF0E3
:103B7000000070475822024B4FF0FF301A60704728
:103B8000E80100205822024B4FF0FF301A607047C6
:103B9000E80100205822024B4FF0FF301A607047B6
:103BA000E8010020044A05491368002B08BF0B46B2
:103BB0001844106018467047EC010020E80F002000
:103BC0005822024B4FF0FF301A607047E801002086
:103BD00010B41B4A0123136053609360D360C82163
:103BE000184A116050221848026018480160642188
:103BF0001748016017480260174896240460174868
:103C0000FA24046016484FF4E174046015484FF438
:103C10001674046014484FF49664046013480260FC
:103C20001348016013480260134A1160134A13607D
:103C3000134B00221A60134B0A221A6010BC704703
:103C40004003002034030020300300203C03002008
:103C5000380300202C030020280300202403002028
:103C6000200300201C030020180300201403002060
:103C7000100300200C030020080300200403002090
:103C8000FC0200200003002030B591B02822002162
:103C900006A8FCF779FE002401940294039404948E
:103CA0000594012306934FF48033079302250D9565
:103CB0000E934FF4E0130F9306A805F04FF80F236F
:103CC0000193029503944FF480630493059429466D
:103CD00001A805F075FA11B030BD000070B588B0CC
:103CE00000250495059506950795334B9A6942F092
:103CF00004029A619A6902F004020192019A9A6997
:103D000042F008029A619A6902F008020292029A4D
:103D10009A6942F010029A619B6903F010030393C1
:103D2000039B264E01221021304604F0F2FF2A4662
:103D30004FF48071304604F0ECFF4FF48873049325
:103D4000012405940323079304A9304604F0CCFE14
:103D50004FF40063049305950225069504A93046A7
:103D600004F0C2FE06F5806622460C21304604F0BF
:103D7000D0FF22464FF48051304604F0CAFF41F292
:103D8000EF3304930594079504A9304604F0ACFE84
:103D900006F5806622464FF40051304604F0B9FF24
:103DA0004FF4005304930594079504A9304604F09A
:103DB0009BFE08B070BD00BF00100240000801402B
:103DC00070B58AB0002406940794089409941B4B9C
:103DD000DA6942F00102DA61DB6903F00103019361
:103DE000019B174D4FF080432B6047236B60AC6005
:103DF0004FF0FF33EB602C61AC61284606F0E2F82F
:103E000006940126079608940994082206A92846D4
:103E100006F038F902940394049405940423029361
:103E200002A9084804F060FE224631461C2004F036
:103E3000CFFC1C2004F0DCFC0AB070BD0010024076
:103E4000E40700200008014010B582B0114BDA6988
:103E500042F00402DA61DB6903F004030193019B81
:103E60000D480E4B0360472343600024846040F2FA
:103E7000E733C36004618023836106F077F822464C
:103E800021461E2004F0A4FC1E2004F0B1FC02B068
:103E900010BD00BF001002409C0700200008004039
:103EA00030B587B01E4B9A6942F480429A619A6994
:103EB00002F480420092009A9A6942F004029A61E8
:103EC0009B6903F004030193019B00240294039473
:103ED000049405944FF40073029302230393032385
:103EE0000593104D02A9284604F0FEFD4FF48063AF
:103EF00002930394049402A9284604F0F5FD0A48AD
:103F00000A4B03604FF4E13343608460C460046192
:103F10000C2343618461C46106F08CFA07B030BDA4
:103F20000010024000080140540700200038014002
:103F300070B586B0264BDA6942F48022DA61DA691C
:103F400002F480220092009A9A6942F008029A6173
:103F50009B6903F008030193019B002402940394DE
:103F6000049405944FF48063029302230393032384
:103F70000593184D02A9284604F0B6FD4FF40063DE
:103F8000029303940126049602A9284604F0ACFD8E
:103F9000114D124B2B604FF4E1336B60AC60EC6061
:103FA0002C610C236B61AC61EC61284606F042FA8F
:103FB0002A68D36843F02003D36022463146272085
:103FC00004F006FC272004F013FC06B070BD00BF0F
:103FD00000100240000C01400C0700200048004087
:103FE00030B587B01B4B9A6942F480529A619B6945
:103FF00003F480530193019B0024029403940494DE
:104000000594A02302930223039303230593124DE7
:1040100002A9284604F068FD402302930394049407
:1040200002A9284604F060FD0C480D4B03604FF4D4
:10403000827343608460C460046144614FF4007320
:1040400083610823C36104624462846205F0C1FA9B
:1040500007B030BD0010024000080140B406002047
:104060000030014030B587B0214BDA6942F480421C
:10407000DA61DA6902F480420092009A9A6942F0A9
:1040800008029A619B6903F008030193019B0024D5
:1040900002940394049405944FF420430293022362
:1040A000039303230593134D02A9284604F01CFD36
:1040B0004FF48043029303940123049302A92846FA
:1040C00004F012FD0C480D4B03604FF48273436003
:1040D0008460C460046144614FF4007383613823D9
:1040E000C36104624462846205F073FA07B030BDB4
:1040F00000100240000C01405C0600200038004027
:1041000030B587B0144B9A6942F400729A619B698A
:1041100003F400730193019B002502950395049518
:10412000059503230293039302A90C4804F0DCFCD9
:104130000B4C0C4B2360A560257325754FF4602351
:10414000E361656001232361204604F0E9F920461C
:1041500004F06AFA07B030BD0010024000080140C8
:104160002C0600200024014010B584B000230193E8
:104170000293039301900123029305230393084CB8
:1041800001A9204604F048F8204604F029F90A2144
:10419000204603F07BFF204604F03AF804B010BD3F
:1041A0002C06002010B50020FFF7DEFF1D4C20601C
:1041B0000120FFF7D9FF1C4B18602368E52B28DC92
:1041C0001A4A13889BB243F080031380184B1B6874
:1041D000F3B9184BDB78DBB20A2B0ED9154BDB7821
:1041E000DBB20D2B09D8104B1B68C72B05DC0F4A1F
:1041F00013889BB243F0400313800B4B1B68FA2BD0
:1042000006DD0A4A13889BB223F040039BB2138059
:1042100010BD064A13889BB223F080039BB2138023
:10422000D4E700BF78050020740500202A0600208E
:10423000FC0200207400002010B50446FCF7F6FADA
:10424000642382B22146024806F024F910BD00BF63
:104250005407002038B503F0DFFEFFF715FDFFF728
:104260003DFDFFF7ADFDFFF7EFFDFFF719FEFFF78F
:104270005FFEFFF7B5FEFFF7F5FEFFF741FF03F026
:104280003FFCFFF7A5FC01F0D9FA01F0FBFA00F0C2
:1042900071F97448FFF7D0FF7348FFF7CDFF4FF473
:1042A000FA7003F0DDFE00F019FB7048FFF7C4FF61
:1042B00002F0A4FCF0B1044610F0010F1ED114F07E
:1042C000020F1FD16A48FFF7B7FF02F035FAE8B1D5
:1042D000684A13889BB243F0200313806648FFF7B7
:1042E000ABFF01F09DFF654B00221A605A6003F09E
:1042F000EDFD90E06248FFF79FFFE3E76148FFF7BD
:104300009BFFDCE76048FFF797FFDBE75F48FFF7BD
:1043100093FFE6E7002000F0A3FB5D4B00221A703C
:104320007EE0012000F09CFB5A4B00221A707CE0DA
:104330000133032B13DC514931F81320013292B2BF
:1043400021F813201E2AF3D9534951F8232053484A
:1043500050F823000244520841F82320E8E7504B6C
:104360001B881BB223B94E4B5B881BB2002B6BD052
:104370004B4B9B881BB223B9494BDB881BB2002BEC
:1043800066D0FFF70FFF474B5B796BB9454B1B7945
:10439000DBB2454AA2FB031202F0FC0101EB9202E0
:1043A0009B1A13F0FF0F57D03D4D2A8812B23F4C95
:1043B000003A18BF01222021204604F0AAFC6A8896
:1043C00012B2003A18BF01224021204604F0A1FC9D
:1043D000AA8812B2003A18BF01228021204604F0B8
:1043E00098FCEA8812B2003A18BF01224FF480719B
:1043F000204604F08EFC01F021FF021E18BF0122AE
:104400004FF40071204604F084FC01F027FF02F015
:1044100023F903F06FFD1E4B1B78002B7FF47AAF5E
:104420001C4B1B78002B7FF47CAF214B1B881BB2ED
:10443000012BEAD100241E4B1C804FF400511D4873
:1044400004F06DFC234674E7002000F0D3FA8FE7F8
:10445000012000F0CFFA94E701F056FA1648FFF772
:10446000EBFEA1E7D4A60008F0A6000808A7000804
:1044700080A700082A06002094A70008F002002068
:104480001CA700084CA7000864A70008ACA70008F8
:104490005105002050050020D8050020E805002027
:1044A0001806002074000020CDCCCCCC000C0140BC
:1044B0002806002000100140BCA7000808B50268CB
:1044C000034B9A4200D008BD00F078F8FBE700BF2C
:1044D0000008004008B505480268136823F040034F
:1044E00013600823C36105F074F808BD5C06002062
:1044F00082B00E4B9A6942F001029A619A6902F009
:1045000001020092009ADA6942F08052DA61DB69B6
:1045100003F080530193019B054A536823F0E06345
:1045200043F00073536002B0704700BF00100240B8
:1045300000000140FEE7FEE7FEE7FEE7FEE770470A
:104540007047704708B503F079FD08BD08B502480B
:1045500005F01FFC08BD00BFE407002008B50248B5
:1045600005F017FC08BD00BF9C07002008B502F04D
:104570003BF808BD08B50821034805F0F9FD0348DC
:1045800005F0B6FB08BD00BFE40700209C07002033
:1045900008B50368B3F1804F00D008BD037F042B3A
:1045A000FBD1082105F0D9FB024B1860024B012218
:1045B0001A70F2E7340800202C080020F8B5744B7C
:1045C0001B78EBB1734B1B6873490C680B60704927
:1045D000002008701C1B65D1704A13881BB27049FB
:1045E00021F8130013881BB2032B09D8DFE803F06E
:1045F00002454C536B4A13889BB243F0020313806D
:10460000694B1B881BB2002B40F0B480674B1A68C3
:1046100042F20F739A4203DC644A13680133136059
:10462000624B5A6842F20F739A4203DC5F4A536846
:10463000013353605E4B1B881BB21BB15D4A13688C
:10464000013313605A4B5B881BB21BB1594A136884
:1046500001331360564B9B881BB21BB1564A13683B
:1046600001331360524BDB881BB2002B00F08280B9
:10467000514A1368013313607CE04A4A13889BB2A5
:1046800043F004031380BBE7464A13889BB243F010
:1046900008031380B4E7434A13889BB243F0100326
:1046A0001380ADE73D4A13881BB2444941F82340CB
:1046B00013881BB2424A52F8233053B3374D2B882C
:1046C0001BB2164652F82300FFF786F8074620462D
:1046D000FFF782F801463846FEF7CCFF394C2060E0
:1046E0002B881BB256F82300FFF776F801462068A6
:1046F000FFF77EF9206020683349FFF7C5F8206096
:1047000020682C8824B2FFF70FFA03B2244A22F85B
:104710001430224B1B881BB2032B3FF671AFDFE82E
:1047200003F0020A121A1F4A13889BB223F00203F5
:104730009BB2138064E71B4A13889BB223F00403E7
:104740009BB213805CE7174A13889BB223F00803DF
:104750009BB2138054E7134A13889BB223F01003D3
:104760009BB213804CE70D4B1B881BB2174A52F8C3
:1047700023306BBB094A138801331BB213801388A3
:104780001BB2042BEFD1134600221A80EBE700BFC7
:104790002C080020340800203008002004060020E7
:1047A000B40500202A06002002060020F80500209B
:1047B00018060020800500207C050020E805002068
:1047C000D8050020BC05002000401C464003002006
:1047D0003A4D2A883A4C02F001020121204604F0A9
:1047E00098FA2A88C2F340020221204604F091FA86
:1047F000344B1B881BB223B1334A138801331BB2DD
:104800001380324B1A6801321A601968304A1160FD
:104810001B68B3F57A7F11D300232C4A13602C4A0E
:1048200013602C4B01221A802B4B5B79DBB23A2BA5
:1048300007D8294A53790133DBB2537100F0BAFC2F
:10484000F8BD254B00225A711B79DBB23A2B05D8F3
:10485000214A13790133DBB21371EFE71E4B0022BB
:104860001A71DB78DBB2162B05D81B4AD3780133DB
:10487000DBB2D370E2E7184B0022DA709B78DBB230
:104880001E2B05D8144A93780133DBB29370D5E719
:10489000114B01229A705B78DBB20B2B05D80E4AC4
:1048A00053780133DBB25370C8E70B4A01235370CE
:1048B00013780133DBB21370C0E700BF0406002099
:1048C000000C014002060020000600202006002007
:1048D00024060020280600207400002010B52A4B72
:1048E00001221A8000230AE00022284941F82320EF
:1048F000274941F82320274921F813200133032BAE
:10490000F2D9002418E0244A52F82300204951F833
:104910002320024441F823201E4931F8132092B28B
:10492000013292B221F813200133032BEBD964201A
:1049300003F096FB0134E4B2092C09D8174B00228E
:104940001A80164B1B881BB2032BFADD0023ECE701
:10495000002300E00133032B12D80E4A32F8132053
:1049600092B2002AF6D00A4A52F82320094931F8B7
:10497000131089B2B2FBF1F2044941F82320E9E7B0
:10498000014B00221A8010BD02060020D80500202D
:10499000C8050020C0050020E80500200006002012
:1049A000124A9178124B1970D17859705179D97097
:1049B00091791971117A9971517AD971D17A5972A3
:1049C000117B9972917B1973D17B5973517CD97387
:1049D000917C1974127D9A742E229A705A712C222D
:1049E0001A723A21D97299735A7470475C00002088
:1049F000380800200346C8B9104900220A804A80BE
:104A00000F490A8000220F4941F823200E4941F83E
:104A100023200E4941F823200D4921F813200D4988
:104A200021F813200C4941F8232070470349002244
:104A30008A80CA8009490A80E4E700BF180600207E
:104A40007205002068050020600500205805002040
:104A50001406002010060020080600207005002023
:104A60002DE9F04F83B00446B74B1868FEF7DAFA29
:104A70000022B64BFEF740FB06460F462546B44BD8
:104A800053F82430002B79DDB14B53F82400FEF7A6
:104A9000C9FA02460B4630463946FEF757FC8046B7
:104AA0008946AC4B53F82530AB4A52F825209B1A67
:104AB000002B68DDA74B53F82500A74B53F8253092
:104AC000C01AFEF7AFFA02460B4630463946FEF7EB
:104AD0003DFC02460B4640464946FEF757F9002288
:104AE0009E4BFEF709FB06460F469B4B53F82530BD
:104AF000984A52F82520964951F82510521A134425
:104B000003EBD3735B10964A13601068FEF78AFAC2
:104B100032463B46FEF7F0FA00228C4BFEF716FCBD
:104B2000804689468F4B1868FEF77CFA02460B4692
:104B300040464946FEF728F98046894680A3D3E9D6
:104B4000002330463946FEF7D7FAFEF795F8FEF710
:104B50006DFD86B2844B5E80844A32F8152015B212
:104B60001A80834BDB78DBB2062B0FD9804BDB78C6
:104B7000DBB2142B40F2A580002708E04FF00008BC
:104B80004FF000098DE700220023A4E70027794BAE
:104B90001868FEF747FA02460B46CDE90023424665
:104BA0004B46FEF739FD002800F09080002F00F002
:104BB0008A80714B1B689BB29E4200F293804FF03B
:104BC000000A0C2D00F09480B4FA84F464090127E3
:104BD000A3466A4B53F82430B3F5FA6FC0F28A80CB
:104BE0000025002C40F08B81654B1868FEF71AFAFF
:104BF00042464B46FEF710FD00287DD0614A536EB9
:104C000001335366BAF1000F02D0D36E0133D3667D
:104C10001FB15C4A136F013313671DB1594A536FBB
:104C200001335367584A1368334413604FF05808F0
:104C30004D4E86F80480FFF7B3FE04F1310353486C
:104C4000037580F816807188514AA2FB013252091F
:104C5000504BA3FB02C6F60806EB8606A2EB460203
:104C600030320276A3FB0162D608A3FB06C3DB0841
:104C700003EB8303A6EB43023032427606EB860653
:104C8000A1EB460130318176BAF1000F00F07B8252
:104C900031223E4B1A77002F00F0778231223B4BB6
:104CA0005A77002D00F073823122384B9A77334BBC
:104CB000002243F82B202046FFF79CFE03B0BDE8FE
:104CC000F08F012763E7344B1B6874E73FB1334B28
:104CD0001B689BB29E4208D84FF0000A71E7304B28
:104CE0001B68F6E74FF0010A6BE74FF0010A68E72F
:104CF00000276DE7012574E742464B46DDE90001D8
:104D0000FEF78AFC00284FD01E4A13680133136057
:104D1000BAF1000F02D09368013393601FB1194AB2
:104D2000D3680133D3601DB1164A1369013313618F
:104D30001C4A1368334413604FF0410878E700BF02
:104D40003BDF4F8D976EA23F3403002000408F4021
:104D50006805002058050020600500200000E03FA5
:104D60005405002030030020F0010020140600202C
:104D7000740000202803002014030020F805002000
:104D80002C030020F80100209C050020380800209A
:104D90001F85EB51CDCCCCCC100300200C030020A0
:104DA00008030020B0050020954B1868FEF73AF97B
:104DB00042464B46FEF730FCD0B1924A536901336C
:104DC0005361BAF1000F02D0D3690133D3611FB12F
:104DD0008C4A136A013313621DB18A4A536A013344
:104DE0005362894A1368334413604FF042081FE747
:104DF000864B1868FEF716F942464B46FEF70CFC48
:104E0000D0B1804A936A01339362BAF1000F02D0A5
:104E1000136B013313631FB17A4A536B013353632E
:104E20001DB1784A936B01339363794A1368334415
:104E300013604FF04308FBE6764B1868FEF7F2F874
:104E400042464B46FEF7E8FBD0B16E4AD36B0133C6
:104E5000D363BAF1000F02D0536C013353641FB116
:104E6000684A936C013393641DB1664AD36C013375
:104E7000D364694A1368334413604FF04408D7E69B
:104E8000664B1868FEF7CEF842464B46FEF7C4FB69
:104E9000D0B15C4A136D01331365BAF1000F02D033
:104EA000936D013393651FB1564AD36D0133D365BA
:104EB0001DB1544A136E01331366594A13683344C3
:104EC00013604FF04508B3E64E4A536E0133536604
:104ED000BAF1000F02D0D36E0133D3661FB1494A35
:104EE000136F013313671DB1464A536F0133536784
:104EF0004C4A1368334413604FF0580898E64A4B05
:104F00001868FEF78FF842464B46FEF785FB10B354
:104F10003C4AD2F8E0300133C2F8E030BAF1000F79
:104F200004D0D2F8E8300133C2F8E8302FB1354A66
:104F3000D2F8EC300133C2F8EC302DB1314AD2F85E
:104F4000F0300133C2F8F030384A1368334413604C
:104F50004FF058086CE642464B46DDE90001FEF78B
:104F60005BFB00B3274AD36F0133D367BAF1000F5D
:104F700004D0D2F884300133C2F884302FB1214AF2
:104F8000D2F888300133C2F888302DB11D4AD2F8EA
:104F90008C300133C2F88C30254A136833441360D7
:104FA0004FF0410844E6164B1868FEF73BF84246BE
:104FB0004B46FEF731FB00283ED0124AD2F8903023
:104FC0000133C2F89030BAF1000F04D0D2F8983013
:104FD0000133C2F898302FB10A4AD2F89C3001331D
:104FE000C2F89C302DB1074AD2F8A0300133C2F884
:104FF000A030104A1368334413604FF0420817E69C
:1050000024030020F8010020AC050020200300202C
:10501000A80500201C030020A40500201803002080
:10502000A00500209C0500202C0300208405002002
:105030009805002094050020564B1868FDF7F2FFF4
:1050400042464B46FEF7E8FA10B3534AD2F8A43072
:105050000133C2F8A430BAF1000F04D0D2F8AC305A
:105060000133C2F8AC302FB14B4AD2F8B030013323
:10507000C2F8B0302DB1484AD2F8B4300133C2F88A
:10508000B430464A1368334413604FF04308CFE509
:10509000434B1868FDF7C6FF42464B46FEF7BCFA85
:1050A00010B33D4AD2F8B8300133C2F8B830BAF183
:1050B000000F04D0D2F8C0300133C2F8C0302FB195
:1050C000354AD2F8C4300133C2F8C4302DB1324A67
:1050D000D2F8C8300133C2F8C830324A13683344BA
:1050E00013604FF04408A3E52F4B1868FDF79AFFB3
:1050F00042464B46FEF790FA10B3274AD2F8CC301E
:105100000133C2F8CC30BAF1000F04D0D2F8D43059
:105110000133C2F8D4302FB11F4AD2F8D83001334E
:10512000C2F8D8302DB11C4AD2F8DC300133C2F8B5
:10513000DC301E4A1368334413604FF0450877E5AE
:10514000154AD2F8E0300133C2F8E030BAF1000F6E
:1051500004D0D2F8E8300133C2F8E8302FB10E4A5B
:10516000D2F8EC300133C2F8EC302DB10A4AD2F853
:10517000F0300133C2F8F0300D4B1A6816441E604F
:105180004FF0580854E5302283E5302287E530227D
:105190008BE500BF20030020F801002090050020CF
:1051A0001C0300208C050020180300208805002027
:1051B0008405002008B57D4B1B881BB2ABB97C4B26
:1051C0001B6893B17B4B1B881BB27B4A12689342CE
:1051D0000BDD7A4B1B881BB2002B00F00E81774B46
:1051E0001B881BB2012B00F00281704B1B881BB285
:1051F000ABB16F4B1B6893B16E4B1B881BB2704AEF
:10520000126893420BDA6D4B1B881BB2022B00F025
:1052100010816A4B1B881BB2032B00F02681634B65
:105220001B881BB253B1624B1B683BB1614B1B889F
:105230001BB2634A12689342C0F226815B4B5B88C3
:105240001BB2ABB95A4B5B6893B15A4B5B881BB22C
:10525000594A126893420BDD584B1B881BB2002B36
:1052600000F01C81554B1B881BB2012B00F01081F4
:105270004E4B5B881BB2ABB14D4B5B6893B14D4B52
:105280005B881BB24E4A126893420BDA4B4B1B8869
:105290001BB2032B00F01E81484B1B881BB2022B54
:1052A00000F03481414B5B881BB253B1404B5B68CB
:1052B0003BB1404B5B881BB2414A12689342C0F23B
:1052C00034813A4B9B881BB2ABB9394B9B6893B185
:1052D000384B9B881BB2384A126893420BDD394B1E
:1052E0001B881BB2002B00F02A81364B1B881BB297
:1052F000012B00F01E812D4B9B881BB2ABB12C4BB8
:105300009B6893B12B4B9B881BB22D4A126893422A
:105310000BDA2C4B1B881BB2022B00F02C81294B83
:105320001B881BB2032B00F04281204B9B881BB2D1
:1053300053B11F4B9B683BB11E4B9B881BB2204A4D
:1053400012689342C0F24281184BDB881BB2ABB9A2
:10535000174BDB6893B1174BDB881BB2164A1268F8
:1053600093420BDD174B1B881BB2002B00F05881BA
:10537000144B1B881BB2012B00F04C810B4BDB88BC
:105380001BB223B30A4BDB680BB30A4BDB881BB29F
:105390000B4A126893421ADA0A4B1B881BB2032B82
:1053A00000F05A81074B1B881BB20DE01806002045
:1053B00040030020B40500203C03002072050020BB
:1053C0003803002070050020022B00F06181814B22
:1053D000DB881BB253B1804BDB683BB17F4BDB8872
:1053E0001BB27F4A12689342C0F2618108BD7D4BB7
:1053F0001B881BB2152B7FF4F8AE764B01221A8066
:10540000794B1B881BB23BB1784B1A68784B1A60FA
:10541000784B02221A8011E70123734A1380754AE0
:105420001380754B5A68754B5A606E4B0C221A806C
:1054300004E76C4B1B881BB20C2B7FF4EAAE654B68
:1054400000221A806E4B1B68934215DD674B1A6869
:105450006C4B1A60674B00221A80674B5A68674B87
:105460005A60694B01221A70E8E65E4B1B881BB23A
:10547000152B7FF4D4AEE2E75C4B1A68604B1A60E0
:105480005C4B03221A80D9E60020FFF7B3FAD5E679
:10549000544B1B881BB20C2B7FF4EAAE4D4B012200
:1054A0005A80514B1B881BB23BB1504B1A68504B72
:1054B0001A60504B02221A8003E701234A4A1380E4
:1054C0004C4A13804C4B1A684C4B1A60454B1522C2
:1054D0001A80F6E6434B1B881BB20C2B7FF4DCAE24
:1054E0003C4B00225A80464B1B68934215DD3F4BD4
:1054F0001A68444B1A603F4B00221A803E4B1A68D0
:105500003E4B1A60404B01221A70DAE6354B1B887D
:105510001BB2152B7FF4C6AEE2E7344B1A68384B4A
:105520001A60344B03221A80CBE60020FFF762FAA0
:10553000C7E62C4B5B881BB2152B7FF4DCAE254BEA
:1055400001229A80284B5B881BB23BB1274B5A68DB
:10555000274B5A602D4B02221A80F5E60123224A7E
:1055600053802A4A1380244BDA68244BDA601D4B9F
:105570000C225A80E8E61B4B5B881BB20C2B7FF495
:10558000CEAE144B00229A801D4B5B68934215DD12
:10559000164B5A681B4B5A601C4B00221A80164B44
:1055A000DA68164BDA601A4B01221A70CCE60D4B02
:1055B0005B881BB2152B7FF4B8AEE2E70B4B5A6841
:1055C0000F4B5A60114B03221A80BDE60120FFF7F2
:1055D00011FAB9E61806002040030020B4050020A7
:1055E00038030020140600201006002008060020C2
:1055F0006805002072050020E8050020D80500207D
:10560000600500205805002051050020700500208D
:1056100050050020284B5B881BB20C2B7FF4AEAEEC
:10562000264B0122DA80264B5B881BB23BB1254B0F
:105630005A68254B5A60254B02221A80D6E6012370
:105640001F4A5380214A1380214B9A68214B9A604C
:10565000194B15225A80C9E6174B5B881BB20C2BDD
:105660007FF4A0AE154B0022DA801B4B5B6893429F
:1056700015DD144B5A68194B5A60144B00221A80DE
:10568000134B9A68134B9A60154B01221A70ADE6C2
:10569000094B5B881BB2152B7FF499AEE2E7094BEF
:1056A0005A680D4B5A60094B03221A809EE601206E
:1056B000FFF7A0F99AE600BF1406002018060020A4
:1056C0001006002008060020680500207005002054
:1056D000E8050020D80500206005002058050020BE
:1056E0005005002030B5B2F57A7F00D30022184B68
:1056F00083FB023ED317C3EB6E1E164C84FB0EC514
:105700004FEAEE7CCCEBA50C0CEB8C0CAEEB4C0C0E
:105710000CF1300C00F801C084FB025CC3EBAC035D
:1057200084FB03544FEAE37CCCEBA40C0CEB8C0C15
:10573000A3EB4C0C4C1C0CF1300C00F804C003EB38
:105740008303A2EB430202313032425430BD00BF2A
:105750001F85EB516766666630B542F20F739A4259
:1057600000D90022214D85FB0235D317C3EBA515C7
:105770001F4C84FB05CE4FEAE57CCCEBAE0C0CEB6A
:105780008C0CA5EB4C0C0CF1300C00F801C0194D41
:1057900085FB025EC3EB6E1E84FB0EC54FEAEE7CFA
:1057A000CCEBA50C0CEB8C0CAEEB4C0C4D1C0CF1AB
:1057B000300C00F805C084FB02C5C3EBA50384FBD5
:1057C00003544FEAE37CCCEBA40C0CEB8C0CA3EB66
:1057D0004C0C8C1C0CF1300C00F804C003EB830360
:1057E000A2EB430203313032425430BDD34D62103C
:1057F000676666661F85EB5100B5632A00D90022F3
:105800000D4B83FB02CE4FEAE27CCCEBAE0C83FB6C
:105810000C3E4FEAEC73C3EBAE0303EB8303ACEB3C
:105820004303303343540CEB8C0CA2EB4C0201319C
:10583000303242545DF804FB67666666002304E07C
:105840000E4A3021D15401339BB2B3F5837FF7D395
:10585000002305E00A4AD15C084AD15401339BB2C7
:10586000072BF7D9054B0D2283F806210A2283F86E
:105870000721002283F80821704700BF5003002051
:10588000D0A7000808B5F82200211048FBF77CF8E3
:1058900000230F4A13600F4A13600F4A13600F4A28
:1058A00013600F4A13600F4A13600F4A13600F4AC8
:1058B00013600F4A13600F4A13600F4A13600F4AB8
:1058C00013600F4A13600F4A136008BDF8010020EF
:1058D0009C050020A0050020A4050020A8050020AC
:1058E000AC050020B00500208405002088050020BC
:1058F0008C050020900500209405002098050020CC
:10590000800500207C05002070B584B0FFF796FF6D
:10591000C74B1A68002A40F36082C64B1B68B3FB72
:10592000F2F39BB2C24A93805269002A40F3578235
:10593000C14B1B68B3FBF2F39BB2BD4A1383926A5F
:10594000002A40F34E82BD4B1B68B3FBF2F39BB2BF
:10595000B74A9385D26B002A40F34582B84B1B6847
:10596000B3FBF2F39BB2B24AA2F84030126D002AA8
:1059700040F33B82B34B1B68B3FBF2F39BB2AC4AE0
:10598000A2F85430526E002A40F33182AE4B1B68AD
:10599000B3FBF2F39BB2A64AA2F86830D26F002A9A
:1059A00040F32782A94B1B68B3FBF2F39BB2A04ADA
:1059B000A2F88030D2F89020002A40F31C82A44B39
:1059C0001B68B3FBF2F39BB2994AA2F89430D2F869
:1059D000A420002A40F311829E4B1B68B3FBF2F314
:1059E0009BB2934AA2F8A830D2F8B820002A40F31C
:1059F0000682994B1B68B3FBF2F39BB28C4AA2F868
:105A0000BC30D2F8CC20002A40F3FB81934B1B68BA
:105A1000B3FBF2F39BB2864AA2F8D030D2F8E02072
:105A2000002A40F3F0818E4B1B68B3FBF2F39BB26C
:105A30007F4DA5F8E4308B4E32788B4C0821204600
:105A4000FFF7DAFE72780A212046FFF7D5FEB2781A
:105A50000C212046FFF7D0FEF2780E212046FFF7FA
:105A6000CBFE327910212046FFF7C6FE2A681221AC
:105A70002046FFF771FEAA8816212046FFF732FE66
:105A8000AA6819212046FFF767FEEA681D21204613
:105A9000FFF762FE2A6921212046FFF75DFE6A6951
:105AA00025212046FFF758FE2A8B29212046FFF7A3
:105AB00019FEEA692C212046FFF74EFE2A6A3021A2
:105AC0002046FFF749FE6A6A34212046FFF744FE6C
:105AD000AA6A38212046FFF73FFEAA8D3C212046C6
